{
	"contracts/Supplier.sol": {
		"Supplier": {
			"abi": [
				{
					"inputs": [],
					"stateMutability": "nonpayable",
					"type": "constructor"
				},
				{
					"inputs": [
						{
							"internalType": "string",
							"name": "_name",
							"type": "string"
						},
						{
							"internalType": "uint256",
							"name": "_quantity",
							"type": "uint256"
						},
						{
							"internalType": "string",
							"name": "_location",
							"type": "string"
						}
					],
					"name": "addMaterial",
					"outputs": [],
					"stateMutability": "nonpayable",
					"type": "function"
				},
				{
					"inputs": [
						{
							"internalType": "address",
							"name": "_manufacturer",
							"type": "address"
						}
					],
					"name": "authorizeManufacturer",
					"outputs": [],
					"stateMutability": "nonpayable",
					"type": "function"
				},
				{
					"inputs": [
						{
							"internalType": "address",
							"name": "",
							"type": "address"
						}
					],
					"name": "authorizedManufacturers",
					"outputs": [
						{
							"internalType": "bool",
							"name": "",
							"type": "bool"
						}
					],
					"stateMutability": "view",
					"type": "function"
				},
				{
					"inputs": [
						{
							"internalType": "uint256",
							"name": "_id",
							"type": "uint256"
						},
						{
							"internalType": "uint256",
							"name": "_quantity",
							"type": "uint256"
						}
					],
					"name": "deductMaterial",
					"outputs": [],
					"stateMutability": "nonpayable",
					"type": "function"
				},
				{
					"inputs": [
						{
							"internalType": "uint256",
							"name": "_id",
							"type": "uint256"
						}
					],
					"name": "getMaterial",
					"outputs": [
						{
							"internalType": "string",
							"name": "",
							"type": "string"
						},
						{
							"internalType": "uint256",
							"name": "",
							"type": "uint256"
						},
						{
							"internalType": "string",
							"name": "",
							"type": "string"
						},
						{
							"internalType": "uint256",
							"name": "",
							"type": "uint256"
						}
					],
					"stateMutability": "view",
					"type": "function"
				},
				{
					"inputs": [],
					"name": "materialCount",
					"outputs": [
						{
							"internalType": "uint256",
							"name": "",
							"type": "uint256"
						}
					],
					"stateMutability": "view",
					"type": "function"
				},
				{
					"inputs": [
						{
							"internalType": "uint256",
							"name": "",
							"type": "uint256"
						}
					],
					"name": "materials",
					"outputs": [
						{
							"internalType": "uint256",
							"name": "id",
							"type": "uint256"
						},
						{
							"internalType": "string",
							"name": "name",
							"type": "string"
						},
						{
							"internalType": "uint256",
							"name": "quantity",
							"type": "uint256"
						},
						{
							"internalType": "string",
							"name": "location",
							"type": "string"
						},
						{
							"internalType": "uint256",
							"name": "timestamp",
							"type": "uint256"
						},
						{
							"internalType": "bool",
							"name": "isAdded",
							"type": "bool"
						}
					],
					"stateMutability": "view",
					"type": "function"
				},
				{
					"inputs": [],
					"name": "supplier",
					"outputs": [
						{
							"internalType": "address",
							"name": "",
							"type": "address"
						}
					],
					"stateMutability": "view",
					"type": "function"
				}
			],
			"devdoc": {
				"kind": "dev",
				"methods": {},
				"version": 1
			},
			"evm": {
				"assembly": "    /* \"contracts/Supplier.sol\":60:1832  contract Supplier {... */\n  mstore(0x40, 0x80)\n    /* \"contracts/Supplier.sol\":368:369  0 */\n  0x00\n    /* \"contracts/Supplier.sol\":340:369  uint public materialCount = 0 */\n  0x02\n  sstore\n    /* \"contracts/Supplier.sol\":759:813  constructor() {... */\n  callvalue\n  dup1\n  iszero\n  tag_1\n  jumpi\n  0x00\n  dup1\n  revert\ntag_1:\n  pop\n    /* \"contracts/Supplier.sol\":795:805  msg.sender */\n  caller\n    /* \"contracts/Supplier.sol\":784:792  supplier */\n  0x00\n  dup1\n    /* \"contracts/Supplier.sol\":784:805  supplier = msg.sender */\n  0x0100\n  exp\n  dup2\n  sload\n  dup2\n  0xffffffffffffffffffffffffffffffffffffffff\n  mul\n  not\n  and\n  swap1\n  dup4\n  0xffffffffffffffffffffffffffffffffffffffff\n  and\n  mul\n  or\n  swap1\n  sstore\n  pop\n    /* \"contracts/Supplier.sol\":60:1832  contract Supplier {... */\n  dataSize(sub_0)\n  dup1\n  dataOffset(sub_0)\n  0x00\n  codecopy\n  0x00\n  return\nstop\n\nsub_0: assembly {\n        /* \"contracts/Supplier.sol\":60:1832  contract Supplier {... */\n      mstore(0x40, 0x80)\n      callvalue\n      dup1\n      iszero\n      tag_1\n      jumpi\n      0x00\n      dup1\n      revert\n    tag_1:\n      pop\n      jumpi(tag_2, lt(calldatasize, 0x04))\n      shr(0xe0, calldataload(0x00))\n      dup1\n      0x7a8e8526\n      gt\n      tag_11\n      jumpi\n      dup1\n      0x7a8e8526\n      eq\n      tag_7\n      jumpi\n      dup1\n      0xab4c50b3\n      eq\n      tag_8\n      jumpi\n      dup1\n      0xd472f038\n      eq\n      tag_9\n      jumpi\n      dup1\n      0xda6d8909\n      eq\n      tag_10\n      jumpi\n      jump(tag_2)\n    tag_11:\n      dup1\n      0x089e1b39\n      eq\n      tag_3\n      jumpi\n      dup1\n      0x24b04245\n      eq\n      tag_4\n      jumpi\n      dup1\n      0x36da4468\n      eq\n      tag_5\n      jumpi\n      dup1\n      0x6586b134\n      eq\n      tag_6\n      jumpi\n    tag_2:\n      0x00\n      dup1\n      revert\n        /* \"contracts/Supplier.sol\":1082:1220  function authorizeManufacturer(address _manufacturer) public onlySupplier {... */\n    tag_3:\n      tag_12\n      0x04\n      dup1\n      calldatasize\n      sub\n      dup2\n      add\n      swap1\n      tag_13\n      swap2\n      swap1\n      tag_14\n      jump\t// in\n    tag_13:\n      tag_15\n      jump\t// in\n    tag_12:\n      stop\n        /* \"contracts/Supplier.sol\":378:433  mapping(address => bool) public authorizedManufacturers */\n    tag_4:\n      tag_16\n      0x04\n      dup1\n      calldatasize\n      sub\n      dup2\n      add\n      swap1\n      tag_17\n      swap2\n      swap1\n      tag_14\n      jump\t// in\n    tag_17:\n      tag_18\n      jump\t// in\n    tag_16:\n      mload(0x40)\n      tag_19\n      swap2\n      swap1\n      tag_20\n      jump\t// in\n    tag_19:\n      mload(0x40)\n      dup1\n      swap2\n      sub\n      swap1\n      return\n        /* \"contracts/Supplier.sol\":261:284  address public supplier */\n    tag_5:\n      tag_21\n      tag_22\n      jump\t// in\n    tag_21:\n      mload(0x40)\n      tag_23\n      swap2\n      swap1\n      tag_24\n      jump\t// in\n    tag_23:\n      mload(0x40)\n      dup1\n      swap2\n      sub\n      swap1\n      return\n        /* \"contracts/Supplier.sol\":1228:1529  function deductMaterial(uint _id, uint256 _quantity) public onlyAuthorizedManufacturer {... */\n    tag_6:\n      tag_25\n      0x04\n      dup1\n      calldatasize\n      sub\n      dup2\n      add\n      swap1\n      tag_26\n      swap2\n      swap1\n      tag_27\n      jump\t// in\n    tag_26:\n      tag_28\n      jump\t// in\n    tag_25:\n      stop\n        /* \"contracts/Supplier.sol\":291:333  mapping(uint => Material) public materials */\n    tag_7:\n      tag_29\n      0x04\n      dup1\n      calldatasize\n      sub\n      dup2\n      add\n      swap1\n      tag_30\n      swap2\n      swap1\n      tag_31\n      jump\t// in\n    tag_30:\n      tag_32\n      jump\t// in\n    tag_29:\n      mload(0x40)\n      tag_33\n      swap7\n      swap6\n      swap5\n      swap4\n      swap3\n      swap2\n      swap1\n      tag_34\n      jump\t// in\n    tag_33:\n      mload(0x40)\n      dup1\n      swap2\n      sub\n      swap1\n      return\n        /* \"contracts/Supplier.sol\":821:1074  function addMaterial(string memory _name, uint256 _quantity, string memory _location) public onlySupplier {... */\n    tag_8:\n      tag_35\n      0x04\n      dup1\n      calldatasize\n      sub\n      dup2\n      add\n      swap1\n      tag_36\n      swap2\n      swap1\n      tag_37\n      jump\t// in\n    tag_36:\n      tag_38\n      jump\t// in\n    tag_35:\n      stop\n        /* \"contracts/Supplier.sol\":340:369  uint public materialCount = 0 */\n    tag_9:\n      tag_39\n      tag_40\n      jump\t// in\n    tag_39:\n      mload(0x40)\n      tag_41\n      swap2\n      swap1\n      tag_42\n      jump\t// in\n    tag_41:\n      mload(0x40)\n      dup1\n      swap2\n      sub\n      swap1\n      return\n        /* \"contracts/Supplier.sol\":1537:1829  function getMaterial(uint _id) public view returns (string memory, uint256, string memory, uint256) {... */\n    tag_10:\n      tag_43\n      0x04\n      dup1\n      calldatasize\n      sub\n      dup2\n      add\n      swap1\n      tag_44\n      swap2\n      swap1\n      tag_31\n      jump\t// in\n    tag_44:\n      tag_45\n      jump\t// in\n    tag_43:\n      mload(0x40)\n      tag_46\n      swap5\n      swap4\n      swap3\n      swap2\n      swap1\n      tag_47\n      jump\t// in\n    tag_46:\n      mload(0x40)\n      dup1\n      swap2\n      sub\n      swap1\n      return\n        /* \"contracts/Supplier.sol\":1082:1220  function authorizeManufacturer(address _manufacturer) public onlySupplier {... */\n    tag_15:\n        /* \"contracts/Supplier.sol\":499:507  supplier */\n      0x00\n      dup1\n      sload\n      swap1\n      0x0100\n      exp\n      swap1\n      div\n      0xffffffffffffffffffffffffffffffffffffffff\n      and\n        /* \"contracts/Supplier.sol\":485:507  msg.sender == supplier */\n      0xffffffffffffffffffffffffffffffffffffffff\n      and\n        /* \"contracts/Supplier.sol\":485:495  msg.sender */\n      caller\n        /* \"contracts/Supplier.sol\":485:507  msg.sender == supplier */\n      0xffffffffffffffffffffffffffffffffffffffff\n      and\n      eq\n        /* \"contracts/Supplier.sol\":477:553  require(msg.sender == supplier, \"Only the supplier can perform this action\") */\n      tag_49\n      jumpi\n      mload(0x40)\n      0x08c379a000000000000000000000000000000000000000000000000000000000\n      dup2\n      mstore\n      0x04\n      add\n      tag_50\n      swap1\n      tag_51\n      jump\t// in\n    tag_50:\n      mload(0x40)\n      dup1\n      swap2\n      sub\n      swap1\n      revert\n    tag_49:\n        /* \"contracts/Supplier.sol\":1208:1212  true */\n      0x01\n        /* \"contracts/Supplier.sol\":1167:1190  authorizedManufacturers */\n      0x03\n        /* \"contracts/Supplier.sol\":1167:1205  authorizedManufacturers[_manufacturer] */\n      0x00\n        /* \"contracts/Supplier.sol\":1191:1204  _manufacturer */\n      dup4\n        /* \"contracts/Supplier.sol\":1167:1205  authorizedManufacturers[_manufacturer] */\n      0xffffffffffffffffffffffffffffffffffffffff\n      and\n      0xffffffffffffffffffffffffffffffffffffffff\n      and\n      dup2\n      mstore\n      0x20\n      add\n      swap1\n      dup2\n      mstore\n      0x20\n      add\n      0x00\n      keccak256\n      0x00\n        /* \"contracts/Supplier.sol\":1167:1212  authorizedManufacturers[_manufacturer] = true */\n      0x0100\n      exp\n      dup2\n      sload\n      dup2\n      0xff\n      mul\n      not\n      and\n      swap1\n      dup4\n      iszero\n      iszero\n      mul\n      or\n      swap1\n      sstore\n      pop\n        /* \"contracts/Supplier.sol\":1082:1220  function authorizeManufacturer(address _manufacturer) public onlySupplier {... */\n      pop\n      jump\t// out\n        /* \"contracts/Supplier.sol\":378:433  mapping(address => bool) public authorizedManufacturers */\n    tag_18:\n      mstore(0x20, 0x03)\n      dup1\n      0x00\n      mstore\n      keccak256(0x00, 0x40)\n      0x00\n      swap2\n      pop\n      sload\n      swap1\n      0x0100\n      exp\n      swap1\n      div\n      0xff\n      and\n      dup2\n      jump\t// out\n        /* \"contracts/Supplier.sol\":261:284  address public supplier */\n    tag_22:\n      0x00\n      dup1\n      sload\n      swap1\n      0x0100\n      exp\n      swap1\n      div\n      0xffffffffffffffffffffffffffffffffffffffff\n      and\n      dup2\n      jump\t// out\n        /* \"contracts/Supplier.sol\":1228:1529  function deductMaterial(uint _id, uint256 _quantity) public onlyAuthorizedManufacturer {... */\n    tag_28:\n        /* \"contracts/Supplier.sol\":638:661  authorizedManufacturers */\n      0x03\n        /* \"contracts/Supplier.sol\":638:673  authorizedManufacturers[msg.sender] */\n      0x00\n        /* \"contracts/Supplier.sol\":662:672  msg.sender */\n      caller\n        /* \"contracts/Supplier.sol\":638:673  authorizedManufacturers[msg.sender] */\n      0xffffffffffffffffffffffffffffffffffffffff\n      and\n      0xffffffffffffffffffffffffffffffffffffffff\n      and\n      dup2\n      mstore\n      0x20\n      add\n      swap1\n      dup2\n      mstore\n      0x20\n      add\n      0x00\n      keccak256\n      0x00\n      swap1\n      sload\n      swap1\n      0x0100\n      exp\n      swap1\n      div\n      0xff\n      and\n        /* \"contracts/Supplier.sol\":630:731  require(authorizedManufacturers[msg.sender], \"Only authorized manufacturers can perform this action\") */\n      tag_54\n      jumpi\n      mload(0x40)\n      0x08c379a000000000000000000000000000000000000000000000000000000000\n      dup2\n      mstore\n      0x04\n      add\n      tag_55\n      swap1\n      tag_56\n      jump\t// in\n    tag_55:\n      mload(0x40)\n      dup1\n      swap2\n      sub\n      swap1\n      revert\n    tag_54:\n        /* \"contracts/Supplier.sol\":1334:1343  materials */\n      0x01\n        /* \"contracts/Supplier.sol\":1334:1348  materials[_id] */\n      0x00\n        /* \"contracts/Supplier.sol\":1344:1347  _id */\n      dup4\n        /* \"contracts/Supplier.sol\":1334:1348  materials[_id] */\n      dup2\n      mstore\n      0x20\n      add\n      swap1\n      dup2\n      mstore\n      0x20\n      add\n      0x00\n      keccak256\n        /* \"contracts/Supplier.sol\":1334:1356  materials[_id].isAdded */\n      0x05\n      add\n      0x00\n      swap1\n      sload\n      swap1\n      0x0100\n      exp\n      swap1\n      div\n      0xff\n      and\n        /* \"contracts/Supplier.sol\":1326:1384  require(materials[_id].isAdded, \"Material does not exist\") */\n      tag_58\n      jumpi\n      mload(0x40)\n      0x08c379a000000000000000000000000000000000000000000000000000000000\n      dup2\n      mstore\n      0x04\n      add\n      tag_59\n      swap1\n      tag_60\n      jump\t// in\n    tag_59:\n      mload(0x40)\n      dup1\n      swap2\n      sub\n      swap1\n      revert\n    tag_58:\n        /* \"contracts/Supplier.sol\":1430:1439  _quantity */\n      dup1\n        /* \"contracts/Supplier.sol\":1403:1412  materials */\n      0x01\n        /* \"contracts/Supplier.sol\":1403:1417  materials[_id] */\n      0x00\n        /* \"contracts/Supplier.sol\":1413:1416  _id */\n      dup5\n        /* \"contracts/Supplier.sol\":1403:1417  materials[_id] */\n      dup2\n      mstore\n      0x20\n      add\n      swap1\n      dup2\n      mstore\n      0x20\n      add\n      0x00\n      keccak256\n        /* \"contracts/Supplier.sol\":1403:1426  materials[_id].quantity */\n      0x02\n      add\n      sload\n        /* \"contracts/Supplier.sol\":1403:1439  materials[_id].quantity >= _quantity */\n      lt\n      iszero\n        /* \"contracts/Supplier.sol\":1395:1474  require(materials[_id].quantity >= _quantity, \"Insufficient material quantity\") */\n      tag_61\n      jumpi\n      mload(0x40)\n      0x08c379a000000000000000000000000000000000000000000000000000000000\n      dup2\n      mstore\n      0x04\n      add\n      tag_62\n      swap1\n      tag_63\n      jump\t// in\n    tag_62:\n      mload(0x40)\n      dup1\n      swap2\n      sub\n      swap1\n      revert\n    tag_61:\n        /* \"contracts/Supplier.sol\":1512:1521  _quantity */\n      dup1\n        /* \"contracts/Supplier.sol\":1485:1494  materials */\n      0x01\n        /* \"contracts/Supplier.sol\":1485:1499  materials[_id] */\n      0x00\n        /* \"contracts/Supplier.sol\":1495:1498  _id */\n      dup5\n        /* \"contracts/Supplier.sol\":1485:1499  materials[_id] */\n      dup2\n      mstore\n      0x20\n      add\n      swap1\n      dup2\n      mstore\n      0x20\n      add\n      0x00\n      keccak256\n        /* \"contracts/Supplier.sol\":1485:1508  materials[_id].quantity */\n      0x02\n      add\n      0x00\n        /* \"contracts/Supplier.sol\":1485:1521  materials[_id].quantity -= _quantity */\n      dup3\n      dup3\n      sload\n      tag_64\n      swap2\n      swap1\n      tag_65\n      jump\t// in\n    tag_64:\n      swap3\n      pop\n      pop\n      dup2\n      swap1\n      sstore\n      pop\n        /* \"contracts/Supplier.sol\":1228:1529  function deductMaterial(uint _id, uint256 _quantity) public onlyAuthorizedManufacturer {... */\n      pop\n      pop\n      jump\t// out\n        /* \"contracts/Supplier.sol\":291:333  mapping(uint => Material) public materials */\n    tag_32:\n      mstore(0x20, 0x01)\n      dup1\n      0x00\n      mstore\n      keccak256(0x00, 0x40)\n      0x00\n      swap2\n      pop\n      swap1\n      pop\n      dup1\n      0x00\n      add\n      sload\n      swap1\n      dup1\n      0x01\n      add\n      dup1\n      sload\n      tag_66\n      swap1\n      tag_67\n      jump\t// in\n    tag_66:\n      dup1\n      0x1f\n      add\n      0x20\n      dup1\n      swap2\n      div\n      mul\n      0x20\n      add\n      mload(0x40)\n      swap1\n      dup2\n      add\n      0x40\n      mstore\n      dup1\n      swap3\n      swap2\n      swap1\n      dup2\n      dup2\n      mstore\n      0x20\n      add\n      dup3\n      dup1\n      sload\n      tag_68\n      swap1\n      tag_67\n      jump\t// in\n    tag_68:\n      dup1\n      iszero\n      tag_69\n      jumpi\n      dup1\n      0x1f\n      lt\n      tag_70\n      jumpi\n      0x0100\n      dup1\n      dup4\n      sload\n      div\n      mul\n      dup4\n      mstore\n      swap2\n      0x20\n      add\n      swap2\n      jump(tag_69)\n    tag_70:\n      dup3\n      add\n      swap2\n      swap1\n      0x00\n      mstore\n      keccak256(0x00, 0x20)\n      swap1\n    tag_71:\n      dup2\n      sload\n      dup2\n      mstore\n      swap1\n      0x01\n      add\n      swap1\n      0x20\n      add\n      dup1\n      dup4\n      gt\n      tag_71\n      jumpi\n      dup3\n      swap1\n      sub\n      0x1f\n      and\n      dup3\n      add\n      swap2\n    tag_69:\n      pop\n      pop\n      pop\n      pop\n      pop\n      swap1\n      dup1\n      0x02\n      add\n      sload\n      swap1\n      dup1\n      0x03\n      add\n      dup1\n      sload\n      tag_72\n      swap1\n      tag_67\n      jump\t// in\n    tag_72:\n      dup1\n      0x1f\n      add\n      0x20\n      dup1\n      swap2\n      div\n      mul\n      0x20\n      add\n      mload(0x40)\n      swap1\n      dup2\n      add\n      0x40\n      mstore\n      dup1\n      swap3\n      swap2\n      swap1\n      dup2\n      dup2\n      mstore\n      0x20\n      add\n      dup3\n      dup1\n      sload\n      tag_73\n      swap1\n      tag_67\n      jump\t// in\n    tag_73:\n      dup1\n      iszero\n      tag_74\n      jumpi\n      dup1\n      0x1f\n      lt\n      tag_75\n      jumpi\n      0x0100\n      dup1\n      dup4\n      sload\n      div\n      mul\n      dup4\n      mstore\n      swap2\n      0x20\n      add\n      swap2\n      jump(tag_74)\n    tag_75:\n      dup3\n      add\n      swap2\n      swap1\n      0x00\n      mstore\n      keccak256(0x00, 0x20)\n      swap1\n    tag_76:\n      dup2\n      sload\n      dup2\n      mstore\n      swap1\n      0x01\n      add\n      swap1\n      0x20\n      add\n      dup1\n      dup4\n      gt\n      tag_76\n      jumpi\n      dup3\n      swap1\n      sub\n      0x1f\n      and\n      dup3\n      add\n      swap2\n    tag_74:\n      pop\n      pop\n      pop\n      pop\n      pop\n      swap1\n      dup1\n      0x04\n      add\n      sload\n      swap1\n      dup1\n      0x05\n      add\n      0x00\n      swap1\n      sload\n      swap1\n      0x0100\n      exp\n      swap1\n      div\n      0xff\n      and\n      swap1\n      pop\n      dup7\n      jump\t// out\n        /* \"contracts/Supplier.sol\":821:1074  function addMaterial(string memory _name, uint256 _quantity, string memory _location) public onlySupplier {... */\n    tag_38:\n        /* \"contracts/Supplier.sol\":499:507  supplier */\n      0x00\n      dup1\n      sload\n      swap1\n      0x0100\n      exp\n      swap1\n      div\n      0xffffffffffffffffffffffffffffffffffffffff\n      and\n        /* \"contracts/Supplier.sol\":485:507  msg.sender == supplier */\n      0xffffffffffffffffffffffffffffffffffffffff\n      and\n        /* \"contracts/Supplier.sol\":485:495  msg.sender */\n      caller\n        /* \"contracts/Supplier.sol\":485:507  msg.sender == supplier */\n      0xffffffffffffffffffffffffffffffffffffffff\n      and\n      eq\n        /* \"contracts/Supplier.sol\":477:553  require(msg.sender == supplier, \"Only the supplier can perform this action\") */\n      tag_78\n      jumpi\n      mload(0x40)\n      0x08c379a000000000000000000000000000000000000000000000000000000000\n      dup2\n      mstore\n      0x04\n      add\n      tag_79\n      swap1\n      tag_51\n      jump\t// in\n    tag_79:\n      mload(0x40)\n      dup1\n      swap2\n      sub\n      swap1\n      revert\n    tag_78:\n        /* \"contracts/Supplier.sol\":938:951  materialCount */\n      0x02\n      0x00\n        /* \"contracts/Supplier.sol\":938:953  materialCount++ */\n      dup2\n      sload\n      dup1\n      swap3\n      swap2\n      swap1\n      tag_81\n      swap1\n      tag_82\n      jump\t// in\n    tag_81:\n      swap2\n      swap1\n      pop\n      sstore\n      pop\n        /* \"contracts/Supplier.sol\":991:1066  Material(materialCount, _name, _quantity, _location, block.timestamp, true) */\n      mload(0x40)\n      dup1\n      0xc0\n      add\n      0x40\n      mstore\n      dup1\n        /* \"contracts/Supplier.sol\":1000:1013  materialCount */\n      sload(0x02)\n        /* \"contracts/Supplier.sol\":991:1066  Material(materialCount, _name, _quantity, _location, block.timestamp, true) */\n      dup2\n      mstore\n      0x20\n      add\n        /* \"contracts/Supplier.sol\":1015:1020  _name */\n      dup5\n        /* \"contracts/Supplier.sol\":991:1066  Material(materialCount, _name, _quantity, _location, block.timestamp, true) */\n      dup2\n      mstore\n      0x20\n      add\n        /* \"contracts/Supplier.sol\":1022:1031  _quantity */\n      dup4\n        /* \"contracts/Supplier.sol\":991:1066  Material(materialCount, _name, _quantity, _location, block.timestamp, true) */\n      dup2\n      mstore\n      0x20\n      add\n        /* \"contracts/Supplier.sol\":1033:1042  _location */\n      dup3\n        /* \"contracts/Supplier.sol\":991:1066  Material(materialCount, _name, _quantity, _location, block.timestamp, true) */\n      dup2\n      mstore\n      0x20\n      add\n        /* \"contracts/Supplier.sol\":1044:1059  block.timestamp */\n      timestamp\n        /* \"contracts/Supplier.sol\":991:1066  Material(materialCount, _name, _quantity, _location, block.timestamp, true) */\n      dup2\n      mstore\n      0x20\n      add\n        /* \"contracts/Supplier.sol\":1061:1065  true */\n      0x01\n        /* \"contracts/Supplier.sol\":991:1066  Material(materialCount, _name, _quantity, _location, block.timestamp, true) */\n      iszero\n      iszero\n      dup2\n      mstore\n      pop\n        /* \"contracts/Supplier.sol\":964:973  materials */\n      0x01\n        /* \"contracts/Supplier.sol\":964:988  materials[materialCount] */\n      0x00\n        /* \"contracts/Supplier.sol\":974:987  materialCount */\n      sload(0x02)\n        /* \"contracts/Supplier.sol\":964:988  materials[materialCount] */\n      dup2\n      mstore\n      0x20\n      add\n      swap1\n      dup2\n      mstore\n      0x20\n      add\n      0x00\n      keccak256\n        /* \"contracts/Supplier.sol\":964:1066  materials[materialCount] = Material(materialCount, _name, _quantity, _location, block.timestamp, true) */\n      0x00\n      dup3\n      add\n      mload\n      dup2\n      0x00\n      add\n      sstore\n      0x20\n      dup3\n      add\n      mload\n      dup2\n      0x01\n      add\n      swap1\n      dup2\n      tag_83\n      swap2\n      swap1\n      tag_84\n      jump\t// in\n    tag_83:\n      pop\n      0x40\n      dup3\n      add\n      mload\n      dup2\n      0x02\n      add\n      sstore\n      0x60\n      dup3\n      add\n      mload\n      dup2\n      0x03\n      add\n      swap1\n      dup2\n      tag_85\n      swap2\n      swap1\n      tag_84\n      jump\t// in\n    tag_85:\n      pop\n      0x80\n      dup3\n      add\n      mload\n      dup2\n      0x04\n      add\n      sstore\n      0xa0\n      dup3\n      add\n      mload\n      dup2\n      0x05\n      add\n      exp(0x0100, 0x00)\n      dup2\n      sload\n      dup2\n      0xff\n      mul\n      not\n      and\n      swap1\n      dup4\n      iszero\n      iszero\n      mul\n      or\n      swap1\n      sstore\n      pop\n      swap1\n      pop\n      pop\n        /* \"contracts/Supplier.sol\":821:1074  function addMaterial(string memory _name, uint256 _quantity, string memory _location) public onlySupplier {... */\n      pop\n      pop\n      pop\n      jump\t// out\n        /* \"contracts/Supplier.sol\":340:369  uint public materialCount = 0 */\n    tag_40:\n      sload(0x02)\n      dup2\n      jump\t// out\n        /* \"contracts/Supplier.sol\":1537:1829  function getMaterial(uint _id) public view returns (string memory, uint256, string memory, uint256) {... */\n    tag_45:\n        /* \"contracts/Supplier.sol\":1589:1602  string memory */\n      0x60\n        /* \"contracts/Supplier.sol\":1604:1611  uint256 */\n      0x00\n        /* \"contracts/Supplier.sol\":1613:1626  string memory */\n      0x60\n        /* \"contracts/Supplier.sol\":1628:1635  uint256 */\n      0x00\n        /* \"contracts/Supplier.sol\":1656:1665  materials */\n      0x01\n        /* \"contracts/Supplier.sol\":1656:1670  materials[_id] */\n      0x00\n        /* \"contracts/Supplier.sol\":1666:1669  _id */\n      dup7\n        /* \"contracts/Supplier.sol\":1656:1670  materials[_id] */\n      dup2\n      mstore\n      0x20\n      add\n      swap1\n      dup2\n      mstore\n      0x20\n      add\n      0x00\n      keccak256\n        /* \"contracts/Supplier.sol\":1656:1678  materials[_id].isAdded */\n      0x05\n      add\n      0x00\n      swap1\n      sload\n      swap1\n      0x0100\n      exp\n      swap1\n      div\n      0xff\n      and\n        /* \"contracts/Supplier.sol\":1648:1706  require(materials[_id].isAdded, \"Material does not exist\") */\n      tag_87\n      jumpi\n      mload(0x40)\n      0x08c379a000000000000000000000000000000000000000000000000000000000\n      dup2\n      mstore\n      0x04\n      add\n      tag_88\n      swap1\n      tag_60\n      jump\t// in\n    tag_88:\n      mload(0x40)\n      dup1\n      swap2\n      sub\n      swap1\n      revert\n    tag_87:\n        /* \"contracts/Supplier.sol\":1725:1734  materials */\n      0x01\n        /* \"contracts/Supplier.sol\":1725:1739  materials[_id] */\n      0x00\n        /* \"contracts/Supplier.sol\":1735:1738  _id */\n      dup7\n        /* \"contracts/Supplier.sol\":1725:1739  materials[_id] */\n      dup2\n      mstore\n      0x20\n      add\n      swap1\n      dup2\n      mstore\n      0x20\n      add\n      0x00\n      keccak256\n        /* \"contracts/Supplier.sol\":1725:1744  materials[_id].name */\n      0x01\n      add\n        /* \"contracts/Supplier.sol\":1746:1755  materials */\n      0x01\n        /* \"contracts/Supplier.sol\":1746:1760  materials[_id] */\n      0x00\n        /* \"contracts/Supplier.sol\":1756:1759  _id */\n      dup8\n        /* \"contracts/Supplier.sol\":1746:1760  materials[_id] */\n      dup2\n      mstore\n      0x20\n      add\n      swap1\n      dup2\n      mstore\n      0x20\n      add\n      0x00\n      keccak256\n        /* \"contracts/Supplier.sol\":1746:1769  materials[_id].quantity */\n      0x02\n      add\n      sload\n        /* \"contracts/Supplier.sol\":1771:1780  materials */\n      0x01\n        /* \"contracts/Supplier.sol\":1771:1785  materials[_id] */\n      0x00\n        /* \"contracts/Supplier.sol\":1781:1784  _id */\n      dup9\n        /* \"contracts/Supplier.sol\":1771:1785  materials[_id] */\n      dup2\n      mstore\n      0x20\n      add\n      swap1\n      dup2\n      mstore\n      0x20\n      add\n      0x00\n      keccak256\n        /* \"contracts/Supplier.sol\":1771:1794  materials[_id].location */\n      0x03\n      add\n        /* \"contracts/Supplier.sol\":1796:1805  materials */\n      0x01\n        /* \"contracts/Supplier.sol\":1796:1810  materials[_id] */\n      0x00\n        /* \"contracts/Supplier.sol\":1806:1809  _id */\n      dup10\n        /* \"contracts/Supplier.sol\":1796:1810  materials[_id] */\n      dup2\n      mstore\n      0x20\n      add\n      swap1\n      dup2\n      mstore\n      0x20\n      add\n      0x00\n      keccak256\n        /* \"contracts/Supplier.sol\":1796:1820  materials[_id].timestamp */\n      0x04\n      add\n      sload\n        /* \"contracts/Supplier.sol\":1717:1821  return (materials[_id].name, materials[_id].quantity, materials[_id].location, materials[_id].timestamp) */\n      dup4\n      dup1\n      sload\n      tag_89\n      swap1\n      tag_67\n      jump\t// in\n    tag_89:\n      dup1\n      0x1f\n      add\n      0x20\n      dup1\n      swap2\n      div\n      mul\n      0x20\n      add\n      mload(0x40)\n      swap1\n      dup2\n      add\n      0x40\n      mstore\n      dup1\n      swap3\n      swap2\n      swap1\n      dup2\n      dup2\n      mstore\n      0x20\n      add\n      dup3\n      dup1\n      sload\n      tag_90\n      swap1\n      tag_67\n      jump\t// in\n    tag_90:\n      dup1\n      iszero\n      tag_91\n      jumpi\n      dup1\n      0x1f\n      lt\n      tag_92\n      jumpi\n      0x0100\n      dup1\n      dup4\n      sload\n      div\n      mul\n      dup4\n      mstore\n      swap2\n      0x20\n      add\n      swap2\n      jump(tag_91)\n    tag_92:\n      dup3\n      add\n      swap2\n      swap1\n      0x00\n      mstore\n      keccak256(0x00, 0x20)\n      swap1\n    tag_93:\n      dup2\n      sload\n      dup2\n      mstore\n      swap1\n      0x01\n      add\n      swap1\n      0x20\n      add\n      dup1\n      dup4\n      gt\n      tag_93\n      jumpi\n      dup3\n      swap1\n      sub\n      0x1f\n      and\n      dup3\n      add\n      swap2\n    tag_91:\n      pop\n      pop\n      pop\n      pop\n      pop\n      swap4\n      pop\n      dup2\n      dup1\n      sload\n      tag_94\n      swap1\n      tag_67\n      jump\t// in\n    tag_94:\n      dup1\n      0x1f\n      add\n      0x20\n      dup1\n      swap2\n      div\n      mul\n      0x20\n      add\n      mload(0x40)\n      swap1\n      dup2\n      add\n      0x40\n      mstore\n      dup1\n      swap3\n      swap2\n      swap1\n      dup2\n      dup2\n      mstore\n      0x20\n      add\n      dup3\n      dup1\n      sload\n      tag_95\n      swap1\n      tag_67\n      jump\t// in\n    tag_95:\n      dup1\n      iszero\n      tag_96\n      jumpi\n      dup1\n      0x1f\n      lt\n      tag_97\n      jumpi\n      0x0100\n      dup1\n      dup4\n      sload\n      div\n      mul\n      dup4\n      mstore\n      swap2\n      0x20\n      add\n      swap2\n      jump(tag_96)\n    tag_97:\n      dup3\n      add\n      swap2\n      swap1\n      0x00\n      mstore\n      keccak256(0x00, 0x20)\n      swap1\n    tag_98:\n      dup2\n      sload\n      dup2\n      mstore\n      swap1\n      0x01\n      add\n      swap1\n      0x20\n      add\n      dup1\n      dup4\n      gt\n      tag_98\n      jumpi\n      dup3\n      swap1\n      sub\n      0x1f\n      and\n      dup3\n      add\n      swap2\n    tag_96:\n      pop\n      pop\n      pop\n      pop\n      pop\n      swap2\n      pop\n      swap4\n      pop\n      swap4\n      pop\n      swap4\n      pop\n      swap4\n      pop\n        /* \"contracts/Supplier.sol\":1537:1829  function getMaterial(uint _id) public view returns (string memory, uint256, string memory, uint256) {... */\n      swap2\n      swap4\n      pop\n      swap2\n      swap4\n      jump\t// out\n        /* \"#utility.yul\":7:82   */\n    tag_99:\n        /* \"#utility.yul\":40:46   */\n      0x00\n        /* \"#utility.yul\":73:75   */\n      0x40\n        /* \"#utility.yul\":67:76   */\n      mload\n        /* \"#utility.yul\":57:76   */\n      swap1\n      pop\n        /* \"#utility.yul\":7:82   */\n      swap1\n      jump\t// out\n        /* \"#utility.yul\":88:205   */\n    tag_100:\n        /* \"#utility.yul\":197:198   */\n      0x00\n        /* \"#utility.yul\":194:195   */\n      dup1\n        /* \"#utility.yul\":187:199   */\n      revert\n        /* \"#utility.yul\":211:328   */\n    tag_101:\n        /* \"#utility.yul\":320:321   */\n      0x00\n        /* \"#utility.yul\":317:318   */\n      dup1\n        /* \"#utility.yul\":310:322   */\n      revert\n        /* \"#utility.yul\":334:460   */\n    tag_102:\n        /* \"#utility.yul\":371:378   */\n      0x00\n        /* \"#utility.yul\":411:453   */\n      0xffffffffffffffffffffffffffffffffffffffff\n        /* \"#utility.yul\":404:409   */\n      dup3\n        /* \"#utility.yul\":400:454   */\n      and\n        /* \"#utility.yul\":389:454   */\n      swap1\n      pop\n        /* \"#utility.yul\":334:460   */\n      swap2\n      swap1\n      pop\n      jump\t// out\n        /* \"#utility.yul\":466:562   */\n    tag_103:\n        /* \"#utility.yul\":503:510   */\n      0x00\n        /* \"#utility.yul\":532:556   */\n      tag_158\n        /* \"#utility.yul\":550:555   */\n      dup3\n        /* \"#utility.yul\":532:556   */\n      tag_102\n      jump\t// in\n    tag_158:\n        /* \"#utility.yul\":521:556   */\n      swap1\n      pop\n        /* \"#utility.yul\":466:562   */\n      swap2\n      swap1\n      pop\n      jump\t// out\n        /* \"#utility.yul\":568:690   */\n    tag_104:\n        /* \"#utility.yul\":641:665   */\n      tag_160\n        /* \"#utility.yul\":659:664   */\n      dup2\n        /* \"#utility.yul\":641:665   */\n      tag_103\n      jump\t// in\n    tag_160:\n        /* \"#utility.yul\":634:639   */\n      dup2\n        /* \"#utility.yul\":631:666   */\n      eq\n        /* \"#utility.yul\":621:684   */\n      tag_161\n      jumpi\n        /* \"#utility.yul\":680:681   */\n      0x00\n        /* \"#utility.yul\":677:678   */\n      dup1\n        /* \"#utility.yul\":670:682   */\n      revert\n        /* \"#utility.yul\":621:684   */\n    tag_161:\n        /* \"#utility.yul\":568:690   */\n      pop\n      jump\t// out\n        /* \"#utility.yul\":696:835   */\n    tag_105:\n        /* \"#utility.yul\":742:747   */\n      0x00\n        /* \"#utility.yul\":780:786   */\n      dup2\n        /* \"#utility.yul\":767:787   */\n      calldataload\n        /* \"#utility.yul\":758:787   */\n      swap1\n      pop\n        /* \"#utility.yul\":796:829   */\n      tag_163\n        /* \"#utility.yul\":823:828   */\n      dup2\n        /* \"#utility.yul\":796:829   */\n      tag_104\n      jump\t// in\n    tag_163:\n        /* \"#utility.yul\":696:835   */\n      swap3\n      swap2\n      pop\n      pop\n      jump\t// out\n        /* \"#utility.yul\":841:1170   */\n    tag_14:\n        /* \"#utility.yul\":900:906   */\n      0x00\n        /* \"#utility.yul\":949:951   */\n      0x20\n        /* \"#utility.yul\":937:946   */\n      dup3\n        /* \"#utility.yul\":928:935   */\n      dup5\n        /* \"#utility.yul\":924:947   */\n      sub\n        /* \"#utility.yul\":920:952   */\n      slt\n        /* \"#utility.yul\":917:1036   */\n      iszero\n      tag_165\n      jumpi\n        /* \"#utility.yul\":955:1034   */\n      tag_166\n      tag_100\n      jump\t// in\n    tag_166:\n        /* \"#utility.yul\":917:1036   */\n    tag_165:\n        /* \"#utility.yul\":1075:1076   */\n      0x00\n        /* \"#utility.yul\":1100:1153   */\n      tag_167\n        /* \"#utility.yul\":1145:1152   */\n      dup5\n        /* \"#utility.yul\":1136:1142   */\n      dup3\n        /* \"#utility.yul\":1125:1134   */\n      dup6\n        /* \"#utility.yul\":1121:1143   */\n      add\n        /* \"#utility.yul\":1100:1153   */\n      tag_105\n      jump\t// in\n    tag_167:\n        /* \"#utility.yul\":1090:1153   */\n      swap2\n      pop\n        /* \"#utility.yul\":1046:1163   */\n      pop\n        /* \"#utility.yul\":841:1170   */\n      swap3\n      swap2\n      pop\n      pop\n      jump\t// out\n        /* \"#utility.yul\":1176:1266   */\n    tag_106:\n        /* \"#utility.yul\":1210:1217   */\n      0x00\n        /* \"#utility.yul\":1253:1258   */\n      dup2\n        /* \"#utility.yul\":1246:1259   */\n      iszero\n        /* \"#utility.yul\":1239:1260   */\n      iszero\n        /* \"#utility.yul\":1228:1260   */\n      swap1\n      pop\n        /* \"#utility.yul\":1176:1266   */\n      swap2\n      swap1\n      pop\n      jump\t// out\n        /* \"#utility.yul\":1272:1381   */\n    tag_107:\n        /* \"#utility.yul\":1353:1374   */\n      tag_170\n        /* \"#utility.yul\":1368:1373   */\n      dup2\n        /* \"#utility.yul\":1353:1374   */\n      tag_106\n      jump\t// in\n    tag_170:\n        /* \"#utility.yul\":1348:1351   */\n      dup3\n        /* \"#utility.yul\":1341:1375   */\n      mstore\n        /* \"#utility.yul\":1272:1381   */\n      pop\n      pop\n      jump\t// out\n        /* \"#utility.yul\":1387:1597   */\n    tag_20:\n        /* \"#utility.yul\":1474:1478   */\n      0x00\n        /* \"#utility.yul\":1512:1514   */\n      0x20\n        /* \"#utility.yul\":1501:1510   */\n      dup3\n        /* \"#utility.yul\":1497:1515   */\n      add\n        /* \"#utility.yul\":1489:1515   */\n      swap1\n      pop\n        /* \"#utility.yul\":1525:1590   */\n      tag_172\n        /* \"#utility.yul\":1587:1588   */\n      0x00\n        /* \"#utility.yul\":1576:1585   */\n      dup4\n        /* \"#utility.yul\":1572:1589   */\n      add\n        /* \"#utility.yul\":1563:1569   */\n      dup5\n        /* \"#utility.yul\":1525:1590   */\n      tag_107\n      jump\t// in\n    tag_172:\n        /* \"#utility.yul\":1387:1597   */\n      swap3\n      swap2\n      pop\n      pop\n      jump\t// out\n        /* \"#utility.yul\":1603:1721   */\n    tag_108:\n        /* \"#utility.yul\":1690:1714   */\n      tag_174\n        /* \"#utility.yul\":1708:1713   */\n      dup2\n        /* \"#utility.yul\":1690:1714   */\n      tag_103\n      jump\t// in\n    tag_174:\n        /* \"#utility.yul\":1685:1688   */\n      dup3\n        /* \"#utility.yul\":1678:1715   */\n      mstore\n        /* \"#utility.yul\":1603:1721   */\n      pop\n      pop\n      jump\t// out\n        /* \"#utility.yul\":1727:1949   */\n    tag_24:\n        /* \"#utility.yul\":1820:1824   */\n      0x00\n        /* \"#utility.yul\":1858:1860   */\n      0x20\n        /* \"#utility.yul\":1847:1856   */\n      dup3\n        /* \"#utility.yul\":1843:1861   */\n      add\n        /* \"#utility.yul\":1835:1861   */\n      swap1\n      pop\n        /* \"#utility.yul\":1871:1942   */\n      tag_176\n        /* \"#utility.yul\":1939:1940   */\n      0x00\n        /* \"#utility.yul\":1928:1937   */\n      dup4\n        /* \"#utility.yul\":1924:1941   */\n      add\n        /* \"#utility.yul\":1915:1921   */\n      dup5\n        /* \"#utility.yul\":1871:1942   */\n      tag_108\n      jump\t// in\n    tag_176:\n        /* \"#utility.yul\":1727:1949   */\n      swap3\n      swap2\n      pop\n      pop\n      jump\t// out\n        /* \"#utility.yul\":1955:2032   */\n    tag_109:\n        /* \"#utility.yul\":1992:1999   */\n      0x00\n        /* \"#utility.yul\":2021:2026   */\n      dup2\n        /* \"#utility.yul\":2010:2026   */\n      swap1\n      pop\n        /* \"#utility.yul\":1955:2032   */\n      swap2\n      swap1\n      pop\n      jump\t// out\n        /* \"#utility.yul\":2038:2160   */\n    tag_110:\n        /* \"#utility.yul\":2111:2135   */\n      tag_179\n        /* \"#utility.yul\":2129:2134   */\n      dup2\n        /* \"#utility.yul\":2111:2135   */\n      tag_109\n      jump\t// in\n    tag_179:\n        /* \"#utility.yul\":2104:2109   */\n      dup2\n        /* \"#utility.yul\":2101:2136   */\n      eq\n        /* \"#utility.yul\":2091:2154   */\n      tag_180\n      jumpi\n        /* \"#utility.yul\":2150:2151   */\n      0x00\n        /* \"#utility.yul\":2147:2148   */\n      dup1\n        /* \"#utility.yul\":2140:2152   */\n      revert\n        /* \"#utility.yul\":2091:2154   */\n    tag_180:\n        /* \"#utility.yul\":2038:2160   */\n      pop\n      jump\t// out\n        /* \"#utility.yul\":2166:2305   */\n    tag_111:\n        /* \"#utility.yul\":2212:2217   */\n      0x00\n        /* \"#utility.yul\":2250:2256   */\n      dup2\n        /* \"#utility.yul\":2237:2257   */\n      calldataload\n        /* \"#utility.yul\":2228:2257   */\n      swap1\n      pop\n        /* \"#utility.yul\":2266:2299   */\n      tag_182\n        /* \"#utility.yul\":2293:2298   */\n      dup2\n        /* \"#utility.yul\":2266:2299   */\n      tag_110\n      jump\t// in\n    tag_182:\n        /* \"#utility.yul\":2166:2305   */\n      swap3\n      swap2\n      pop\n      pop\n      jump\t// out\n        /* \"#utility.yul\":2311:2785   */\n    tag_27:\n        /* \"#utility.yul\":2379:2385   */\n      0x00\n        /* \"#utility.yul\":2387:2393   */\n      dup1\n        /* \"#utility.yul\":2436:2438   */\n      0x40\n        /* \"#utility.yul\":2424:2433   */\n      dup4\n        /* \"#utility.yul\":2415:2422   */\n      dup6\n        /* \"#utility.yul\":2411:2434   */\n      sub\n        /* \"#utility.yul\":2407:2439   */\n      slt\n        /* \"#utility.yul\":2404:2523   */\n      iszero\n      tag_184\n      jumpi\n        /* \"#utility.yul\":2442:2521   */\n      tag_185\n      tag_100\n      jump\t// in\n    tag_185:\n        /* \"#utility.yul\":2404:2523   */\n    tag_184:\n        /* \"#utility.yul\":2562:2563   */\n      0x00\n        /* \"#utility.yul\":2587:2640   */\n      tag_186\n        /* \"#utility.yul\":2632:2639   */\n      dup6\n        /* \"#utility.yul\":2623:2629   */\n      dup3\n        /* \"#utility.yul\":2612:2621   */\n      dup7\n        /* \"#utility.yul\":2608:2630   */\n      add\n        /* \"#utility.yul\":2587:2640   */\n      tag_111\n      jump\t// in\n    tag_186:\n        /* \"#utility.yul\":2577:2640   */\n      swap3\n      pop\n        /* \"#utility.yul\":2533:2650   */\n      pop\n        /* \"#utility.yul\":2689:2691   */\n      0x20\n        /* \"#utility.yul\":2715:2768   */\n      tag_187\n        /* \"#utility.yul\":2760:2767   */\n      dup6\n        /* \"#utility.yul\":2751:2757   */\n      dup3\n        /* \"#utility.yul\":2740:2749   */\n      dup7\n        /* \"#utility.yul\":2736:2758   */\n      add\n        /* \"#utility.yul\":2715:2768   */\n      tag_111\n      jump\t// in\n    tag_187:\n        /* \"#utility.yul\":2705:2768   */\n      swap2\n      pop\n        /* \"#utility.yul\":2660:2778   */\n      pop\n        /* \"#utility.yul\":2311:2785   */\n      swap3\n      pop\n      swap3\n      swap1\n      pop\n      jump\t// out\n        /* \"#utility.yul\":2791:3120   */\n    tag_31:\n        /* \"#utility.yul\":2850:2856   */\n      0x00\n        /* \"#utility.yul\":2899:2901   */\n      0x20\n        /* \"#utility.yul\":2887:2896   */\n      dup3\n        /* \"#utility.yul\":2878:2885   */\n      dup5\n        /* \"#utility.yul\":2874:2897   */\n      sub\n        /* \"#utility.yul\":2870:2902   */\n      slt\n        /* \"#utility.yul\":2867:2986   */\n      iszero\n      tag_189\n      jumpi\n        /* \"#utility.yul\":2905:2984   */\n      tag_190\n      tag_100\n      jump\t// in\n    tag_190:\n        /* \"#utility.yul\":2867:2986   */\n    tag_189:\n        /* \"#utility.yul\":3025:3026   */\n      0x00\n        /* \"#utility.yul\":3050:3103   */\n      tag_191\n        /* \"#utility.yul\":3095:3102   */\n      dup5\n        /* \"#utility.yul\":3086:3092   */\n      dup3\n        /* \"#utility.yul\":3075:3084   */\n      dup6\n        /* \"#utility.yul\":3071:3093   */\n      add\n        /* \"#utility.yul\":3050:3103   */\n      tag_111\n      jump\t// in\n    tag_191:\n        /* \"#utility.yul\":3040:3103   */\n      swap2\n      pop\n        /* \"#utility.yul\":2996:3113   */\n      pop\n        /* \"#utility.yul\":2791:3120   */\n      swap3\n      swap2\n      pop\n      pop\n      jump\t// out\n        /* \"#utility.yul\":3126:3244   */\n    tag_112:\n        /* \"#utility.yul\":3213:3237   */\n      tag_193\n        /* \"#utility.yul\":3231:3236   */\n      dup2\n        /* \"#utility.yul\":3213:3237   */\n      tag_109\n      jump\t// in\n    tag_193:\n        /* \"#utility.yul\":3208:3211   */\n      dup3\n        /* \"#utility.yul\":3201:3238   */\n      mstore\n        /* \"#utility.yul\":3126:3244   */\n      pop\n      pop\n      jump\t// out\n        /* \"#utility.yul\":3250:3349   */\n    tag_113:\n        /* \"#utility.yul\":3302:3308   */\n      0x00\n        /* \"#utility.yul\":3336:3341   */\n      dup2\n        /* \"#utility.yul\":3330:3342   */\n      mload\n        /* \"#utility.yul\":3320:3342   */\n      swap1\n      pop\n        /* \"#utility.yul\":3250:3349   */\n      swap2\n      swap1\n      pop\n      jump\t// out\n        /* \"#utility.yul\":3355:3524   */\n    tag_114:\n        /* \"#utility.yul\":3439:3450   */\n      0x00\n        /* \"#utility.yul\":3473:3479   */\n      dup3\n        /* \"#utility.yul\":3468:3471   */\n      dup3\n        /* \"#utility.yul\":3461:3480   */\n      mstore\n        /* \"#utility.yul\":3513:3517   */\n      0x20\n        /* \"#utility.yul\":3508:3511   */\n      dup3\n        /* \"#utility.yul\":3504:3518   */\n      add\n        /* \"#utility.yul\":3489:3518   */\n      swap1\n      pop\n        /* \"#utility.yul\":3355:3524   */\n      swap3\n      swap2\n      pop\n      pop\n      jump\t// out\n        /* \"#utility.yul\":3530:3669   */\n    tag_115:\n        /* \"#utility.yul\":3619:3625   */\n      dup3\n        /* \"#utility.yul\":3614:3617   */\n      dup2\n        /* \"#utility.yul\":3609:3612   */\n      dup4\n        /* \"#utility.yul\":3603:3626   */\n      mcopy\n        /* \"#utility.yul\":3660:3661   */\n      0x00\n        /* \"#utility.yul\":3651:3657   */\n      dup4\n        /* \"#utility.yul\":3646:3649   */\n      dup4\n        /* \"#utility.yul\":3642:3658   */\n      add\n        /* \"#utility.yul\":3635:3662   */\n      mstore\n        /* \"#utility.yul\":3530:3669   */\n      pop\n      pop\n      pop\n      jump\t// out\n        /* \"#utility.yul\":3675:3777   */\n    tag_116:\n        /* \"#utility.yul\":3716:3722   */\n      0x00\n        /* \"#utility.yul\":3767:3769   */\n      0x1f\n        /* \"#utility.yul\":3763:3770   */\n      not\n        /* \"#utility.yul\":3758:3760   */\n      0x1f\n        /* \"#utility.yul\":3751:3756   */\n      dup4\n        /* \"#utility.yul\":3747:3761   */\n      add\n        /* \"#utility.yul\":3743:3771   */\n      and\n        /* \"#utility.yul\":3733:3771   */\n      swap1\n      pop\n        /* \"#utility.yul\":3675:3777   */\n      swap2\n      swap1\n      pop\n      jump\t// out\n        /* \"#utility.yul\":3783:4160   */\n    tag_117:\n        /* \"#utility.yul\":3871:3874   */\n      0x00\n        /* \"#utility.yul\":3899:3938   */\n      tag_199\n        /* \"#utility.yul\":3932:3937   */\n      dup3\n        /* \"#utility.yul\":3899:3938   */\n      tag_113\n      jump\t// in\n    tag_199:\n        /* \"#utility.yul\":3954:4025   */\n      tag_200\n        /* \"#utility.yul\":4018:4024   */\n      dup2\n        /* \"#utility.yul\":4013:4016   */\n      dup6\n        /* \"#utility.yul\":3954:4025   */\n      tag_114\n      jump\t// in\n    tag_200:\n        /* \"#utility.yul\":3947:4025   */\n      swap4\n      pop\n        /* \"#utility.yul\":4034:4099   */\n      tag_201\n        /* \"#utility.yul\":4092:4098   */\n      dup2\n        /* \"#utility.yul\":4087:4090   */\n      dup6\n        /* \"#utility.yul\":4080:4084   */\n      0x20\n        /* \"#utility.yul\":4073:4078   */\n      dup7\n        /* \"#utility.yul\":4069:4085   */\n      add\n        /* \"#utility.yul\":4034:4099   */\n      tag_115\n      jump\t// in\n    tag_201:\n        /* \"#utility.yul\":4124:4153   */\n      tag_202\n        /* \"#utility.yul\":4146:4152   */\n      dup2\n        /* \"#utility.yul\":4124:4153   */\n      tag_116\n      jump\t// in\n    tag_202:\n        /* \"#utility.yul\":4119:4122   */\n      dup5\n        /* \"#utility.yul\":4115:4154   */\n      add\n        /* \"#utility.yul\":4108:4154   */\n      swap2\n      pop\n        /* \"#utility.yul\":3875:4160   */\n      pop\n        /* \"#utility.yul\":3783:4160   */\n      swap3\n      swap2\n      pop\n      pop\n      jump\t// out\n        /* \"#utility.yul\":4166:5111   */\n    tag_34:\n        /* \"#utility.yul\":4433:4437   */\n      0x00\n        /* \"#utility.yul\":4471:4474   */\n      0xc0\n        /* \"#utility.yul\":4460:4469   */\n      dup3\n        /* \"#utility.yul\":4456:4475   */\n      add\n        /* \"#utility.yul\":4448:4475   */\n      swap1\n      pop\n        /* \"#utility.yul\":4485:4556   */\n      tag_204\n        /* \"#utility.yul\":4553:4554   */\n      0x00\n        /* \"#utility.yul\":4542:4551   */\n      dup4\n        /* \"#utility.yul\":4538:4555   */\n      add\n        /* \"#utility.yul\":4529:4535   */\n      dup10\n        /* \"#utility.yul\":4485:4556   */\n      tag_112\n      jump\t// in\n    tag_204:\n        /* \"#utility.yul\":4603:4612   */\n      dup2\n        /* \"#utility.yul\":4597:4601   */\n      dup2\n        /* \"#utility.yul\":4593:4613   */\n      sub\n        /* \"#utility.yul\":4588:4590   */\n      0x20\n        /* \"#utility.yul\":4577:4586   */\n      dup4\n        /* \"#utility.yul\":4573:4591   */\n      add\n        /* \"#utility.yul\":4566:4614   */\n      mstore\n        /* \"#utility.yul\":4631:4709   */\n      tag_205\n        /* \"#utility.yul\":4704:4708   */\n      dup2\n        /* \"#utility.yul\":4695:4701   */\n      dup9\n        /* \"#utility.yul\":4631:4709   */\n      tag_117\n      jump\t// in\n    tag_205:\n        /* \"#utility.yul\":4623:4709   */\n      swap1\n      pop\n        /* \"#utility.yul\":4719:4791   */\n      tag_206\n        /* \"#utility.yul\":4787:4789   */\n      0x40\n        /* \"#utility.yul\":4776:4785   */\n      dup4\n        /* \"#utility.yul\":4772:4790   */\n      add\n        /* \"#utility.yul\":4763:4769   */\n      dup8\n        /* \"#utility.yul\":4719:4791   */\n      tag_112\n      jump\t// in\n    tag_206:\n        /* \"#utility.yul\":4838:4847   */\n      dup2\n        /* \"#utility.yul\":4832:4836   */\n      dup2\n        /* \"#utility.yul\":4828:4848   */\n      sub\n        /* \"#utility.yul\":4823:4825   */\n      0x60\n        /* \"#utility.yul\":4812:4821   */\n      dup4\n        /* \"#utility.yul\":4808:4826   */\n      add\n        /* \"#utility.yul\":4801:4849   */\n      mstore\n        /* \"#utility.yul\":4866:4944   */\n      tag_207\n        /* \"#utility.yul\":4939:4943   */\n      dup2\n        /* \"#utility.yul\":4930:4936   */\n      dup7\n        /* \"#utility.yul\":4866:4944   */\n      tag_117\n      jump\t// in\n    tag_207:\n        /* \"#utility.yul\":4858:4944   */\n      swap1\n      pop\n        /* \"#utility.yul\":4954:5027   */\n      tag_208\n        /* \"#utility.yul\":5022:5025   */\n      0x80\n        /* \"#utility.yul\":5011:5020   */\n      dup4\n        /* \"#utility.yul\":5007:5026   */\n      add\n        /* \"#utility.yul\":4998:5004   */\n      dup6\n        /* \"#utility.yul\":4954:5027   */\n      tag_112\n      jump\t// in\n    tag_208:\n        /* \"#utility.yul\":5037:5104   */\n      tag_209\n        /* \"#utility.yul\":5099:5102   */\n      0xa0\n        /* \"#utility.yul\":5088:5097   */\n      dup4\n        /* \"#utility.yul\":5084:5103   */\n      add\n        /* \"#utility.yul\":5075:5081   */\n      dup5\n        /* \"#utility.yul\":5037:5104   */\n      tag_107\n      jump\t// in\n    tag_209:\n        /* \"#utility.yul\":4166:5111   */\n      swap8\n      swap7\n      pop\n      pop\n      pop\n      pop\n      pop\n      pop\n      pop\n      jump\t// out\n        /* \"#utility.yul\":5117:5234   */\n    tag_118:\n        /* \"#utility.yul\":5226:5227   */\n      0x00\n        /* \"#utility.yul\":5223:5224   */\n      dup1\n        /* \"#utility.yul\":5216:5228   */\n      revert\n        /* \"#utility.yul\":5240:5357   */\n    tag_119:\n        /* \"#utility.yul\":5349:5350   */\n      0x00\n        /* \"#utility.yul\":5346:5347   */\n      dup1\n        /* \"#utility.yul\":5339:5351   */\n      revert\n        /* \"#utility.yul\":5363:5543   */\n    tag_120:\n        /* \"#utility.yul\":5411:5488   */\n      0x4e487b7100000000000000000000000000000000000000000000000000000000\n        /* \"#utility.yul\":5408:5409   */\n      0x00\n        /* \"#utility.yul\":5401:5489   */\n      mstore\n        /* \"#utility.yul\":5508:5512   */\n      0x41\n        /* \"#utility.yul\":5505:5506   */\n      0x04\n        /* \"#utility.yul\":5498:5513   */\n      mstore\n        /* \"#utility.yul\":5532:5536   */\n      0x24\n        /* \"#utility.yul\":5529:5530   */\n      0x00\n        /* \"#utility.yul\":5522:5537   */\n      revert\n        /* \"#utility.yul\":5549:5830   */\n    tag_121:\n        /* \"#utility.yul\":5632:5659   */\n      tag_214\n        /* \"#utility.yul\":5654:5658   */\n      dup3\n        /* \"#utility.yul\":5632:5659   */\n      tag_116\n      jump\t// in\n    tag_214:\n        /* \"#utility.yul\":5624:5630   */\n      dup2\n        /* \"#utility.yul\":5620:5660   */\n      add\n        /* \"#utility.yul\":5762:5768   */\n      dup2\n        /* \"#utility.yul\":5750:5760   */\n      dup2\n        /* \"#utility.yul\":5747:5769   */\n      lt\n        /* \"#utility.yul\":5726:5744   */\n      0xffffffffffffffff\n        /* \"#utility.yul\":5714:5724   */\n      dup3\n        /* \"#utility.yul\":5711:5745   */\n      gt\n        /* \"#utility.yul\":5708:5770   */\n      or\n        /* \"#utility.yul\":5705:5793   */\n      iszero\n      tag_215\n      jumpi\n        /* \"#utility.yul\":5773:5791   */\n      tag_216\n      tag_120\n      jump\t// in\n    tag_216:\n        /* \"#utility.yul\":5705:5793   */\n    tag_215:\n        /* \"#utility.yul\":5813:5823   */\n      dup1\n        /* \"#utility.yul\":5809:5811   */\n      0x40\n        /* \"#utility.yul\":5802:5824   */\n      mstore\n        /* \"#utility.yul\":5592:5830   */\n      pop\n        /* \"#utility.yul\":5549:5830   */\n      pop\n      pop\n      jump\t// out\n        /* \"#utility.yul\":5836:5965   */\n    tag_122:\n        /* \"#utility.yul\":5870:5876   */\n      0x00\n        /* \"#utility.yul\":5897:5917   */\n      tag_218\n      tag_99\n      jump\t// in\n    tag_218:\n        /* \"#utility.yul\":5887:5917   */\n      swap1\n      pop\n        /* \"#utility.yul\":5926:5959   */\n      tag_219\n        /* \"#utility.yul\":5954:5958   */\n      dup3\n        /* \"#utility.yul\":5946:5952   */\n      dup3\n        /* \"#utility.yul\":5926:5959   */\n      tag_121\n      jump\t// in\n    tag_219:\n        /* \"#utility.yul\":5836:5965   */\n      swap2\n      swap1\n      pop\n      jump\t// out\n        /* \"#utility.yul\":5971:6279   */\n    tag_123:\n        /* \"#utility.yul\":6033:6037   */\n      0x00\n        /* \"#utility.yul\":6123:6141   */\n      0xffffffffffffffff\n        /* \"#utility.yul\":6115:6121   */\n      dup3\n        /* \"#utility.yul\":6112:6142   */\n      gt\n        /* \"#utility.yul\":6109:6165   */\n      iszero\n      tag_221\n      jumpi\n        /* \"#utility.yul\":6145:6163   */\n      tag_222\n      tag_120\n      jump\t// in\n    tag_222:\n        /* \"#utility.yul\":6109:6165   */\n    tag_221:\n        /* \"#utility.yul\":6183:6212   */\n      tag_223\n        /* \"#utility.yul\":6205:6211   */\n      dup3\n        /* \"#utility.yul\":6183:6212   */\n      tag_116\n      jump\t// in\n    tag_223:\n        /* \"#utility.yul\":6175:6212   */\n      swap1\n      pop\n        /* \"#utility.yul\":6267:6271   */\n      0x20\n        /* \"#utility.yul\":6261:6265   */\n      dup2\n        /* \"#utility.yul\":6257:6272   */\n      add\n        /* \"#utility.yul\":6249:6272   */\n      swap1\n      pop\n        /* \"#utility.yul\":5971:6279   */\n      swap2\n      swap1\n      pop\n      jump\t// out\n        /* \"#utility.yul\":6285:6433   */\n    tag_124:\n        /* \"#utility.yul\":6383:6389   */\n      dup3\n        /* \"#utility.yul\":6378:6381   */\n      dup2\n        /* \"#utility.yul\":6373:6376   */\n      dup4\n        /* \"#utility.yul\":6360:6390   */\n      calldatacopy\n        /* \"#utility.yul\":6424:6425   */\n      0x00\n        /* \"#utility.yul\":6415:6421   */\n      dup4\n        /* \"#utility.yul\":6410:6413   */\n      dup4\n        /* \"#utility.yul\":6406:6422   */\n      add\n        /* \"#utility.yul\":6399:6426   */\n      mstore\n        /* \"#utility.yul\":6285:6433   */\n      pop\n      pop\n      pop\n      jump\t// out\n        /* \"#utility.yul\":6439:6864   */\n    tag_125:\n        /* \"#utility.yul\":6517:6522   */\n      0x00\n        /* \"#utility.yul\":6542:6608   */\n      tag_226\n        /* \"#utility.yul\":6558:6607   */\n      tag_227\n        /* \"#utility.yul\":6600:6606   */\n      dup5\n        /* \"#utility.yul\":6558:6607   */\n      tag_123\n      jump\t// in\n    tag_227:\n        /* \"#utility.yul\":6542:6608   */\n      tag_122\n      jump\t// in\n    tag_226:\n        /* \"#utility.yul\":6533:6608   */\n      swap1\n      pop\n        /* \"#utility.yul\":6631:6637   */\n      dup3\n        /* \"#utility.yul\":6624:6629   */\n      dup2\n        /* \"#utility.yul\":6617:6638   */\n      mstore\n        /* \"#utility.yul\":6669:6673   */\n      0x20\n        /* \"#utility.yul\":6662:6667   */\n      dup2\n        /* \"#utility.yul\":6658:6674   */\n      add\n        /* \"#utility.yul\":6707:6710   */\n      dup5\n        /* \"#utility.yul\":6698:6704   */\n      dup5\n        /* \"#utility.yul\":6693:6696   */\n      dup5\n        /* \"#utility.yul\":6689:6705   */\n      add\n        /* \"#utility.yul\":6686:6711   */\n      gt\n        /* \"#utility.yul\":6683:6795   */\n      iszero\n      tag_228\n      jumpi\n        /* \"#utility.yul\":6714:6793   */\n      tag_229\n      tag_119\n      jump\t// in\n    tag_229:\n        /* \"#utility.yul\":6683:6795   */\n    tag_228:\n        /* \"#utility.yul\":6804:6858   */\n      tag_230\n        /* \"#utility.yul\":6851:6857   */\n      dup5\n        /* \"#utility.yul\":6846:6849   */\n      dup3\n        /* \"#utility.yul\":6841:6844   */\n      dup6\n        /* \"#utility.yul\":6804:6858   */\n      tag_124\n      jump\t// in\n    tag_230:\n        /* \"#utility.yul\":6523:6864   */\n      pop\n        /* \"#utility.yul\":6439:6864   */\n      swap4\n      swap3\n      pop\n      pop\n      pop\n      jump\t// out\n        /* \"#utility.yul\":6884:7224   */\n    tag_126:\n        /* \"#utility.yul\":6940:6945   */\n      0x00\n        /* \"#utility.yul\":6989:6992   */\n      dup3\n        /* \"#utility.yul\":6982:6986   */\n      0x1f\n        /* \"#utility.yul\":6974:6980   */\n      dup4\n        /* \"#utility.yul\":6970:6987   */\n      add\n        /* \"#utility.yul\":6966:6993   */\n      slt\n        /* \"#utility.yul\":6956:7078   */\n      tag_232\n      jumpi\n        /* \"#utility.yul\":6997:7076   */\n      tag_233\n      tag_118\n      jump\t// in\n    tag_233:\n        /* \"#utility.yul\":6956:7078   */\n    tag_232:\n        /* \"#utility.yul\":7114:7120   */\n      dup2\n        /* \"#utility.yul\":7101:7121   */\n      calldataload\n        /* \"#utility.yul\":7139:7218   */\n      tag_234\n        /* \"#utility.yul\":7214:7217   */\n      dup5\n        /* \"#utility.yul\":7206:7212   */\n      dup3\n        /* \"#utility.yul\":7199:7203   */\n      0x20\n        /* \"#utility.yul\":7191:7197   */\n      dup7\n        /* \"#utility.yul\":7187:7204   */\n      add\n        /* \"#utility.yul\":7139:7218   */\n      tag_125\n      jump\t// in\n    tag_234:\n        /* \"#utility.yul\":7130:7218   */\n      swap2\n      pop\n        /* \"#utility.yul\":6946:7224   */\n      pop\n        /* \"#utility.yul\":6884:7224   */\n      swap3\n      swap2\n      pop\n      pop\n      jump\t// out\n        /* \"#utility.yul\":7230:8209   */\n    tag_37:\n        /* \"#utility.yul\":7327:7333   */\n      0x00\n        /* \"#utility.yul\":7335:7341   */\n      dup1\n        /* \"#utility.yul\":7343:7349   */\n      0x00\n        /* \"#utility.yul\":7392:7394   */\n      0x60\n        /* \"#utility.yul\":7380:7389   */\n      dup5\n        /* \"#utility.yul\":7371:7378   */\n      dup7\n        /* \"#utility.yul\":7367:7390   */\n      sub\n        /* \"#utility.yul\":7363:7395   */\n      slt\n        /* \"#utility.yul\":7360:7479   */\n      iszero\n      tag_236\n      jumpi\n        /* \"#utility.yul\":7398:7477   */\n      tag_237\n      tag_100\n      jump\t// in\n    tag_237:\n        /* \"#utility.yul\":7360:7479   */\n    tag_236:\n        /* \"#utility.yul\":7546:7547   */\n      0x00\n        /* \"#utility.yul\":7535:7544   */\n      dup5\n        /* \"#utility.yul\":7531:7548   */\n      add\n        /* \"#utility.yul\":7518:7549   */\n      calldataload\n        /* \"#utility.yul\":7576:7594   */\n      0xffffffffffffffff\n        /* \"#utility.yul\":7568:7574   */\n      dup2\n        /* \"#utility.yul\":7565:7595   */\n      gt\n        /* \"#utility.yul\":7562:7679   */\n      iszero\n      tag_238\n      jumpi\n        /* \"#utility.yul\":7598:7677   */\n      tag_239\n      tag_101\n      jump\t// in\n    tag_239:\n        /* \"#utility.yul\":7562:7679   */\n    tag_238:\n        /* \"#utility.yul\":7703:7766   */\n      tag_240\n        /* \"#utility.yul\":7758:7765   */\n      dup7\n        /* \"#utility.yul\":7749:7755   */\n      dup3\n        /* \"#utility.yul\":7738:7747   */\n      dup8\n        /* \"#utility.yul\":7734:7756   */\n      add\n        /* \"#utility.yul\":7703:7766   */\n      tag_126\n      jump\t// in\n    tag_240:\n        /* \"#utility.yul\":7693:7766   */\n      swap4\n      pop\n        /* \"#utility.yul\":7489:7776   */\n      pop\n        /* \"#utility.yul\":7815:7817   */\n      0x20\n        /* \"#utility.yul\":7841:7894   */\n      tag_241\n        /* \"#utility.yul\":7886:7893   */\n      dup7\n        /* \"#utility.yul\":7877:7883   */\n      dup3\n        /* \"#utility.yul\":7866:7875   */\n      dup8\n        /* \"#utility.yul\":7862:7884   */\n      add\n        /* \"#utility.yul\":7841:7894   */\n      tag_111\n      jump\t// in\n    tag_241:\n        /* \"#utility.yul\":7831:7894   */\n      swap3\n      pop\n        /* \"#utility.yul\":7786:7904   */\n      pop\n        /* \"#utility.yul\":7971:7973   */\n      0x40\n        /* \"#utility.yul\":7960:7969   */\n      dup5\n        /* \"#utility.yul\":7956:7974   */\n      add\n        /* \"#utility.yul\":7943:7975   */\n      calldataload\n        /* \"#utility.yul\":8002:8020   */\n      0xffffffffffffffff\n        /* \"#utility.yul\":7994:8000   */\n      dup2\n        /* \"#utility.yul\":7991:8021   */\n      gt\n        /* \"#utility.yul\":7988:8105   */\n      iszero\n      tag_242\n      jumpi\n        /* \"#utility.yul\":8024:8103   */\n      tag_243\n      tag_101\n      jump\t// in\n    tag_243:\n        /* \"#utility.yul\":7988:8105   */\n    tag_242:\n        /* \"#utility.yul\":8129:8192   */\n      tag_244\n        /* \"#utility.yul\":8184:8191   */\n      dup7\n        /* \"#utility.yul\":8175:8181   */\n      dup3\n        /* \"#utility.yul\":8164:8173   */\n      dup8\n        /* \"#utility.yul\":8160:8182   */\n      add\n        /* \"#utility.yul\":8129:8192   */\n      tag_126\n      jump\t// in\n    tag_244:\n        /* \"#utility.yul\":8119:8192   */\n      swap2\n      pop\n        /* \"#utility.yul\":7914:8202   */\n      pop\n        /* \"#utility.yul\":7230:8209   */\n      swap3\n      pop\n      swap3\n      pop\n      swap3\n      jump\t// out\n        /* \"#utility.yul\":8215:8437   */\n    tag_42:\n        /* \"#utility.yul\":8308:8312   */\n      0x00\n        /* \"#utility.yul\":8346:8348   */\n      0x20\n        /* \"#utility.yul\":8335:8344   */\n      dup3\n        /* \"#utility.yul\":8331:8349   */\n      add\n        /* \"#utility.yul\":8323:8349   */\n      swap1\n      pop\n        /* \"#utility.yul\":8359:8430   */\n      tag_246\n        /* \"#utility.yul\":8427:8428   */\n      0x00\n        /* \"#utility.yul\":8416:8425   */\n      dup4\n        /* \"#utility.yul\":8412:8429   */\n      add\n        /* \"#utility.yul\":8403:8409   */\n      dup5\n        /* \"#utility.yul\":8359:8430   */\n      tag_112\n      jump\t// in\n    tag_246:\n        /* \"#utility.yul\":8215:8437   */\n      swap3\n      swap2\n      pop\n      pop\n      jump\t// out\n        /* \"#utility.yul\":8443:9178   */\n    tag_47:\n        /* \"#utility.yul\":8660:8664   */\n      0x00\n        /* \"#utility.yul\":8698:8701   */\n      0x80\n        /* \"#utility.yul\":8687:8696   */\n      dup3\n        /* \"#utility.yul\":8683:8702   */\n      add\n        /* \"#utility.yul\":8675:8702   */\n      swap1\n      pop\n        /* \"#utility.yul\":8748:8757   */\n      dup2\n        /* \"#utility.yul\":8742:8746   */\n      dup2\n        /* \"#utility.yul\":8738:8758   */\n      sub\n        /* \"#utility.yul\":8734:8735   */\n      0x00\n        /* \"#utility.yul\":8723:8732   */\n      dup4\n        /* \"#utility.yul\":8719:8736   */\n      add\n        /* \"#utility.yul\":8712:8759   */\n      mstore\n        /* \"#utility.yul\":8776:8854   */\n      tag_248\n        /* \"#utility.yul\":8849:8853   */\n      dup2\n        /* \"#utility.yul\":8840:8846   */\n      dup8\n        /* \"#utility.yul\":8776:8854   */\n      tag_117\n      jump\t// in\n    tag_248:\n        /* \"#utility.yul\":8768:8854   */\n      swap1\n      pop\n        /* \"#utility.yul\":8864:8936   */\n      tag_249\n        /* \"#utility.yul\":8932:8934   */\n      0x20\n        /* \"#utility.yul\":8921:8930   */\n      dup4\n        /* \"#utility.yul\":8917:8935   */\n      add\n        /* \"#utility.yul\":8908:8914   */\n      dup7\n        /* \"#utility.yul\":8864:8936   */\n      tag_112\n      jump\t// in\n    tag_249:\n        /* \"#utility.yul\":8983:8992   */\n      dup2\n        /* \"#utility.yul\":8977:8981   */\n      dup2\n        /* \"#utility.yul\":8973:8993   */\n      sub\n        /* \"#utility.yul\":8968:8970   */\n      0x40\n        /* \"#utility.yul\":8957:8966   */\n      dup4\n        /* \"#utility.yul\":8953:8971   */\n      add\n        /* \"#utility.yul\":8946:8994   */\n      mstore\n        /* \"#utility.yul\":9011:9089   */\n      tag_250\n        /* \"#utility.yul\":9084:9088   */\n      dup2\n        /* \"#utility.yul\":9075:9081   */\n      dup6\n        /* \"#utility.yul\":9011:9089   */\n      tag_117\n      jump\t// in\n    tag_250:\n        /* \"#utility.yul\":9003:9089   */\n      swap1\n      pop\n        /* \"#utility.yul\":9099:9171   */\n      tag_251\n        /* \"#utility.yul\":9167:9169   */\n      0x60\n        /* \"#utility.yul\":9156:9165   */\n      dup4\n        /* \"#utility.yul\":9152:9170   */\n      add\n        /* \"#utility.yul\":9143:9149   */\n      dup5\n        /* \"#utility.yul\":9099:9171   */\n      tag_112\n      jump\t// in\n    tag_251:\n        /* \"#utility.yul\":8443:9178   */\n      swap6\n      swap5\n      pop\n      pop\n      pop\n      pop\n      pop\n      jump\t// out\n        /* \"#utility.yul\":9184:9412   */\n    tag_127:\n        /* \"#utility.yul\":9324:9358   */\n      0x4f6e6c792074686520737570706c6965722063616e20706572666f726d207468\n        /* \"#utility.yul\":9320:9321   */\n      0x00\n        /* \"#utility.yul\":9312:9318   */\n      dup3\n        /* \"#utility.yul\":9308:9322   */\n      add\n        /* \"#utility.yul\":9301:9359   */\n      mstore\n        /* \"#utility.yul\":9393:9404   */\n      0x697320616374696f6e0000000000000000000000000000000000000000000000\n        /* \"#utility.yul\":9388:9390   */\n      0x20\n        /* \"#utility.yul\":9380:9386   */\n      dup3\n        /* \"#utility.yul\":9376:9391   */\n      add\n        /* \"#utility.yul\":9369:9405   */\n      mstore\n        /* \"#utility.yul\":9184:9412   */\n      pop\n      jump\t// out\n        /* \"#utility.yul\":9418:9784   */\n    tag_128:\n        /* \"#utility.yul\":9560:9563   */\n      0x00\n        /* \"#utility.yul\":9581:9648   */\n      tag_254\n        /* \"#utility.yul\":9645:9647   */\n      0x29\n        /* \"#utility.yul\":9640:9643   */\n      dup4\n        /* \"#utility.yul\":9581:9648   */\n      tag_114\n      jump\t// in\n    tag_254:\n        /* \"#utility.yul\":9574:9648   */\n      swap2\n      pop\n        /* \"#utility.yul\":9657:9750   */\n      tag_255\n        /* \"#utility.yul\":9746:9749   */\n      dup3\n        /* \"#utility.yul\":9657:9750   */\n      tag_127\n      jump\t// in\n    tag_255:\n        /* \"#utility.yul\":9775:9777   */\n      0x40\n        /* \"#utility.yul\":9770:9773   */\n      dup3\n        /* \"#utility.yul\":9766:9778   */\n      add\n        /* \"#utility.yul\":9759:9778   */\n      swap1\n      pop\n        /* \"#utility.yul\":9418:9784   */\n      swap2\n      swap1\n      pop\n      jump\t// out\n        /* \"#utility.yul\":9790:10209   */\n    tag_51:\n        /* \"#utility.yul\":9956:9960   */\n      0x00\n        /* \"#utility.yul\":9994:9996   */\n      0x20\n        /* \"#utility.yul\":9983:9992   */\n      dup3\n        /* \"#utility.yul\":9979:9997   */\n      add\n        /* \"#utility.yul\":9971:9997   */\n      swap1\n      pop\n        /* \"#utility.yul\":10043:10052   */\n      dup2\n        /* \"#utility.yul\":10037:10041   */\n      dup2\n        /* \"#utility.yul\":10033:10053   */\n      sub\n        /* \"#utility.yul\":10029:10030   */\n      0x00\n        /* \"#utility.yul\":10018:10027   */\n      dup4\n        /* \"#utility.yul\":10014:10031   */\n      add\n        /* \"#utility.yul\":10007:10054   */\n      mstore\n        /* \"#utility.yul\":10071:10202   */\n      tag_257\n        /* \"#utility.yul\":10197:10201   */\n      dup2\n        /* \"#utility.yul\":10071:10202   */\n      tag_128\n      jump\t// in\n    tag_257:\n        /* \"#utility.yul\":10063:10202   */\n      swap1\n      pop\n        /* \"#utility.yul\":9790:10209   */\n      swap2\n      swap1\n      pop\n      jump\t// out\n        /* \"#utility.yul\":10215:10455   */\n    tag_129:\n        /* \"#utility.yul\":10355:10389   */\n      0x4f6e6c7920617574686f72697a6564206d616e75666163747572657273206361\n        /* \"#utility.yul\":10351:10352   */\n      0x00\n        /* \"#utility.yul\":10343:10349   */\n      dup3\n        /* \"#utility.yul\":10339:10353   */\n      add\n        /* \"#utility.yul\":10332:10390   */\n      mstore\n        /* \"#utility.yul\":10424:10447   */\n      0x6e20706572666f726d207468697320616374696f6e0000000000000000000000\n        /* \"#utility.yul\":10419:10421   */\n      0x20\n        /* \"#utility.yul\":10411:10417   */\n      dup3\n        /* \"#utility.yul\":10407:10422   */\n      add\n        /* \"#utility.yul\":10400:10448   */\n      mstore\n        /* \"#utility.yul\":10215:10455   */\n      pop\n      jump\t// out\n        /* \"#utility.yul\":10461:10827   */\n    tag_130:\n        /* \"#utility.yul\":10603:10606   */\n      0x00\n        /* \"#utility.yul\":10624:10691   */\n      tag_260\n        /* \"#utility.yul\":10688:10690   */\n      0x35\n        /* \"#utility.yul\":10683:10686   */\n      dup4\n        /* \"#utility.yul\":10624:10691   */\n      tag_114\n      jump\t// in\n    tag_260:\n        /* \"#utility.yul\":10617:10691   */\n      swap2\n      pop\n        /* \"#utility.yul\":10700:10793   */\n      tag_261\n        /* \"#utility.yul\":10789:10792   */\n      dup3\n        /* \"#utility.yul\":10700:10793   */\n      tag_129\n      jump\t// in\n    tag_261:\n        /* \"#utility.yul\":10818:10820   */\n      0x40\n        /* \"#utility.yul\":10813:10816   */\n      dup3\n        /* \"#utility.yul\":10809:10821   */\n      add\n        /* \"#utility.yul\":10802:10821   */\n      swap1\n      pop\n        /* \"#utility.yul\":10461:10827   */\n      swap2\n      swap1\n      pop\n      jump\t// out\n        /* \"#utility.yul\":10833:11252   */\n    tag_56:\n        /* \"#utility.yul\":10999:11003   */\n      0x00\n        /* \"#utility.yul\":11037:11039   */\n      0x20\n        /* \"#utility.yul\":11026:11035   */\n      dup3\n        /* \"#utility.yul\":11022:11040   */\n      add\n        /* \"#utility.yul\":11014:11040   */\n      swap1\n      pop\n        /* \"#utility.yul\":11086:11095   */\n      dup2\n        /* \"#utility.yul\":11080:11084   */\n      dup2\n        /* \"#utility.yul\":11076:11096   */\n      sub\n        /* \"#utility.yul\":11072:11073   */\n      0x00\n        /* \"#utility.yul\":11061:11070   */\n      dup4\n        /* \"#utility.yul\":11057:11074   */\n      add\n        /* \"#utility.yul\":11050:11097   */\n      mstore\n        /* \"#utility.yul\":11114:11245   */\n      tag_263\n        /* \"#utility.yul\":11240:11244   */\n      dup2\n        /* \"#utility.yul\":11114:11245   */\n      tag_130\n      jump\t// in\n    tag_263:\n        /* \"#utility.yul\":11106:11245   */\n      swap1\n      pop\n        /* \"#utility.yul\":10833:11252   */\n      swap2\n      swap1\n      pop\n      jump\t// out\n        /* \"#utility.yul\":11258:11431   */\n    tag_131:\n        /* \"#utility.yul\":11398:11423   */\n      0x4d6174657269616c20646f6573206e6f74206578697374000000000000000000\n        /* \"#utility.yul\":11394:11395   */\n      0x00\n        /* \"#utility.yul\":11386:11392   */\n      dup3\n        /* \"#utility.yul\":11382:11396   */\n      add\n        /* \"#utility.yul\":11375:11424   */\n      mstore\n        /* \"#utility.yul\":11258:11431   */\n      pop\n      jump\t// out\n        /* \"#utility.yul\":11437:11803   */\n    tag_132:\n        /* \"#utility.yul\":11579:11582   */\n      0x00\n        /* \"#utility.yul\":11600:11667   */\n      tag_266\n        /* \"#utility.yul\":11664:11666   */\n      0x17\n        /* \"#utility.yul\":11659:11662   */\n      dup4\n        /* \"#utility.yul\":11600:11667   */\n      tag_114\n      jump\t// in\n    tag_266:\n        /* \"#utility.yul\":11593:11667   */\n      swap2\n      pop\n        /* \"#utility.yul\":11676:11769   */\n      tag_267\n        /* \"#utility.yul\":11765:11768   */\n      dup3\n        /* \"#utility.yul\":11676:11769   */\n      tag_131\n      jump\t// in\n    tag_267:\n        /* \"#utility.yul\":11794:11796   */\n      0x20\n        /* \"#utility.yul\":11789:11792   */\n      dup3\n        /* \"#utility.yul\":11785:11797   */\n      add\n        /* \"#utility.yul\":11778:11797   */\n      swap1\n      pop\n        /* \"#utility.yul\":11437:11803   */\n      swap2\n      swap1\n      pop\n      jump\t// out\n        /* \"#utility.yul\":11809:12228   */\n    tag_60:\n        /* \"#utility.yul\":11975:11979   */\n      0x00\n        /* \"#utility.yul\":12013:12015   */\n      0x20\n        /* \"#utility.yul\":12002:12011   */\n      dup3\n        /* \"#utility.yul\":11998:12016   */\n      add\n        /* \"#utility.yul\":11990:12016   */\n      swap1\n      pop\n        /* \"#utility.yul\":12062:12071   */\n      dup2\n        /* \"#utility.yul\":12056:12060   */\n      dup2\n        /* \"#utility.yul\":12052:12072   */\n      sub\n        /* \"#utility.yul\":12048:12049   */\n      0x00\n        /* \"#utility.yul\":12037:12046   */\n      dup4\n        /* \"#utility.yul\":12033:12050   */\n      add\n        /* \"#utility.yul\":12026:12073   */\n      mstore\n        /* \"#utility.yul\":12090:12221   */\n      tag_269\n        /* \"#utility.yul\":12216:12220   */\n      dup2\n        /* \"#utility.yul\":12090:12221   */\n      tag_132\n      jump\t// in\n    tag_269:\n        /* \"#utility.yul\":12082:12221   */\n      swap1\n      pop\n        /* \"#utility.yul\":11809:12228   */\n      swap2\n      swap1\n      pop\n      jump\t// out\n        /* \"#utility.yul\":12234:12414   */\n    tag_133:\n        /* \"#utility.yul\":12374:12406   */\n      0x496e73756666696369656e74206d6174657269616c207175616e746974790000\n        /* \"#utility.yul\":12370:12371   */\n      0x00\n        /* \"#utility.yul\":12362:12368   */\n      dup3\n        /* \"#utility.yul\":12358:12372   */\n      add\n        /* \"#utility.yul\":12351:12407   */\n      mstore\n        /* \"#utility.yul\":12234:12414   */\n      pop\n      jump\t// out\n        /* \"#utility.yul\":12420:12786   */\n    tag_134:\n        /* \"#utility.yul\":12562:12565   */\n      0x00\n        /* \"#utility.yul\":12583:12650   */\n      tag_272\n        /* \"#utility.yul\":12647:12649   */\n      0x1e\n        /* \"#utility.yul\":12642:12645   */\n      dup4\n        /* \"#utility.yul\":12583:12650   */\n      tag_114\n      jump\t// in\n    tag_272:\n        /* \"#utility.yul\":12576:12650   */\n      swap2\n      pop\n        /* \"#utility.yul\":12659:12752   */\n      tag_273\n        /* \"#utility.yul\":12748:12751   */\n      dup3\n        /* \"#utility.yul\":12659:12752   */\n      tag_133\n      jump\t// in\n    tag_273:\n        /* \"#utility.yul\":12777:12779   */\n      0x20\n        /* \"#utility.yul\":12772:12775   */\n      dup3\n        /* \"#utility.yul\":12768:12780   */\n      add\n        /* \"#utility.yul\":12761:12780   */\n      swap1\n      pop\n        /* \"#utility.yul\":12420:12786   */\n      swap2\n      swap1\n      pop\n      jump\t// out\n        /* \"#utility.yul\":12792:13211   */\n    tag_63:\n        /* \"#utility.yul\":12958:12962   */\n      0x00\n        /* \"#utility.yul\":12996:12998   */\n      0x20\n        /* \"#utility.yul\":12985:12994   */\n      dup3\n        /* \"#utility.yul\":12981:12999   */\n      add\n        /* \"#utility.yul\":12973:12999   */\n      swap1\n      pop\n        /* \"#utility.yul\":13045:13054   */\n      dup2\n        /* \"#utility.yul\":13039:13043   */\n      dup2\n        /* \"#utility.yul\":13035:13055   */\n      sub\n        /* \"#utility.yul\":13031:13032   */\n      0x00\n        /* \"#utility.yul\":13020:13029   */\n      dup4\n        /* \"#utility.yul\":13016:13033   */\n      add\n        /* \"#utility.yul\":13009:13056   */\n      mstore\n        /* \"#utility.yul\":13073:13204   */\n      tag_275\n        /* \"#utility.yul\":13199:13203   */\n      dup2\n        /* \"#utility.yul\":13073:13204   */\n      tag_134\n      jump\t// in\n    tag_275:\n        /* \"#utility.yul\":13065:13204   */\n      swap1\n      pop\n        /* \"#utility.yul\":12792:13211   */\n      swap2\n      swap1\n      pop\n      jump\t// out\n        /* \"#utility.yul\":13217:13397   */\n    tag_135:\n        /* \"#utility.yul\":13265:13342   */\n      0x4e487b7100000000000000000000000000000000000000000000000000000000\n        /* \"#utility.yul\":13262:13263   */\n      0x00\n        /* \"#utility.yul\":13255:13343   */\n      mstore\n        /* \"#utility.yul\":13362:13366   */\n      0x11\n        /* \"#utility.yul\":13359:13360   */\n      0x04\n        /* \"#utility.yul\":13352:13367   */\n      mstore\n        /* \"#utility.yul\":13386:13390   */\n      0x24\n        /* \"#utility.yul\":13383:13384   */\n      0x00\n        /* \"#utility.yul\":13376:13391   */\n      revert\n        /* \"#utility.yul\":13403:13597   */\n    tag_65:\n        /* \"#utility.yul\":13443:13447   */\n      0x00\n        /* \"#utility.yul\":13463:13483   */\n      tag_278\n        /* \"#utility.yul\":13481:13482   */\n      dup3\n        /* \"#utility.yul\":13463:13483   */\n      tag_109\n      jump\t// in\n    tag_278:\n        /* \"#utility.yul\":13458:13483   */\n      swap2\n      pop\n        /* \"#utility.yul\":13497:13517   */\n      tag_279\n        /* \"#utility.yul\":13515:13516   */\n      dup4\n        /* \"#utility.yul\":13497:13517   */\n      tag_109\n      jump\t// in\n    tag_279:\n        /* \"#utility.yul\":13492:13517   */\n      swap3\n      pop\n        /* \"#utility.yul\":13541:13542   */\n      dup3\n        /* \"#utility.yul\":13538:13539   */\n      dup3\n        /* \"#utility.yul\":13534:13543   */\n      sub\n        /* \"#utility.yul\":13526:13543   */\n      swap1\n      pop\n        /* \"#utility.yul\":13565:13566   */\n      dup2\n        /* \"#utility.yul\":13559:13563   */\n      dup2\n        /* \"#utility.yul\":13556:13567   */\n      gt\n        /* \"#utility.yul\":13553:13590   */\n      iszero\n      tag_280\n      jumpi\n        /* \"#utility.yul\":13570:13588   */\n      tag_281\n      tag_135\n      jump\t// in\n    tag_281:\n        /* \"#utility.yul\":13553:13590   */\n    tag_280:\n        /* \"#utility.yul\":13403:13597   */\n      swap3\n      swap2\n      pop\n      pop\n      jump\t// out\n        /* \"#utility.yul\":13603:13783   */\n    tag_136:\n        /* \"#utility.yul\":13651:13728   */\n      0x4e487b7100000000000000000000000000000000000000000000000000000000\n        /* \"#utility.yul\":13648:13649   */\n      0x00\n        /* \"#utility.yul\":13641:13729   */\n      mstore\n        /* \"#utility.yul\":13748:13752   */\n      0x22\n        /* \"#utility.yul\":13745:13746   */\n      0x04\n        /* \"#utility.yul\":13738:13753   */\n      mstore\n        /* \"#utility.yul\":13772:13776   */\n      0x24\n        /* \"#utility.yul\":13769:13770   */\n      0x00\n        /* \"#utility.yul\":13762:13777   */\n      revert\n        /* \"#utility.yul\":13789:14109   */\n    tag_67:\n        /* \"#utility.yul\":13833:13839   */\n      0x00\n        /* \"#utility.yul\":13870:13871   */\n      0x02\n        /* \"#utility.yul\":13864:13868   */\n      dup3\n        /* \"#utility.yul\":13860:13872   */\n      div\n        /* \"#utility.yul\":13850:13872   */\n      swap1\n      pop\n        /* \"#utility.yul\":13917:13918   */\n      0x01\n        /* \"#utility.yul\":13911:13915   */\n      dup3\n        /* \"#utility.yul\":13907:13919   */\n      and\n        /* \"#utility.yul\":13938:13956   */\n      dup1\n        /* \"#utility.yul\":13928:14009   */\n      tag_284\n      jumpi\n        /* \"#utility.yul\":13994:13998   */\n      0x7f\n        /* \"#utility.yul\":13986:13992   */\n      dup3\n        /* \"#utility.yul\":13982:13999   */\n      and\n        /* \"#utility.yul\":13972:13999   */\n      swap2\n      pop\n        /* \"#utility.yul\":13928:14009   */\n    tag_284:\n        /* \"#utility.yul\":14056:14058   */\n      0x20\n        /* \"#utility.yul\":14048:14054   */\n      dup3\n        /* \"#utility.yul\":14045:14059   */\n      lt\n        /* \"#utility.yul\":14025:14043   */\n      dup2\n        /* \"#utility.yul\":14022:14060   */\n      sub\n        /* \"#utility.yul\":14019:14103   */\n      tag_285\n      jumpi\n        /* \"#utility.yul\":14075:14093   */\n      tag_286\n      tag_136\n      jump\t// in\n    tag_286:\n        /* \"#utility.yul\":14019:14103   */\n    tag_285:\n        /* \"#utility.yul\":13840:14109   */\n      pop\n        /* \"#utility.yul\":13789:14109   */\n      swap2\n      swap1\n      pop\n      jump\t// out\n        /* \"#utility.yul\":14115:14348   */\n    tag_82:\n        /* \"#utility.yul\":14154:14157   */\n      0x00\n        /* \"#utility.yul\":14177:14201   */\n      tag_288\n        /* \"#utility.yul\":14195:14200   */\n      dup3\n        /* \"#utility.yul\":14177:14201   */\n      tag_109\n      jump\t// in\n    tag_288:\n        /* \"#utility.yul\":14168:14201   */\n      swap2\n      pop\n        /* \"#utility.yul\":14223:14289   */\n      0xffffffffffffffffffffffffffffffffffffffffffffffffffffffffffffffff\n        /* \"#utility.yul\":14216:14221   */\n      dup3\n        /* \"#utility.yul\":14213:14290   */\n      sub\n        /* \"#utility.yul\":14210:14313   */\n      tag_289\n      jumpi\n        /* \"#utility.yul\":14293:14311   */\n      tag_290\n      tag_135\n      jump\t// in\n    tag_290:\n        /* \"#utility.yul\":14210:14313   */\n    tag_289:\n        /* \"#utility.yul\":14340:14341   */\n      0x01\n        /* \"#utility.yul\":14333:14338   */\n      dup3\n        /* \"#utility.yul\":14329:14342   */\n      add\n        /* \"#utility.yul\":14322:14342   */\n      swap1\n      pop\n        /* \"#utility.yul\":14115:14348   */\n      swap2\n      swap1\n      pop\n      jump\t// out\n        /* \"#utility.yul\":14354:14495   */\n    tag_137:\n        /* \"#utility.yul\":14403:14407   */\n      0x00\n        /* \"#utility.yul\":14426:14429   */\n      dup2\n        /* \"#utility.yul\":14418:14429   */\n      swap1\n      pop\n        /* \"#utility.yul\":14449:14452   */\n      dup2\n        /* \"#utility.yul\":14446:14447   */\n      0x00\n        /* \"#utility.yul\":14439:14453   */\n      mstore\n        /* \"#utility.yul\":14483:14487   */\n      0x20\n        /* \"#utility.yul\":14480:14481   */\n      0x00\n        /* \"#utility.yul\":14470:14488   */\n      keccak256\n        /* \"#utility.yul\":14462:14488   */\n      swap1\n      pop\n        /* \"#utility.yul\":14354:14495   */\n      swap2\n      swap1\n      pop\n      jump\t// out\n        /* \"#utility.yul\":14501:14594   */\n    tag_138:\n        /* \"#utility.yul\":14538:14544   */\n      0x00\n        /* \"#utility.yul\":14585:14587   */\n      0x20\n        /* \"#utility.yul\":14580:14582   */\n      0x1f\n        /* \"#utility.yul\":14573:14578   */\n      dup4\n        /* \"#utility.yul\":14569:14583   */\n      add\n        /* \"#utility.yul\":14565:14588   */\n      div\n        /* \"#utility.yul\":14555:14588   */\n      swap1\n      pop\n        /* \"#utility.yul\":14501:14594   */\n      swap2\n      swap1\n      pop\n      jump\t// out\n        /* \"#utility.yul\":14600:14707   */\n    tag_139:\n        /* \"#utility.yul\":14644:14652   */\n      0x00\n        /* \"#utility.yul\":14694:14699   */\n      dup3\n        /* \"#utility.yul\":14688:14692   */\n      dup3\n        /* \"#utility.yul\":14684:14700   */\n      shl\n        /* \"#utility.yul\":14663:14700   */\n      swap1\n      pop\n        /* \"#utility.yul\":14600:14707   */\n      swap3\n      swap2\n      pop\n      pop\n      jump\t// out\n        /* \"#utility.yul\":14713:15106   */\n    tag_140:\n        /* \"#utility.yul\":14782:14788   */\n      0x00\n        /* \"#utility.yul\":14832:14833   */\n      0x08\n        /* \"#utility.yul\":14820:14830   */\n      dup4\n        /* \"#utility.yul\":14816:14834   */\n      mul\n        /* \"#utility.yul\":14855:14952   */\n      tag_295\n        /* \"#utility.yul\":14885:14951   */\n      0xffffffffffffffffffffffffffffffffffffffffffffffffffffffffffffffff\n        /* \"#utility.yul\":14874:14883   */\n      dup3\n        /* \"#utility.yul\":14855:14952   */\n      tag_139\n      jump\t// in\n    tag_295:\n        /* \"#utility.yul\":14973:15012   */\n      tag_296\n        /* \"#utility.yul\":15003:15011   */\n      dup7\n        /* \"#utility.yul\":14992:15001   */\n      dup4\n        /* \"#utility.yul\":14973:15012   */\n      tag_139\n      jump\t// in\n    tag_296:\n        /* \"#utility.yul\":14961:15012   */\n      swap6\n      pop\n        /* \"#utility.yul\":15045:15049   */\n      dup1\n        /* \"#utility.yul\":15041:15050   */\n      not\n        /* \"#utility.yul\":15034:15039   */\n      dup5\n        /* \"#utility.yul\":15030:15051   */\n      and\n        /* \"#utility.yul\":15021:15051   */\n      swap4\n      pop\n        /* \"#utility.yul\":15094:15098   */\n      dup1\n        /* \"#utility.yul\":15084:15092   */\n      dup7\n        /* \"#utility.yul\":15080:15099   */\n      and\n        /* \"#utility.yul\":15073:15078   */\n      dup5\n        /* \"#utility.yul\":15070:15100   */\n      or\n        /* \"#utility.yul\":15060:15100   */\n      swap3\n      pop\n        /* \"#utility.yul\":14789:15106   */\n      pop\n      pop\n        /* \"#utility.yul\":14713:15106   */\n      swap4\n      swap3\n      pop\n      pop\n      pop\n      jump\t// out\n        /* \"#utility.yul\":15112:15172   */\n    tag_141:\n        /* \"#utility.yul\":15140:15143   */\n      0x00\n        /* \"#utility.yul\":15161:15166   */\n      dup2\n        /* \"#utility.yul\":15154:15166   */\n      swap1\n      pop\n        /* \"#utility.yul\":15112:15172   */\n      swap2\n      swap1\n      pop\n      jump\t// out\n        /* \"#utility.yul\":15178:15320   */\n    tag_142:\n        /* \"#utility.yul\":15228:15237   */\n      0x00\n        /* \"#utility.yul\":15261:15314   */\n      tag_299\n        /* \"#utility.yul\":15279:15313   */\n      tag_300\n        /* \"#utility.yul\":15288:15312   */\n      tag_301\n        /* \"#utility.yul\":15306:15311   */\n      dup5\n        /* \"#utility.yul\":15288:15312   */\n      tag_109\n      jump\t// in\n    tag_301:\n        /* \"#utility.yul\":15279:15313   */\n      tag_141\n      jump\t// in\n    tag_300:\n        /* \"#utility.yul\":15261:15314   */\n      tag_109\n      jump\t// in\n    tag_299:\n        /* \"#utility.yul\":15248:15314   */\n      swap1\n      pop\n        /* \"#utility.yul\":15178:15320   */\n      swap2\n      swap1\n      pop\n      jump\t// out\n        /* \"#utility.yul\":15326:15401   */\n    tag_143:\n        /* \"#utility.yul\":15369:15372   */\n      0x00\n        /* \"#utility.yul\":15390:15395   */\n      dup2\n        /* \"#utility.yul\":15383:15395   */\n      swap1\n      pop\n        /* \"#utility.yul\":15326:15401   */\n      swap2\n      swap1\n      pop\n      jump\t// out\n        /* \"#utility.yul\":15407:15676   */\n    tag_144:\n        /* \"#utility.yul\":15517:15556   */\n      tag_304\n        /* \"#utility.yul\":15548:15555   */\n      dup4\n        /* \"#utility.yul\":15517:15556   */\n      tag_142\n      jump\t// in\n    tag_304:\n        /* \"#utility.yul\":15578:15669   */\n      tag_305\n        /* \"#utility.yul\":15627:15668   */\n      tag_306\n        /* \"#utility.yul\":15651:15667   */\n      dup3\n        /* \"#utility.yul\":15627:15668   */\n      tag_143\n      jump\t// in\n    tag_306:\n        /* \"#utility.yul\":15619:15625   */\n      dup5\n        /* \"#utility.yul\":15612:15616   */\n      dup5\n        /* \"#utility.yul\":15606:15617   */\n      sload\n        /* \"#utility.yul\":15578:15669   */\n      tag_140\n      jump\t// in\n    tag_305:\n        /* \"#utility.yul\":15572:15576   */\n      dup3\n        /* \"#utility.yul\":15565:15670   */\n      sstore\n        /* \"#utility.yul\":15483:15676   */\n      pop\n        /* \"#utility.yul\":15407:15676   */\n      pop\n      pop\n      pop\n      jump\t// out\n        /* \"#utility.yul\":15682:15755   */\n    tag_145:\n        /* \"#utility.yul\":15727:15730   */\n      0x00\n        /* \"#utility.yul\":15682:15755   */\n      swap1\n      jump\t// out\n        /* \"#utility.yul\":15761:15950   */\n    tag_146:\n        /* \"#utility.yul\":15838:15870   */\n      tag_309\n      tag_145\n      jump\t// in\n    tag_309:\n        /* \"#utility.yul\":15879:15944   */\n      tag_310\n        /* \"#utility.yul\":15937:15943   */\n      dup2\n        /* \"#utility.yul\":15929:15935   */\n      dup5\n        /* \"#utility.yul\":15923:15927   */\n      dup5\n        /* \"#utility.yul\":15879:15944   */\n      tag_144\n      jump\t// in\n    tag_310:\n        /* \"#utility.yul\":15814:15950   */\n      pop\n        /* \"#utility.yul\":15761:15950   */\n      pop\n      pop\n      jump\t// out\n        /* \"#utility.yul\":15956:16142   */\n    tag_147:\n        /* \"#utility.yul\":16016:16136   */\n    tag_312:\n        /* \"#utility.yul\":16033:16036   */\n      dup2\n        /* \"#utility.yul\":16026:16031   */\n      dup2\n        /* \"#utility.yul\":16023:16037   */\n      lt\n        /* \"#utility.yul\":16016:16136   */\n      iszero\n      tag_314\n      jumpi\n        /* \"#utility.yul\":16087:16126   */\n      tag_315\n        /* \"#utility.yul\":16124:16125   */\n      0x00\n        /* \"#utility.yul\":16117:16122   */\n      dup3\n        /* \"#utility.yul\":16087:16126   */\n      tag_146\n      jump\t// in\n    tag_315:\n        /* \"#utility.yul\":16060:16061   */\n      0x01\n        /* \"#utility.yul\":16053:16058   */\n      dup2\n        /* \"#utility.yul\":16049:16062   */\n      add\n        /* \"#utility.yul\":16040:16062   */\n      swap1\n      pop\n        /* \"#utility.yul\":16016:16136   */\n      jump(tag_312)\n    tag_314:\n        /* \"#utility.yul\":15956:16142   */\n      pop\n      pop\n      jump\t// out\n        /* \"#utility.yul\":16148:16691   */\n    tag_148:\n        /* \"#utility.yul\":16249:16251   */\n      0x1f\n        /* \"#utility.yul\":16244:16247   */\n      dup3\n        /* \"#utility.yul\":16241:16252   */\n      gt\n        /* \"#utility.yul\":16238:16684   */\n      iszero\n      tag_317\n      jumpi\n        /* \"#utility.yul\":16283:16321   */\n      tag_318\n        /* \"#utility.yul\":16315:16320   */\n      dup2\n        /* \"#utility.yul\":16283:16321   */\n      tag_137\n      jump\t// in\n    tag_318:\n        /* \"#utility.yul\":16367:16396   */\n      tag_319\n        /* \"#utility.yul\":16385:16395   */\n      dup5\n        /* \"#utility.yul\":16367:16396   */\n      tag_138\n      jump\t// in\n    tag_319:\n        /* \"#utility.yul\":16357:16365   */\n      dup2\n        /* \"#utility.yul\":16353:16397   */\n      add\n        /* \"#utility.yul\":16550:16552   */\n      0x20\n        /* \"#utility.yul\":16538:16548   */\n      dup6\n        /* \"#utility.yul\":16535:16553   */\n      lt\n        /* \"#utility.yul\":16532:16581   */\n      iszero\n      tag_320\n      jumpi\n        /* \"#utility.yul\":16571:16579   */\n      dup2\n        /* \"#utility.yul\":16556:16579   */\n      swap1\n      pop\n        /* \"#utility.yul\":16532:16581   */\n    tag_320:\n        /* \"#utility.yul\":16594:16674   */\n      tag_321\n        /* \"#utility.yul\":16650:16672   */\n      tag_322\n        /* \"#utility.yul\":16668:16671   */\n      dup6\n        /* \"#utility.yul\":16650:16672   */\n      tag_138\n      jump\t// in\n    tag_322:\n        /* \"#utility.yul\":16640:16648   */\n      dup4\n        /* \"#utility.yul\":16636:16673   */\n      add\n        /* \"#utility.yul\":16623:16634   */\n      dup3\n        /* \"#utility.yul\":16594:16674   */\n      tag_147\n      jump\t// in\n    tag_321:\n        /* \"#utility.yul\":16253:16684   */\n      pop\n      pop\n        /* \"#utility.yul\":16238:16684   */\n    tag_317:\n        /* \"#utility.yul\":16148:16691   */\n      pop\n      pop\n      pop\n      jump\t// out\n        /* \"#utility.yul\":16697:16814   */\n    tag_149:\n        /* \"#utility.yul\":16751:16759   */\n      0x00\n        /* \"#utility.yul\":16801:16806   */\n      dup3\n        /* \"#utility.yul\":16795:16799   */\n      dup3\n        /* \"#utility.yul\":16791:16807   */\n      shr\n        /* \"#utility.yul\":16770:16807   */\n      swap1\n      pop\n        /* \"#utility.yul\":16697:16814   */\n      swap3\n      swap2\n      pop\n      pop\n      jump\t// out\n        /* \"#utility.yul\":16820:16989   */\n    tag_150:\n        /* \"#utility.yul\":16864:16870   */\n      0x00\n        /* \"#utility.yul\":16897:16948   */\n      tag_325\n        /* \"#utility.yul\":16945:16946   */\n      0x00\n        /* \"#utility.yul\":16941:16947   */\n      not\n        /* \"#utility.yul\":16933:16938   */\n      dup5\n        /* \"#utility.yul\":16930:16931   */\n      0x08\n        /* \"#utility.yul\":16926:16939   */\n      mul\n        /* \"#utility.yul\":16897:16948   */\n      tag_149\n      jump\t// in\n    tag_325:\n        /* \"#utility.yul\":16893:16949   */\n      not\n        /* \"#utility.yul\":16978:16982   */\n      dup1\n        /* \"#utility.yul\":16972:16976   */\n      dup4\n        /* \"#utility.yul\":16968:16983   */\n      and\n        /* \"#utility.yul\":16958:16983   */\n      swap2\n      pop\n        /* \"#utility.yul\":16871:16989   */\n      pop\n        /* \"#utility.yul\":16820:16989   */\n      swap3\n      swap2\n      pop\n      pop\n      jump\t// out\n        /* \"#utility.yul\":16994:17289   */\n    tag_151:\n        /* \"#utility.yul\":17070:17074   */\n      0x00\n        /* \"#utility.yul\":17216:17245   */\n      tag_327\n        /* \"#utility.yul\":17241:17244   */\n      dup4\n        /* \"#utility.yul\":17235:17239   */\n      dup4\n        /* \"#utility.yul\":17216:17245   */\n      tag_150\n      jump\t// in\n    tag_327:\n        /* \"#utility.yul\":17208:17245   */\n      swap2\n      pop\n        /* \"#utility.yul\":17278:17281   */\n      dup3\n        /* \"#utility.yul\":17275:17276   */\n      0x02\n        /* \"#utility.yul\":17271:17282   */\n      mul\n        /* \"#utility.yul\":17265:17269   */\n      dup3\n        /* \"#utility.yul\":17262:17283   */\n      or\n        /* \"#utility.yul\":17254:17283   */\n      swap1\n      pop\n        /* \"#utility.yul\":16994:17289   */\n      swap3\n      swap2\n      pop\n      pop\n      jump\t// out\n        /* \"#utility.yul\":17294:18689   */\n    tag_84:\n        /* \"#utility.yul\":17411:17448   */\n      tag_329\n        /* \"#utility.yul\":17444:17447   */\n      dup3\n        /* \"#utility.yul\":17411:17448   */\n      tag_113\n      jump\t// in\n    tag_329:\n        /* \"#utility.yul\":17513:17531   */\n      0xffffffffffffffff\n        /* \"#utility.yul\":17505:17511   */\n      dup2\n        /* \"#utility.yul\":17502:17532   */\n      gt\n        /* \"#utility.yul\":17499:17555   */\n      iszero\n      tag_330\n      jumpi\n        /* \"#utility.yul\":17535:17553   */\n      tag_331\n      tag_120\n      jump\t// in\n    tag_331:\n        /* \"#utility.yul\":17499:17555   */\n    tag_330:\n        /* \"#utility.yul\":17579:17617   */\n      tag_332\n        /* \"#utility.yul\":17611:17615   */\n      dup3\n        /* \"#utility.yul\":17605:17616   */\n      sload\n        /* \"#utility.yul\":17579:17617   */\n      tag_67\n      jump\t// in\n    tag_332:\n        /* \"#utility.yul\":17664:17731   */\n      tag_333\n        /* \"#utility.yul\":17724:17730   */\n      dup3\n        /* \"#utility.yul\":17716:17722   */\n      dup3\n        /* \"#utility.yul\":17710:17714   */\n      dup6\n        /* \"#utility.yul\":17664:17731   */\n      tag_148\n      jump\t// in\n    tag_333:\n        /* \"#utility.yul\":17758:17759   */\n      0x00\n        /* \"#utility.yul\":17782:17786   */\n      0x20\n        /* \"#utility.yul\":17769:17786   */\n      swap1\n      pop\n        /* \"#utility.yul\":17814:17816   */\n      0x1f\n        /* \"#utility.yul\":17806:17812   */\n      dup4\n        /* \"#utility.yul\":17803:17817   */\n      gt\n        /* \"#utility.yul\":17831:17832   */\n      0x01\n        /* \"#utility.yul\":17826:18444   */\n      dup2\n      eq\n      tag_335\n      jumpi\n        /* \"#utility.yul\":18488:18489   */\n      0x00\n        /* \"#utility.yul\":18505:18511   */\n      dup5\n        /* \"#utility.yul\":18502:18579   */\n      iszero\n      tag_336\n      jumpi\n        /* \"#utility.yul\":18554:18563   */\n      dup3\n        /* \"#utility.yul\":18549:18552   */\n      dup8\n        /* \"#utility.yul\":18545:18564   */\n      add\n        /* \"#utility.yul\":18539:18565   */\n      mload\n        /* \"#utility.yul\":18530:18565   */\n      swap1\n      pop\n        /* \"#utility.yul\":18502:18579   */\n    tag_336:\n        /* \"#utility.yul\":18605:18672   */\n      tag_337\n        /* \"#utility.yul\":18665:18671   */\n      dup6\n        /* \"#utility.yul\":18658:18663   */\n      dup3\n        /* \"#utility.yul\":18605:18672   */\n      tag_151\n      jump\t// in\n    tag_337:\n        /* \"#utility.yul\":18599:18603   */\n      dup7\n        /* \"#utility.yul\":18592:18673   */\n      sstore\n        /* \"#utility.yul\":18461:18683   */\n      pop\n        /* \"#utility.yul\":17796:18683   */\n      jump(tag_334)\n        /* \"#utility.yul\":17826:18444   */\n    tag_335:\n        /* \"#utility.yul\":17878:17882   */\n      0x1f\n        /* \"#utility.yul\":17874:17883   */\n      not\n        /* \"#utility.yul\":17866:17872   */\n      dup5\n        /* \"#utility.yul\":17862:17884   */\n      and\n        /* \"#utility.yul\":17912:17949   */\n      tag_338\n        /* \"#utility.yul\":17944:17948   */\n      dup7\n        /* \"#utility.yul\":17912:17949   */\n      tag_137\n      jump\t// in\n    tag_338:\n        /* \"#utility.yul\":17971:17972   */\n      0x00\n        /* \"#utility.yul\":17985:18193   */\n    tag_339:\n        /* \"#utility.yul\":17999:18006   */\n      dup3\n        /* \"#utility.yul\":17996:17997   */\n      dup2\n        /* \"#utility.yul\":17993:18007   */\n      lt\n        /* \"#utility.yul\":17985:18193   */\n      iszero\n      tag_341\n      jumpi\n        /* \"#utility.yul\":18078:18087   */\n      dup5\n        /* \"#utility.yul\":18073:18076   */\n      dup10\n        /* \"#utility.yul\":18069:18088   */\n      add\n        /* \"#utility.yul\":18063:18089   */\n      mload\n        /* \"#utility.yul\":18055:18061   */\n      dup3\n        /* \"#utility.yul\":18048:18090   */\n      sstore\n        /* \"#utility.yul\":18129:18130   */\n      0x01\n        /* \"#utility.yul\":18121:18127   */\n      dup3\n        /* \"#utility.yul\":18117:18131   */\n      add\n        /* \"#utility.yul\":18107:18131   */\n      swap2\n      pop\n        /* \"#utility.yul\":18176:18178   */\n      0x20\n        /* \"#utility.yul\":18165:18174   */\n      dup6\n        /* \"#utility.yul\":18161:18179   */\n      add\n        /* \"#utility.yul\":18148:18179   */\n      swap5\n      pop\n        /* \"#utility.yul\":18022:18026   */\n      0x20\n        /* \"#utility.yul\":18019:18020   */\n      dup2\n        /* \"#utility.yul\":18015:18027   */\n      add\n        /* \"#utility.yul\":18010:18027   */\n      swap1\n      pop\n        /* \"#utility.yul\":17985:18193   */\n      jump(tag_339)\n    tag_341:\n        /* \"#utility.yul\":18221:18227   */\n      dup7\n        /* \"#utility.yul\":18212:18219   */\n      dup4\n        /* \"#utility.yul\":18209:18228   */\n      lt\n        /* \"#utility.yul\":18206:18385   */\n      iszero\n      tag_342\n      jumpi\n        /* \"#utility.yul\":18279:18288   */\n      dup5\n        /* \"#utility.yul\":18274:18277   */\n      dup10\n        /* \"#utility.yul\":18270:18289   */\n      add\n        /* \"#utility.yul\":18264:18290   */\n      mload\n        /* \"#utility.yul\":18322:18370   */\n      tag_343\n        /* \"#utility.yul\":18364:18368   */\n      0x1f\n        /* \"#utility.yul\":18356:18362   */\n      dup10\n        /* \"#utility.yul\":18352:18369   */\n      and\n        /* \"#utility.yul\":18341:18350   */\n      dup3\n        /* \"#utility.yul\":18322:18370   */\n      tag_150\n      jump\t// in\n    tag_343:\n        /* \"#utility.yul\":18314:18320   */\n      dup4\n        /* \"#utility.yul\":18307:18371   */\n      sstore\n        /* \"#utility.yul\":18229:18385   */\n      pop\n        /* \"#utility.yul\":18206:18385   */\n    tag_342:\n        /* \"#utility.yul\":18431:18432   */\n      0x01\n        /* \"#utility.yul\":18427:18428   */\n      0x02\n        /* \"#utility.yul\":18419:18425   */\n      dup9\n        /* \"#utility.yul\":18415:18429   */\n      mul\n        /* \"#utility.yul\":18411:18433   */\n      add\n        /* \"#utility.yul\":18405:18409   */\n      dup9\n        /* \"#utility.yul\":18398:18434   */\n      sstore\n        /* \"#utility.yul\":17833:18444   */\n      pop\n      pop\n      pop\n        /* \"#utility.yul\":17796:18683   */\n    tag_334:\n      pop\n        /* \"#utility.yul\":17386:18689   */\n      pop\n      pop\n      pop\n        /* \"#utility.yul\":17294:18689   */\n      pop\n      pop\n      jump\t// out\n\n    auxdata: 0xa26469706673582212206eb1401d1d6ca1d27e086a9cc93e4fc1347c7d1707e4279e6037a84b2f6c4ec264736f6c634300081a0033\n}\n",
				"bytecode": {
					"linkReferences": {},
					"object": "60806040525f6002553480156012575f80fd5b50335f806101000a81548173ffffffffffffffffffffffffffffffffffffffff021916908373ffffffffffffffffffffffffffffffffffffffff1602179055506112f78061005f5f395ff3fe608060405234801561000f575f80fd5b5060043610610086575f3560e01c80637a8e8526116100595780637a8e852614610110578063ab4c50b314610145578063d472f03814610161578063da6d89091461017f57610086565b8063089e1b391461008a57806324b04245146100a657806336da4468146100d65780636586b134146100f4575b5f80fd5b6100a4600480360381019061009f9190610939565b6101b2565b005b6100c060048036038101906100bb9190610939565b610297565b6040516100cd919061097e565b60405180910390f35b6100de6102b4565b6040516100eb91906109a6565b60405180910390f35b61010e600480360381019061010991906109f2565b6102d7565b005b61012a60048036038101906101259190610a30565b610445565b60405161013c96959493929190610ada565b60405180910390f35b61015f600480360381019061015a9190610c73565b610595565b005b6101696106ed565b6040516101769190610cfb565b60405180910390f35b61019960048036038101906101949190610a30565b6106f3565b6040516101a99493929190610d14565b60405180910390f35b5f8054906101000a900473ffffffffffffffffffffffffffffffffffffffff1673ffffffffffffffffffffffffffffffffffffffff163373ffffffffffffffffffffffffffffffffffffffff161461023f576040517f08c379a000000000000000000000000000000000000000000000000000000000815260040161023690610dd5565b60405180910390fd5b600160035f8373ffffffffffffffffffffffffffffffffffffffff1673ffffffffffffffffffffffffffffffffffffffff1681526020019081526020015f205f6101000a81548160ff02191690831515021790555050565b6003602052805f5260405f205f915054906101000a900460ff1681565b5f8054906101000a900473ffffffffffffffffffffffffffffffffffffffff1681565b60035f3373ffffffffffffffffffffffffffffffffffffffff1673ffffffffffffffffffffffffffffffffffffffff1681526020019081526020015f205f9054906101000a900460ff16610360576040517f08c379a000000000000000000000000000000000000000000000000000000000815260040161035790610e63565b60405180910390fd5b60015f8381526020019081526020015f206005015f9054906101000a900460ff166103c0576040517f08c379a00000000000000000000000000000000000000000000000000000000081526004016103b790610ecb565b60405180910390fd5b8060015f8481526020019081526020015f20600201541015610417576040517f08c379a000000000000000000000000000000000000000000000000000000000815260040161040e90610f33565b60405180910390fd5b8060015f8481526020019081526020015f206002015f82825461043a9190610f7e565b925050819055505050565b6001602052805f5260405f205f91509050805f01549080600101805461046a90610fde565b80601f016020809104026020016040519081016040528092919081815260200182805461049690610fde565b80156104e15780601f106104b8576101008083540402835291602001916104e1565b820191905f5260205f20905b8154815290600101906020018083116104c457829003601f168201915b5050505050908060020154908060030180546104fc90610fde565b80601f016020809104026020016040519081016040528092919081815260200182805461052890610fde565b80156105735780601f1061054a57610100808354040283529160200191610573565b820191905f5260205f20905b81548152906001019060200180831161055657829003601f168201915b505050505090806004015490806005015f9054906101000a900460ff16905086565b5f8054906101000a900473ffffffffffffffffffffffffffffffffffffffff1673ffffffffffffffffffffffffffffffffffffffff163373ffffffffffffffffffffffffffffffffffffffff1614610622576040517f08c379a000000000000000000000000000000000000000000000000000000000815260040161061990610dd5565b60405180910390fd5b60025f8154809291906106349061100e565b91905055506040518060c0016040528060025481526020018481526020018381526020018281526020014281526020016001151581525060015f60025481526020019081526020015f205f820151815f0155602082015181600101908161069b91906111f2565b506040820151816002015560608201518160030190816106bb91906111f2565b506080820151816004015560a0820151816005015f6101000a81548160ff021916908315150217905550905050505050565b60025481565b60605f60605f60015f8681526020019081526020015f206005015f9054906101000a900460ff16610759576040517f08c379a000000000000000000000000000000000000000000000000000000000815260040161075090610ecb565b60405180910390fd5b60015f8681526020019081526020015f2060010160015f8781526020019081526020015f206002015460015f8881526020019081526020015f2060030160015f8981526020019081526020015f20600401548380546107b790610fde565b80601f01602080910402602001604051908101604052809291908181526020018280546107e390610fde565b801561082e5780601f106108055761010080835404028352916020019161082e565b820191905f5260205f20905b81548152906001019060200180831161081157829003601f168201915b5050505050935081805461084190610fde565b80601f016020809104026020016040519081016040528092919081815260200182805461086d90610fde565b80156108b85780601f1061088f576101008083540402835291602001916108b8565b820191905f5260205f20905b81548152906001019060200180831161089b57829003601f168201915b5050505050915093509350935093509193509193565b5f604051905090565b5f80fd5b5f80fd5b5f73ffffffffffffffffffffffffffffffffffffffff82169050919050565b5f610908826108df565b9050919050565b610918816108fe565b8114610922575f80fd5b50565b5f813590506109338161090f565b92915050565b5f6020828403121561094e5761094d6108d7565b5b5f61095b84828501610925565b91505092915050565b5f8115159050919050565b61097881610964565b82525050565b5f6020820190506109915f83018461096f565b92915050565b6109a0816108fe565b82525050565b5f6020820190506109b95f830184610997565b92915050565b5f819050919050565b6109d1816109bf565b81146109db575f80fd5b50565b5f813590506109ec816109c8565b92915050565b5f8060408385031215610a0857610a076108d7565b5b5f610a15858286016109de565b9250506020610a26858286016109de565b9150509250929050565b5f60208284031215610a4557610a446108d7565b5b5f610a52848285016109de565b91505092915050565b610a64816109bf565b82525050565b5f81519050919050565b5f82825260208201905092915050565b8281835e5f83830152505050565b5f601f19601f8301169050919050565b5f610aac82610a6a565b610ab68185610a74565b9350610ac6818560208601610a84565b610acf81610a92565b840191505092915050565b5f60c082019050610aed5f830189610a5b565b8181036020830152610aff8188610aa2565b9050610b0e6040830187610a5b565b8181036060830152610b208186610aa2565b9050610b2f6080830185610a5b565b610b3c60a083018461096f565b979650505050505050565b5f80fd5b5f80fd5b7f4e487b71000000000000000000000000000000000000000000000000000000005f52604160045260245ffd5b610b8582610a92565b810181811067ffffffffffffffff82111715610ba457610ba3610b4f565b5b80604052505050565b5f610bb66108ce565b9050610bc28282610b7c565b919050565b5f67ffffffffffffffff821115610be157610be0610b4f565b5b610bea82610a92565b9050602081019050919050565b828183375f83830152505050565b5f610c17610c1284610bc7565b610bad565b905082815260208101848484011115610c3357610c32610b4b565b5b610c3e848285610bf7565b509392505050565b5f82601f830112610c5a57610c59610b47565b5b8135610c6a848260208601610c05565b91505092915050565b5f805f60608486031215610c8a57610c896108d7565b5b5f84013567ffffffffffffffff811115610ca757610ca66108db565b5b610cb386828701610c46565b9350506020610cc4868287016109de565b925050604084013567ffffffffffffffff811115610ce557610ce46108db565b5b610cf186828701610c46565b9150509250925092565b5f602082019050610d0e5f830184610a5b565b92915050565b5f6080820190508181035f830152610d2c8187610aa2565b9050610d3b6020830186610a5b565b8181036040830152610d4d8185610aa2565b9050610d5c6060830184610a5b565b95945050505050565b7f4f6e6c792074686520737570706c6965722063616e20706572666f726d2074685f8201527f697320616374696f6e0000000000000000000000000000000000000000000000602082015250565b5f610dbf602983610a74565b9150610dca82610d65565b604082019050919050565b5f6020820190508181035f830152610dec81610db3565b9050919050565b7f4f6e6c7920617574686f72697a6564206d616e756661637475726572732063615f8201527f6e20706572666f726d207468697320616374696f6e0000000000000000000000602082015250565b5f610e4d603583610a74565b9150610e5882610df3565b604082019050919050565b5f6020820190508181035f830152610e7a81610e41565b9050919050565b7f4d6174657269616c20646f6573206e6f742065786973740000000000000000005f82015250565b5f610eb5601783610a74565b9150610ec082610e81565b602082019050919050565b5f6020820190508181035f830152610ee281610ea9565b9050919050565b7f496e73756666696369656e74206d6174657269616c207175616e7469747900005f82015250565b5f610f1d601e83610a74565b9150610f2882610ee9565b602082019050919050565b5f6020820190508181035f830152610f4a81610f11565b9050919050565b7f4e487b71000000000000000000000000000000000000000000000000000000005f52601160045260245ffd5b5f610f88826109bf565b9150610f93836109bf565b9250828203905081811115610fab57610faa610f51565b5b92915050565b7f4e487b71000000000000000000000000000000000000000000000000000000005f52602260045260245ffd5b5f6002820490506001821680610ff557607f821691505b60208210810361100857611007610fb1565b5b50919050565b5f611018826109bf565b91507fffffffffffffffffffffffffffffffffffffffffffffffffffffffffffffffff820361104a57611049610f51565b5b600182019050919050565b5f819050815f5260205f209050919050565b5f6020601f8301049050919050565b5f82821b905092915050565b5f600883026110b17fffffffffffffffffffffffffffffffffffffffffffffffffffffffffffffffff82611076565b6110bb8683611076565b95508019841693508086168417925050509392505050565b5f819050919050565b5f6110f66110f16110ec846109bf565b6110d3565b6109bf565b9050919050565b5f819050919050565b61110f836110dc565b61112361111b826110fd565b848454611082565b825550505050565b5f90565b61113761112b565b611142818484611106565b505050565b5b818110156111655761115a5f8261112f565b600181019050611148565b5050565b601f8211156111aa5761117b81611055565b61118484611067565b81016020851015611193578190505b6111a761119f85611067565b830182611147565b50505b505050565b5f82821c905092915050565b5f6111ca5f19846008026111af565b1980831691505092915050565b5f6111e283836111bb565b9150826002028217905092915050565b6111fb82610a6a565b67ffffffffffffffff81111561121457611213610b4f565b5b61121e8254610fde565b611229828285611169565b5f60209050601f83116001811461125a575f8415611248578287015190505b61125285826111d7565b8655506112b9565b601f19841661126886611055565b5f5b8281101561128f5784890151825560018201915060208501945060208101905061126a565b868310156112ac57848901516112a8601f8916826111bb565b8355505b6001600288020188555050505b50505050505056fea26469706673582212206eb1401d1d6ca1d27e086a9cc93e4fc1347c7d1707e4279e6037a84b2f6c4ec264736f6c634300081a0033",
					"opcodes": "PUSH1 0x80 PUSH1 0x40 MSTORE PUSH0 PUSH1 0x2 SSTORE CALLVALUE DUP1 ISZERO PUSH1 0x12 JUMPI PUSH0 DUP1 REVERT JUMPDEST POP CALLER PUSH0 DUP1 PUSH2 0x100 EXP DUP2 SLOAD DUP2 PUSH20 0xFFFFFFFFFFFFFFFFFFFFFFFFFFFFFFFFFFFFFFFF MUL NOT AND SWAP1 DUP4 PUSH20 0xFFFFFFFFFFFFFFFFFFFFFFFFFFFFFFFFFFFFFFFF AND MUL OR SWAP1 SSTORE POP PUSH2 0x12F7 DUP1 PUSH2 0x5F PUSH0 CODECOPY PUSH0 RETURN INVALID PUSH1 0x80 PUSH1 0x40 MSTORE CALLVALUE DUP1 ISZERO PUSH2 0xF JUMPI PUSH0 DUP1 REVERT JUMPDEST POP PUSH1 0x4 CALLDATASIZE LT PUSH2 0x86 JUMPI PUSH0 CALLDATALOAD PUSH1 0xE0 SHR DUP1 PUSH4 0x7A8E8526 GT PUSH2 0x59 JUMPI DUP1 PUSH4 0x7A8E8526 EQ PUSH2 0x110 JUMPI DUP1 PUSH4 0xAB4C50B3 EQ PUSH2 0x145 JUMPI DUP1 PUSH4 0xD472F038 EQ PUSH2 0x161 JUMPI DUP1 PUSH4 0xDA6D8909 EQ PUSH2 0x17F JUMPI PUSH2 0x86 JUMP JUMPDEST DUP1 PUSH4 0x89E1B39 EQ PUSH2 0x8A JUMPI DUP1 PUSH4 0x24B04245 EQ PUSH2 0xA6 JUMPI DUP1 PUSH4 0x36DA4468 EQ PUSH2 0xD6 JUMPI DUP1 PUSH4 0x6586B134 EQ PUSH2 0xF4 JUMPI JUMPDEST PUSH0 DUP1 REVERT JUMPDEST PUSH2 0xA4 PUSH1 0x4 DUP1 CALLDATASIZE SUB DUP2 ADD SWAP1 PUSH2 0x9F SWAP2 SWAP1 PUSH2 0x939 JUMP JUMPDEST PUSH2 0x1B2 JUMP JUMPDEST STOP JUMPDEST PUSH2 0xC0 PUSH1 0x4 DUP1 CALLDATASIZE SUB DUP2 ADD SWAP1 PUSH2 0xBB SWAP2 SWAP1 PUSH2 0x939 JUMP JUMPDEST PUSH2 0x297 JUMP JUMPDEST PUSH1 0x40 MLOAD PUSH2 0xCD SWAP2 SWAP1 PUSH2 0x97E JUMP JUMPDEST PUSH1 0x40 MLOAD DUP1 SWAP2 SUB SWAP1 RETURN JUMPDEST PUSH2 0xDE PUSH2 0x2B4 JUMP JUMPDEST PUSH1 0x40 MLOAD PUSH2 0xEB SWAP2 SWAP1 PUSH2 0x9A6 JUMP JUMPDEST PUSH1 0x40 MLOAD DUP1 SWAP2 SUB SWAP1 RETURN JUMPDEST PUSH2 0x10E PUSH1 0x4 DUP1 CALLDATASIZE SUB DUP2 ADD SWAP1 PUSH2 0x109 SWAP2 SWAP1 PUSH2 0x9F2 JUMP JUMPDEST PUSH2 0x2D7 JUMP JUMPDEST STOP JUMPDEST PUSH2 0x12A PUSH1 0x4 DUP1 CALLDATASIZE SUB DUP2 ADD SWAP1 PUSH2 0x125 SWAP2 SWAP1 PUSH2 0xA30 JUMP JUMPDEST PUSH2 0x445 JUMP JUMPDEST PUSH1 0x40 MLOAD PUSH2 0x13C SWAP7 SWAP6 SWAP5 SWAP4 SWAP3 SWAP2 SWAP1 PUSH2 0xADA JUMP JUMPDEST PUSH1 0x40 MLOAD DUP1 SWAP2 SUB SWAP1 RETURN JUMPDEST PUSH2 0x15F PUSH1 0x4 DUP1 CALLDATASIZE SUB DUP2 ADD SWAP1 PUSH2 0x15A SWAP2 SWAP1 PUSH2 0xC73 JUMP JUMPDEST PUSH2 0x595 JUMP JUMPDEST STOP JUMPDEST PUSH2 0x169 PUSH2 0x6ED JUMP JUMPDEST PUSH1 0x40 MLOAD PUSH2 0x176 SWAP2 SWAP1 PUSH2 0xCFB JUMP JUMPDEST PUSH1 0x40 MLOAD DUP1 SWAP2 SUB SWAP1 RETURN JUMPDEST PUSH2 0x199 PUSH1 0x4 DUP1 CALLDATASIZE SUB DUP2 ADD SWAP1 PUSH2 0x194 SWAP2 SWAP1 PUSH2 0xA30 JUMP JUMPDEST PUSH2 0x6F3 JUMP JUMPDEST PUSH1 0x40 MLOAD PUSH2 0x1A9 SWAP5 SWAP4 SWAP3 SWAP2 SWAP1 PUSH2 0xD14 JUMP JUMPDEST PUSH1 0x40 MLOAD DUP1 SWAP2 SUB SWAP1 RETURN JUMPDEST PUSH0 DUP1 SLOAD SWAP1 PUSH2 0x100 EXP SWAP1 DIV PUSH20 0xFFFFFFFFFFFFFFFFFFFFFFFFFFFFFFFFFFFFFFFF AND PUSH20 0xFFFFFFFFFFFFFFFFFFFFFFFFFFFFFFFFFFFFFFFF AND CALLER PUSH20 0xFFFFFFFFFFFFFFFFFFFFFFFFFFFFFFFFFFFFFFFF AND EQ PUSH2 0x23F JUMPI PUSH1 0x40 MLOAD PUSH32 0x8C379A000000000000000000000000000000000000000000000000000000000 DUP2 MSTORE PUSH1 0x4 ADD PUSH2 0x236 SWAP1 PUSH2 0xDD5 JUMP JUMPDEST PUSH1 0x40 MLOAD DUP1 SWAP2 SUB SWAP1 REVERT JUMPDEST PUSH1 0x1 PUSH1 0x3 PUSH0 DUP4 PUSH20 0xFFFFFFFFFFFFFFFFFFFFFFFFFFFFFFFFFFFFFFFF AND PUSH20 0xFFFFFFFFFFFFFFFFFFFFFFFFFFFFFFFFFFFFFFFF AND DUP2 MSTORE PUSH1 0x20 ADD SWAP1 DUP2 MSTORE PUSH1 0x20 ADD PUSH0 KECCAK256 PUSH0 PUSH2 0x100 EXP DUP2 SLOAD DUP2 PUSH1 0xFF MUL NOT AND SWAP1 DUP4 ISZERO ISZERO MUL OR SWAP1 SSTORE POP POP JUMP JUMPDEST PUSH1 0x3 PUSH1 0x20 MSTORE DUP1 PUSH0 MSTORE PUSH1 0x40 PUSH0 KECCAK256 PUSH0 SWAP2 POP SLOAD SWAP1 PUSH2 0x100 EXP SWAP1 DIV PUSH1 0xFF AND DUP2 JUMP JUMPDEST PUSH0 DUP1 SLOAD SWAP1 PUSH2 0x100 EXP SWAP1 DIV PUSH20 0xFFFFFFFFFFFFFFFFFFFFFFFFFFFFFFFFFFFFFFFF AND DUP2 JUMP JUMPDEST PUSH1 0x3 PUSH0 CALLER PUSH20 0xFFFFFFFFFFFFFFFFFFFFFFFFFFFFFFFFFFFFFFFF AND PUSH20 0xFFFFFFFFFFFFFFFFFFFFFFFFFFFFFFFFFFFFFFFF AND DUP2 MSTORE PUSH1 0x20 ADD SWAP1 DUP2 MSTORE PUSH1 0x20 ADD PUSH0 KECCAK256 PUSH0 SWAP1 SLOAD SWAP1 PUSH2 0x100 EXP SWAP1 DIV PUSH1 0xFF AND PUSH2 0x360 JUMPI PUSH1 0x40 MLOAD PUSH32 0x8C379A000000000000000000000000000000000000000000000000000000000 DUP2 MSTORE PUSH1 0x4 ADD PUSH2 0x357 SWAP1 PUSH2 0xE63 JUMP JUMPDEST PUSH1 0x40 MLOAD DUP1 SWAP2 SUB SWAP1 REVERT JUMPDEST PUSH1 0x1 PUSH0 DUP4 DUP2 MSTORE PUSH1 0x20 ADD SWAP1 DUP2 MSTORE PUSH1 0x20 ADD PUSH0 KECCAK256 PUSH1 0x5 ADD PUSH0 SWAP1 SLOAD SWAP1 PUSH2 0x100 EXP SWAP1 DIV PUSH1 0xFF AND PUSH2 0x3C0 JUMPI PUSH1 0x40 MLOAD PUSH32 0x8C379A000000000000000000000000000000000000000000000000000000000 DUP2 MSTORE PUSH1 0x4 ADD PUSH2 0x3B7 SWAP1 PUSH2 0xECB JUMP JUMPDEST PUSH1 0x40 MLOAD DUP1 SWAP2 SUB SWAP1 REVERT JUMPDEST DUP1 PUSH1 0x1 PUSH0 DUP5 DUP2 MSTORE PUSH1 0x20 ADD SWAP1 DUP2 MSTORE PUSH1 0x20 ADD PUSH0 KECCAK256 PUSH1 0x2 ADD SLOAD LT ISZERO PUSH2 0x417 JUMPI PUSH1 0x40 MLOAD PUSH32 0x8C379A000000000000000000000000000000000000000000000000000000000 DUP2 MSTORE PUSH1 0x4 ADD PUSH2 0x40E SWAP1 PUSH2 0xF33 JUMP JUMPDEST PUSH1 0x40 MLOAD DUP1 SWAP2 SUB SWAP1 REVERT JUMPDEST DUP1 PUSH1 0x1 PUSH0 DUP5 DUP2 MSTORE PUSH1 0x20 ADD SWAP1 DUP2 MSTORE PUSH1 0x20 ADD PUSH0 KECCAK256 PUSH1 0x2 ADD PUSH0 DUP3 DUP3 SLOAD PUSH2 0x43A SWAP2 SWAP1 PUSH2 0xF7E JUMP JUMPDEST SWAP3 POP POP DUP2 SWAP1 SSTORE POP POP POP JUMP JUMPDEST PUSH1 0x1 PUSH1 0x20 MSTORE DUP1 PUSH0 MSTORE PUSH1 0x40 PUSH0 KECCAK256 PUSH0 SWAP2 POP SWAP1 POP DUP1 PUSH0 ADD SLOAD SWAP1 DUP1 PUSH1 0x1 ADD DUP1 SLOAD PUSH2 0x46A SWAP1 PUSH2 0xFDE JUMP JUMPDEST DUP1 PUSH1 0x1F ADD PUSH1 0x20 DUP1 SWAP2 DIV MUL PUSH1 0x20 ADD PUSH1 0x40 MLOAD SWAP1 DUP2 ADD PUSH1 0x40 MSTORE DUP1 SWAP3 SWAP2 SWAP1 DUP2 DUP2 MSTORE PUSH1 0x20 ADD DUP3 DUP1 SLOAD PUSH2 0x496 SWAP1 PUSH2 0xFDE JUMP JUMPDEST DUP1 ISZERO PUSH2 0x4E1 JUMPI DUP1 PUSH1 0x1F LT PUSH2 0x4B8 JUMPI PUSH2 0x100 DUP1 DUP4 SLOAD DIV MUL DUP4 MSTORE SWAP2 PUSH1 0x20 ADD SWAP2 PUSH2 0x4E1 JUMP JUMPDEST DUP3 ADD SWAP2 SWAP1 PUSH0 MSTORE PUSH1 0x20 PUSH0 KECCAK256 SWAP1 JUMPDEST DUP2 SLOAD DUP2 MSTORE SWAP1 PUSH1 0x1 ADD SWAP1 PUSH1 0x20 ADD DUP1 DUP4 GT PUSH2 0x4C4 JUMPI DUP3 SWAP1 SUB PUSH1 0x1F AND DUP3 ADD SWAP2 JUMPDEST POP POP POP POP POP SWAP1 DUP1 PUSH1 0x2 ADD SLOAD SWAP1 DUP1 PUSH1 0x3 ADD DUP1 SLOAD PUSH2 0x4FC SWAP1 PUSH2 0xFDE JUMP JUMPDEST DUP1 PUSH1 0x1F ADD PUSH1 0x20 DUP1 SWAP2 DIV MUL PUSH1 0x20 ADD PUSH1 0x40 MLOAD SWAP1 DUP2 ADD PUSH1 0x40 MSTORE DUP1 SWAP3 SWAP2 SWAP1 DUP2 DUP2 MSTORE PUSH1 0x20 ADD DUP3 DUP1 SLOAD PUSH2 0x528 SWAP1 PUSH2 0xFDE JUMP JUMPDEST DUP1 ISZERO PUSH2 0x573 JUMPI DUP1 PUSH1 0x1F LT PUSH2 0x54A JUMPI PUSH2 0x100 DUP1 DUP4 SLOAD DIV MUL DUP4 MSTORE SWAP2 PUSH1 0x20 ADD SWAP2 PUSH2 0x573 JUMP JUMPDEST DUP3 ADD SWAP2 SWAP1 PUSH0 MSTORE PUSH1 0x20 PUSH0 KECCAK256 SWAP1 JUMPDEST DUP2 SLOAD DUP2 MSTORE SWAP1 PUSH1 0x1 ADD SWAP1 PUSH1 0x20 ADD DUP1 DUP4 GT PUSH2 0x556 JUMPI DUP3 SWAP1 SUB PUSH1 0x1F AND DUP3 ADD SWAP2 JUMPDEST POP POP POP POP POP SWAP1 DUP1 PUSH1 0x4 ADD SLOAD SWAP1 DUP1 PUSH1 0x5 ADD PUSH0 SWAP1 SLOAD SWAP1 PUSH2 0x100 EXP SWAP1 DIV PUSH1 0xFF AND SWAP1 POP DUP7 JUMP JUMPDEST PUSH0 DUP1 SLOAD SWAP1 PUSH2 0x100 EXP SWAP1 DIV PUSH20 0xFFFFFFFFFFFFFFFFFFFFFFFFFFFFFFFFFFFFFFFF AND PUSH20 0xFFFFFFFFFFFFFFFFFFFFFFFFFFFFFFFFFFFFFFFF AND CALLER PUSH20 0xFFFFFFFFFFFFFFFFFFFFFFFFFFFFFFFFFFFFFFFF AND EQ PUSH2 0x622 JUMPI PUSH1 0x40 MLOAD PUSH32 0x8C379A000000000000000000000000000000000000000000000000000000000 DUP2 MSTORE PUSH1 0x4 ADD PUSH2 0x619 SWAP1 PUSH2 0xDD5 JUMP JUMPDEST PUSH1 0x40 MLOAD DUP1 SWAP2 SUB SWAP1 REVERT JUMPDEST PUSH1 0x2 PUSH0 DUP2 SLOAD DUP1 SWAP3 SWAP2 SWAP1 PUSH2 0x634 SWAP1 PUSH2 0x100E JUMP JUMPDEST SWAP2 SWAP1 POP SSTORE POP PUSH1 0x40 MLOAD DUP1 PUSH1 0xC0 ADD PUSH1 0x40 MSTORE DUP1 PUSH1 0x2 SLOAD DUP2 MSTORE PUSH1 0x20 ADD DUP5 DUP2 MSTORE PUSH1 0x20 ADD DUP4 DUP2 MSTORE PUSH1 0x20 ADD DUP3 DUP2 MSTORE PUSH1 0x20 ADD TIMESTAMP DUP2 MSTORE PUSH1 0x20 ADD PUSH1 0x1 ISZERO ISZERO DUP2 MSTORE POP PUSH1 0x1 PUSH0 PUSH1 0x2 SLOAD DUP2 MSTORE PUSH1 0x20 ADD SWAP1 DUP2 MSTORE PUSH1 0x20 ADD PUSH0 KECCAK256 PUSH0 DUP3 ADD MLOAD DUP2 PUSH0 ADD SSTORE PUSH1 0x20 DUP3 ADD MLOAD DUP2 PUSH1 0x1 ADD SWAP1 DUP2 PUSH2 0x69B SWAP2 SWAP1 PUSH2 0x11F2 JUMP JUMPDEST POP PUSH1 0x40 DUP3 ADD MLOAD DUP2 PUSH1 0x2 ADD SSTORE PUSH1 0x60 DUP3 ADD MLOAD DUP2 PUSH1 0x3 ADD SWAP1 DUP2 PUSH2 0x6BB SWAP2 SWAP1 PUSH2 0x11F2 JUMP JUMPDEST POP PUSH1 0x80 DUP3 ADD MLOAD DUP2 PUSH1 0x4 ADD SSTORE PUSH1 0xA0 DUP3 ADD MLOAD DUP2 PUSH1 0x5 ADD PUSH0 PUSH2 0x100 EXP DUP2 SLOAD DUP2 PUSH1 0xFF MUL NOT AND SWAP1 DUP4 ISZERO ISZERO MUL OR SWAP1 SSTORE POP SWAP1 POP POP POP POP POP JUMP JUMPDEST PUSH1 0x2 SLOAD DUP2 JUMP JUMPDEST PUSH1 0x60 PUSH0 PUSH1 0x60 PUSH0 PUSH1 0x1 PUSH0 DUP7 DUP2 MSTORE PUSH1 0x20 ADD SWAP1 DUP2 MSTORE PUSH1 0x20 ADD PUSH0 KECCAK256 PUSH1 0x5 ADD PUSH0 SWAP1 SLOAD SWAP1 PUSH2 0x100 EXP SWAP1 DIV PUSH1 0xFF AND PUSH2 0x759 JUMPI PUSH1 0x40 MLOAD PUSH32 0x8C379A000000000000000000000000000000000000000000000000000000000 DUP2 MSTORE PUSH1 0x4 ADD PUSH2 0x750 SWAP1 PUSH2 0xECB JUMP JUMPDEST PUSH1 0x40 MLOAD DUP1 SWAP2 SUB SWAP1 REVERT JUMPDEST PUSH1 0x1 PUSH0 DUP7 DUP2 MSTORE PUSH1 0x20 ADD SWAP1 DUP2 MSTORE PUSH1 0x20 ADD PUSH0 KECCAK256 PUSH1 0x1 ADD PUSH1 0x1 PUSH0 DUP8 DUP2 MSTORE PUSH1 0x20 ADD SWAP1 DUP2 MSTORE PUSH1 0x20 ADD PUSH0 KECCAK256 PUSH1 0x2 ADD SLOAD PUSH1 0x1 PUSH0 DUP9 DUP2 MSTORE PUSH1 0x20 ADD SWAP1 DUP2 MSTORE PUSH1 0x20 ADD PUSH0 KECCAK256 PUSH1 0x3 ADD PUSH1 0x1 PUSH0 DUP10 DUP2 MSTORE PUSH1 0x20 ADD SWAP1 DUP2 MSTORE PUSH1 0x20 ADD PUSH0 KECCAK256 PUSH1 0x4 ADD SLOAD DUP4 DUP1 SLOAD PUSH2 0x7B7 SWAP1 PUSH2 0xFDE JUMP JUMPDEST DUP1 PUSH1 0x1F ADD PUSH1 0x20 DUP1 SWAP2 DIV MUL PUSH1 0x20 ADD PUSH1 0x40 MLOAD SWAP1 DUP2 ADD PUSH1 0x40 MSTORE DUP1 SWAP3 SWAP2 SWAP1 DUP2 DUP2 MSTORE PUSH1 0x20 ADD DUP3 DUP1 SLOAD PUSH2 0x7E3 SWAP1 PUSH2 0xFDE JUMP JUMPDEST DUP1 ISZERO PUSH2 0x82E JUMPI DUP1 PUSH1 0x1F LT PUSH2 0x805 JUMPI PUSH2 0x100 DUP1 DUP4 SLOAD DIV MUL DUP4 MSTORE SWAP2 PUSH1 0x20 ADD SWAP2 PUSH2 0x82E JUMP JUMPDEST DUP3 ADD SWAP2 SWAP1 PUSH0 MSTORE PUSH1 0x20 PUSH0 KECCAK256 SWAP1 JUMPDEST DUP2 SLOAD DUP2 MSTORE SWAP1 PUSH1 0x1 ADD SWAP1 PUSH1 0x20 ADD DUP1 DUP4 GT PUSH2 0x811 JUMPI DUP3 SWAP1 SUB PUSH1 0x1F AND DUP3 ADD SWAP2 JUMPDEST POP POP POP POP POP SWAP4 POP DUP2 DUP1 SLOAD PUSH2 0x841 SWAP1 PUSH2 0xFDE JUMP JUMPDEST DUP1 PUSH1 0x1F ADD PUSH1 0x20 DUP1 SWAP2 DIV MUL PUSH1 0x20 ADD PUSH1 0x40 MLOAD SWAP1 DUP2 ADD PUSH1 0x40 MSTORE DUP1 SWAP3 SWAP2 SWAP1 DUP2 DUP2 MSTORE PUSH1 0x20 ADD DUP3 DUP1 SLOAD PUSH2 0x86D SWAP1 PUSH2 0xFDE JUMP JUMPDEST DUP1 ISZERO PUSH2 0x8B8 JUMPI DUP1 PUSH1 0x1F LT PUSH2 0x88F JUMPI PUSH2 0x100 DUP1 DUP4 SLOAD DIV MUL DUP4 MSTORE SWAP2 PUSH1 0x20 ADD SWAP2 PUSH2 0x8B8 JUMP JUMPDEST DUP3 ADD SWAP2 SWAP1 PUSH0 MSTORE PUSH1 0x20 PUSH0 KECCAK256 SWAP1 JUMPDEST DUP2 SLOAD DUP2 MSTORE SWAP1 PUSH1 0x1 ADD SWAP1 PUSH1 0x20 ADD DUP1 DUP4 GT PUSH2 0x89B JUMPI DUP3 SWAP1 SUB PUSH1 0x1F AND DUP3 ADD SWAP2 JUMPDEST POP POP POP POP POP SWAP2 POP SWAP4 POP SWAP4 POP SWAP4 POP SWAP4 POP SWAP2 SWAP4 POP SWAP2 SWAP4 JUMP JUMPDEST PUSH0 PUSH1 0x40 MLOAD SWAP1 POP SWAP1 JUMP JUMPDEST PUSH0 DUP1 REVERT JUMPDEST PUSH0 DUP1 REVERT JUMPDEST PUSH0 PUSH20 0xFFFFFFFFFFFFFFFFFFFFFFFFFFFFFFFFFFFFFFFF DUP3 AND SWAP1 POP SWAP2 SWAP1 POP JUMP JUMPDEST PUSH0 PUSH2 0x908 DUP3 PUSH2 0x8DF JUMP JUMPDEST SWAP1 POP SWAP2 SWAP1 POP JUMP JUMPDEST PUSH2 0x918 DUP2 PUSH2 0x8FE JUMP JUMPDEST DUP2 EQ PUSH2 0x922 JUMPI PUSH0 DUP1 REVERT JUMPDEST POP JUMP JUMPDEST PUSH0 DUP2 CALLDATALOAD SWAP1 POP PUSH2 0x933 DUP2 PUSH2 0x90F JUMP JUMPDEST SWAP3 SWAP2 POP POP JUMP JUMPDEST PUSH0 PUSH1 0x20 DUP3 DUP5 SUB SLT ISZERO PUSH2 0x94E JUMPI PUSH2 0x94D PUSH2 0x8D7 JUMP JUMPDEST JUMPDEST PUSH0 PUSH2 0x95B DUP5 DUP3 DUP6 ADD PUSH2 0x925 JUMP JUMPDEST SWAP2 POP POP SWAP3 SWAP2 POP POP JUMP JUMPDEST PUSH0 DUP2 ISZERO ISZERO SWAP1 POP SWAP2 SWAP1 POP JUMP JUMPDEST PUSH2 0x978 DUP2 PUSH2 0x964 JUMP JUMPDEST DUP3 MSTORE POP POP JUMP JUMPDEST PUSH0 PUSH1 0x20 DUP3 ADD SWAP1 POP PUSH2 0x991 PUSH0 DUP4 ADD DUP5 PUSH2 0x96F JUMP JUMPDEST SWAP3 SWAP2 POP POP JUMP JUMPDEST PUSH2 0x9A0 DUP2 PUSH2 0x8FE JUMP JUMPDEST DUP3 MSTORE POP POP JUMP JUMPDEST PUSH0 PUSH1 0x20 DUP3 ADD SWAP1 POP PUSH2 0x9B9 PUSH0 DUP4 ADD DUP5 PUSH2 0x997 JUMP JUMPDEST SWAP3 SWAP2 POP POP JUMP JUMPDEST PUSH0 DUP2 SWAP1 POP SWAP2 SWAP1 POP JUMP JUMPDEST PUSH2 0x9D1 DUP2 PUSH2 0x9BF JUMP JUMPDEST DUP2 EQ PUSH2 0x9DB JUMPI PUSH0 DUP1 REVERT JUMPDEST POP JUMP JUMPDEST PUSH0 DUP2 CALLDATALOAD SWAP1 POP PUSH2 0x9EC DUP2 PUSH2 0x9C8 JUMP JUMPDEST SWAP3 SWAP2 POP POP JUMP JUMPDEST PUSH0 DUP1 PUSH1 0x40 DUP4 DUP6 SUB SLT ISZERO PUSH2 0xA08 JUMPI PUSH2 0xA07 PUSH2 0x8D7 JUMP JUMPDEST JUMPDEST PUSH0 PUSH2 0xA15 DUP6 DUP3 DUP7 ADD PUSH2 0x9DE JUMP JUMPDEST SWAP3 POP POP PUSH1 0x20 PUSH2 0xA26 DUP6 DUP3 DUP7 ADD PUSH2 0x9DE JUMP JUMPDEST SWAP2 POP POP SWAP3 POP SWAP3 SWAP1 POP JUMP JUMPDEST PUSH0 PUSH1 0x20 DUP3 DUP5 SUB SLT ISZERO PUSH2 0xA45 JUMPI PUSH2 0xA44 PUSH2 0x8D7 JUMP JUMPDEST JUMPDEST PUSH0 PUSH2 0xA52 DUP5 DUP3 DUP6 ADD PUSH2 0x9DE JUMP JUMPDEST SWAP2 POP POP SWAP3 SWAP2 POP POP JUMP JUMPDEST PUSH2 0xA64 DUP2 PUSH2 0x9BF JUMP JUMPDEST DUP3 MSTORE POP POP JUMP JUMPDEST PUSH0 DUP2 MLOAD SWAP1 POP SWAP2 SWAP1 POP JUMP JUMPDEST PUSH0 DUP3 DUP3 MSTORE PUSH1 0x20 DUP3 ADD SWAP1 POP SWAP3 SWAP2 POP POP JUMP JUMPDEST DUP3 DUP2 DUP4 MCOPY PUSH0 DUP4 DUP4 ADD MSTORE POP POP POP JUMP JUMPDEST PUSH0 PUSH1 0x1F NOT PUSH1 0x1F DUP4 ADD AND SWAP1 POP SWAP2 SWAP1 POP JUMP JUMPDEST PUSH0 PUSH2 0xAAC DUP3 PUSH2 0xA6A JUMP JUMPDEST PUSH2 0xAB6 DUP2 DUP6 PUSH2 0xA74 JUMP JUMPDEST SWAP4 POP PUSH2 0xAC6 DUP2 DUP6 PUSH1 0x20 DUP7 ADD PUSH2 0xA84 JUMP JUMPDEST PUSH2 0xACF DUP2 PUSH2 0xA92 JUMP JUMPDEST DUP5 ADD SWAP2 POP POP SWAP3 SWAP2 POP POP JUMP JUMPDEST PUSH0 PUSH1 0xC0 DUP3 ADD SWAP1 POP PUSH2 0xAED PUSH0 DUP4 ADD DUP10 PUSH2 0xA5B JUMP JUMPDEST DUP2 DUP2 SUB PUSH1 0x20 DUP4 ADD MSTORE PUSH2 0xAFF DUP2 DUP9 PUSH2 0xAA2 JUMP JUMPDEST SWAP1 POP PUSH2 0xB0E PUSH1 0x40 DUP4 ADD DUP8 PUSH2 0xA5B JUMP JUMPDEST DUP2 DUP2 SUB PUSH1 0x60 DUP4 ADD MSTORE PUSH2 0xB20 DUP2 DUP7 PUSH2 0xAA2 JUMP JUMPDEST SWAP1 POP PUSH2 0xB2F PUSH1 0x80 DUP4 ADD DUP6 PUSH2 0xA5B JUMP JUMPDEST PUSH2 0xB3C PUSH1 0xA0 DUP4 ADD DUP5 PUSH2 0x96F JUMP JUMPDEST SWAP8 SWAP7 POP POP POP POP POP POP POP JUMP JUMPDEST PUSH0 DUP1 REVERT JUMPDEST PUSH0 DUP1 REVERT JUMPDEST PUSH32 0x4E487B7100000000000000000000000000000000000000000000000000000000 PUSH0 MSTORE PUSH1 0x41 PUSH1 0x4 MSTORE PUSH1 0x24 PUSH0 REVERT JUMPDEST PUSH2 0xB85 DUP3 PUSH2 0xA92 JUMP JUMPDEST DUP2 ADD DUP2 DUP2 LT PUSH8 0xFFFFFFFFFFFFFFFF DUP3 GT OR ISZERO PUSH2 0xBA4 JUMPI PUSH2 0xBA3 PUSH2 0xB4F JUMP JUMPDEST JUMPDEST DUP1 PUSH1 0x40 MSTORE POP POP POP JUMP JUMPDEST PUSH0 PUSH2 0xBB6 PUSH2 0x8CE JUMP JUMPDEST SWAP1 POP PUSH2 0xBC2 DUP3 DUP3 PUSH2 0xB7C JUMP JUMPDEST SWAP2 SWAP1 POP JUMP JUMPDEST PUSH0 PUSH8 0xFFFFFFFFFFFFFFFF DUP3 GT ISZERO PUSH2 0xBE1 JUMPI PUSH2 0xBE0 PUSH2 0xB4F JUMP JUMPDEST JUMPDEST PUSH2 0xBEA DUP3 PUSH2 0xA92 JUMP JUMPDEST SWAP1 POP PUSH1 0x20 DUP2 ADD SWAP1 POP SWAP2 SWAP1 POP JUMP JUMPDEST DUP3 DUP2 DUP4 CALLDATACOPY PUSH0 DUP4 DUP4 ADD MSTORE POP POP POP JUMP JUMPDEST PUSH0 PUSH2 0xC17 PUSH2 0xC12 DUP5 PUSH2 0xBC7 JUMP JUMPDEST PUSH2 0xBAD JUMP JUMPDEST SWAP1 POP DUP3 DUP2 MSTORE PUSH1 0x20 DUP2 ADD DUP5 DUP5 DUP5 ADD GT ISZERO PUSH2 0xC33 JUMPI PUSH2 0xC32 PUSH2 0xB4B JUMP JUMPDEST JUMPDEST PUSH2 0xC3E DUP5 DUP3 DUP6 PUSH2 0xBF7 JUMP JUMPDEST POP SWAP4 SWAP3 POP POP POP JUMP JUMPDEST PUSH0 DUP3 PUSH1 0x1F DUP4 ADD SLT PUSH2 0xC5A JUMPI PUSH2 0xC59 PUSH2 0xB47 JUMP JUMPDEST JUMPDEST DUP2 CALLDATALOAD PUSH2 0xC6A DUP5 DUP3 PUSH1 0x20 DUP7 ADD PUSH2 0xC05 JUMP JUMPDEST SWAP2 POP POP SWAP3 SWAP2 POP POP JUMP JUMPDEST PUSH0 DUP1 PUSH0 PUSH1 0x60 DUP5 DUP7 SUB SLT ISZERO PUSH2 0xC8A JUMPI PUSH2 0xC89 PUSH2 0x8D7 JUMP JUMPDEST JUMPDEST PUSH0 DUP5 ADD CALLDATALOAD PUSH8 0xFFFFFFFFFFFFFFFF DUP2 GT ISZERO PUSH2 0xCA7 JUMPI PUSH2 0xCA6 PUSH2 0x8DB JUMP JUMPDEST JUMPDEST PUSH2 0xCB3 DUP7 DUP3 DUP8 ADD PUSH2 0xC46 JUMP JUMPDEST SWAP4 POP POP PUSH1 0x20 PUSH2 0xCC4 DUP7 DUP3 DUP8 ADD PUSH2 0x9DE JUMP JUMPDEST SWAP3 POP POP PUSH1 0x40 DUP5 ADD CALLDATALOAD PUSH8 0xFFFFFFFFFFFFFFFF DUP2 GT ISZERO PUSH2 0xCE5 JUMPI PUSH2 0xCE4 PUSH2 0x8DB JUMP JUMPDEST JUMPDEST PUSH2 0xCF1 DUP7 DUP3 DUP8 ADD PUSH2 0xC46 JUMP JUMPDEST SWAP2 POP POP SWAP3 POP SWAP3 POP SWAP3 JUMP JUMPDEST PUSH0 PUSH1 0x20 DUP3 ADD SWAP1 POP PUSH2 0xD0E PUSH0 DUP4 ADD DUP5 PUSH2 0xA5B JUMP JUMPDEST SWAP3 SWAP2 POP POP JUMP JUMPDEST PUSH0 PUSH1 0x80 DUP3 ADD SWAP1 POP DUP2 DUP2 SUB PUSH0 DUP4 ADD MSTORE PUSH2 0xD2C DUP2 DUP8 PUSH2 0xAA2 JUMP JUMPDEST SWAP1 POP PUSH2 0xD3B PUSH1 0x20 DUP4 ADD DUP7 PUSH2 0xA5B JUMP JUMPDEST DUP2 DUP2 SUB PUSH1 0x40 DUP4 ADD MSTORE PUSH2 0xD4D DUP2 DUP6 PUSH2 0xAA2 JUMP JUMPDEST SWAP1 POP PUSH2 0xD5C PUSH1 0x60 DUP4 ADD DUP5 PUSH2 0xA5B JUMP JUMPDEST SWAP6 SWAP5 POP POP POP POP POP JUMP JUMPDEST PUSH32 0x4F6E6C792074686520737570706C6965722063616E20706572666F726D207468 PUSH0 DUP3 ADD MSTORE PUSH32 0x697320616374696F6E0000000000000000000000000000000000000000000000 PUSH1 0x20 DUP3 ADD MSTORE POP JUMP JUMPDEST PUSH0 PUSH2 0xDBF PUSH1 0x29 DUP4 PUSH2 0xA74 JUMP JUMPDEST SWAP2 POP PUSH2 0xDCA DUP3 PUSH2 0xD65 JUMP JUMPDEST PUSH1 0x40 DUP3 ADD SWAP1 POP SWAP2 SWAP1 POP JUMP JUMPDEST PUSH0 PUSH1 0x20 DUP3 ADD SWAP1 POP DUP2 DUP2 SUB PUSH0 DUP4 ADD MSTORE PUSH2 0xDEC DUP2 PUSH2 0xDB3 JUMP JUMPDEST SWAP1 POP SWAP2 SWAP1 POP JUMP JUMPDEST PUSH32 0x4F6E6C7920617574686F72697A6564206D616E75666163747572657273206361 PUSH0 DUP3 ADD MSTORE PUSH32 0x6E20706572666F726D207468697320616374696F6E0000000000000000000000 PUSH1 0x20 DUP3 ADD MSTORE POP JUMP JUMPDEST PUSH0 PUSH2 0xE4D PUSH1 0x35 DUP4 PUSH2 0xA74 JUMP JUMPDEST SWAP2 POP PUSH2 0xE58 DUP3 PUSH2 0xDF3 JUMP JUMPDEST PUSH1 0x40 DUP3 ADD SWAP1 POP SWAP2 SWAP1 POP JUMP JUMPDEST PUSH0 PUSH1 0x20 DUP3 ADD SWAP1 POP DUP2 DUP2 SUB PUSH0 DUP4 ADD MSTORE PUSH2 0xE7A DUP2 PUSH2 0xE41 JUMP JUMPDEST SWAP1 POP SWAP2 SWAP1 POP JUMP JUMPDEST PUSH32 0x4D6174657269616C20646F6573206E6F74206578697374000000000000000000 PUSH0 DUP3 ADD MSTORE POP JUMP JUMPDEST PUSH0 PUSH2 0xEB5 PUSH1 0x17 DUP4 PUSH2 0xA74 JUMP JUMPDEST SWAP2 POP PUSH2 0xEC0 DUP3 PUSH2 0xE81 JUMP JUMPDEST PUSH1 0x20 DUP3 ADD SWAP1 POP SWAP2 SWAP1 POP JUMP JUMPDEST PUSH0 PUSH1 0x20 DUP3 ADD SWAP1 POP DUP2 DUP2 SUB PUSH0 DUP4 ADD MSTORE PUSH2 0xEE2 DUP2 PUSH2 0xEA9 JUMP JUMPDEST SWAP1 POP SWAP2 SWAP1 POP JUMP JUMPDEST PUSH32 0x496E73756666696369656E74206D6174657269616C207175616E746974790000 PUSH0 DUP3 ADD MSTORE POP JUMP JUMPDEST PUSH0 PUSH2 0xF1D PUSH1 0x1E DUP4 PUSH2 0xA74 JUMP JUMPDEST SWAP2 POP PUSH2 0xF28 DUP3 PUSH2 0xEE9 JUMP JUMPDEST PUSH1 0x20 DUP3 ADD SWAP1 POP SWAP2 SWAP1 POP JUMP JUMPDEST PUSH0 PUSH1 0x20 DUP3 ADD SWAP1 POP DUP2 DUP2 SUB PUSH0 DUP4 ADD MSTORE PUSH2 0xF4A DUP2 PUSH2 0xF11 JUMP JUMPDEST SWAP1 POP SWAP2 SWAP1 POP JUMP JUMPDEST PUSH32 0x4E487B7100000000000000000000000000000000000000000000000000000000 PUSH0 MSTORE PUSH1 0x11 PUSH1 0x4 MSTORE PUSH1 0x24 PUSH0 REVERT JUMPDEST PUSH0 PUSH2 0xF88 DUP3 PUSH2 0x9BF JUMP JUMPDEST SWAP2 POP PUSH2 0xF93 DUP4 PUSH2 0x9BF JUMP JUMPDEST SWAP3 POP DUP3 DUP3 SUB SWAP1 POP DUP2 DUP2 GT ISZERO PUSH2 0xFAB JUMPI PUSH2 0xFAA PUSH2 0xF51 JUMP JUMPDEST JUMPDEST SWAP3 SWAP2 POP POP JUMP JUMPDEST PUSH32 0x4E487B7100000000000000000000000000000000000000000000000000000000 PUSH0 MSTORE PUSH1 0x22 PUSH1 0x4 MSTORE PUSH1 0x24 PUSH0 REVERT JUMPDEST PUSH0 PUSH1 0x2 DUP3 DIV SWAP1 POP PUSH1 0x1 DUP3 AND DUP1 PUSH2 0xFF5 JUMPI PUSH1 0x7F DUP3 AND SWAP2 POP JUMPDEST PUSH1 0x20 DUP3 LT DUP2 SUB PUSH2 0x1008 JUMPI PUSH2 0x1007 PUSH2 0xFB1 JUMP JUMPDEST JUMPDEST POP SWAP2 SWAP1 POP JUMP JUMPDEST PUSH0 PUSH2 0x1018 DUP3 PUSH2 0x9BF JUMP JUMPDEST SWAP2 POP PUSH32 0xFFFFFFFFFFFFFFFFFFFFFFFFFFFFFFFFFFFFFFFFFFFFFFFFFFFFFFFFFFFFFFFF DUP3 SUB PUSH2 0x104A JUMPI PUSH2 0x1049 PUSH2 0xF51 JUMP JUMPDEST JUMPDEST PUSH1 0x1 DUP3 ADD SWAP1 POP SWAP2 SWAP1 POP JUMP JUMPDEST PUSH0 DUP2 SWAP1 POP DUP2 PUSH0 MSTORE PUSH1 0x20 PUSH0 KECCAK256 SWAP1 POP SWAP2 SWAP1 POP JUMP JUMPDEST PUSH0 PUSH1 0x20 PUSH1 0x1F DUP4 ADD DIV SWAP1 POP SWAP2 SWAP1 POP JUMP JUMPDEST PUSH0 DUP3 DUP3 SHL SWAP1 POP SWAP3 SWAP2 POP POP JUMP JUMPDEST PUSH0 PUSH1 0x8 DUP4 MUL PUSH2 0x10B1 PUSH32 0xFFFFFFFFFFFFFFFFFFFFFFFFFFFFFFFFFFFFFFFFFFFFFFFFFFFFFFFFFFFFFFFF DUP3 PUSH2 0x1076 JUMP JUMPDEST PUSH2 0x10BB DUP7 DUP4 PUSH2 0x1076 JUMP JUMPDEST SWAP6 POP DUP1 NOT DUP5 AND SWAP4 POP DUP1 DUP7 AND DUP5 OR SWAP3 POP POP POP SWAP4 SWAP3 POP POP POP JUMP JUMPDEST PUSH0 DUP2 SWAP1 POP SWAP2 SWAP1 POP JUMP JUMPDEST PUSH0 PUSH2 0x10F6 PUSH2 0x10F1 PUSH2 0x10EC DUP5 PUSH2 0x9BF JUMP JUMPDEST PUSH2 0x10D3 JUMP JUMPDEST PUSH2 0x9BF JUMP JUMPDEST SWAP1 POP SWAP2 SWAP1 POP JUMP JUMPDEST PUSH0 DUP2 SWAP1 POP SWAP2 SWAP1 POP JUMP JUMPDEST PUSH2 0x110F DUP4 PUSH2 0x10DC JUMP JUMPDEST PUSH2 0x1123 PUSH2 0x111B DUP3 PUSH2 0x10FD JUMP JUMPDEST DUP5 DUP5 SLOAD PUSH2 0x1082 JUMP JUMPDEST DUP3 SSTORE POP POP POP POP JUMP JUMPDEST PUSH0 SWAP1 JUMP JUMPDEST PUSH2 0x1137 PUSH2 0x112B JUMP JUMPDEST PUSH2 0x1142 DUP2 DUP5 DUP5 PUSH2 0x1106 JUMP JUMPDEST POP POP POP JUMP JUMPDEST JUMPDEST DUP2 DUP2 LT ISZERO PUSH2 0x1165 JUMPI PUSH2 0x115A PUSH0 DUP3 PUSH2 0x112F JUMP JUMPDEST PUSH1 0x1 DUP2 ADD SWAP1 POP PUSH2 0x1148 JUMP JUMPDEST POP POP JUMP JUMPDEST PUSH1 0x1F DUP3 GT ISZERO PUSH2 0x11AA JUMPI PUSH2 0x117B DUP2 PUSH2 0x1055 JUMP JUMPDEST PUSH2 0x1184 DUP5 PUSH2 0x1067 JUMP JUMPDEST DUP2 ADD PUSH1 0x20 DUP6 LT ISZERO PUSH2 0x1193 JUMPI DUP2 SWAP1 POP JUMPDEST PUSH2 0x11A7 PUSH2 0x119F DUP6 PUSH2 0x1067 JUMP JUMPDEST DUP4 ADD DUP3 PUSH2 0x1147 JUMP JUMPDEST POP POP JUMPDEST POP POP POP JUMP JUMPDEST PUSH0 DUP3 DUP3 SHR SWAP1 POP SWAP3 SWAP2 POP POP JUMP JUMPDEST PUSH0 PUSH2 0x11CA PUSH0 NOT DUP5 PUSH1 0x8 MUL PUSH2 0x11AF JUMP JUMPDEST NOT DUP1 DUP4 AND SWAP2 POP POP SWAP3 SWAP2 POP POP JUMP JUMPDEST PUSH0 PUSH2 0x11E2 DUP4 DUP4 PUSH2 0x11BB JUMP JUMPDEST SWAP2 POP DUP3 PUSH1 0x2 MUL DUP3 OR SWAP1 POP SWAP3 SWAP2 POP POP JUMP JUMPDEST PUSH2 0x11FB DUP3 PUSH2 0xA6A JUMP JUMPDEST PUSH8 0xFFFFFFFFFFFFFFFF DUP2 GT ISZERO PUSH2 0x1214 JUMPI PUSH2 0x1213 PUSH2 0xB4F JUMP JUMPDEST JUMPDEST PUSH2 0x121E DUP3 SLOAD PUSH2 0xFDE JUMP JUMPDEST PUSH2 0x1229 DUP3 DUP3 DUP6 PUSH2 0x1169 JUMP JUMPDEST PUSH0 PUSH1 0x20 SWAP1 POP PUSH1 0x1F DUP4 GT PUSH1 0x1 DUP2 EQ PUSH2 0x125A JUMPI PUSH0 DUP5 ISZERO PUSH2 0x1248 JUMPI DUP3 DUP8 ADD MLOAD SWAP1 POP JUMPDEST PUSH2 0x1252 DUP6 DUP3 PUSH2 0x11D7 JUMP JUMPDEST DUP7 SSTORE POP PUSH2 0x12B9 JUMP JUMPDEST PUSH1 0x1F NOT DUP5 AND PUSH2 0x1268 DUP7 PUSH2 0x1055 JUMP JUMPDEST PUSH0 JUMPDEST DUP3 DUP2 LT ISZERO PUSH2 0x128F JUMPI DUP5 DUP10 ADD MLOAD DUP3 SSTORE PUSH1 0x1 DUP3 ADD SWAP2 POP PUSH1 0x20 DUP6 ADD SWAP5 POP PUSH1 0x20 DUP2 ADD SWAP1 POP PUSH2 0x126A JUMP JUMPDEST DUP7 DUP4 LT ISZERO PUSH2 0x12AC JUMPI DUP5 DUP10 ADD MLOAD PUSH2 0x12A8 PUSH1 0x1F DUP10 AND DUP3 PUSH2 0x11BB JUMP JUMPDEST DUP4 SSTORE POP JUMPDEST PUSH1 0x1 PUSH1 0x2 DUP9 MUL ADD DUP9 SSTORE POP POP POP JUMPDEST POP POP POP POP POP POP JUMP INVALID LOG2 PUSH5 0x6970667358 0x22 SLT KECCAK256 PUSH15 0xB1401D1D6CA1D27E086A9CC93E4FC1 CALLVALUE PUSH29 0x7D1707E4279E6037A84B2F6C4EC264736F6C634300081A003300000000 "
				},
				"gasEstimates": {
					"creation": {
						"codeDepositCost": "971000",
						"executionCost": "30276",
						"totalCost": "1001276"
					},
					"external": {
						"addMaterial(string,uint256,string)": "infinite",
						"authorizeManufacturer(address)": "26970",
						"authorizedManufacturers(address)": "2856",
						"deductMaterial(uint256,uint256)": "infinite",
						"getMaterial(uint256)": "infinite",
						"materialCount()": "2469",
						"materials(uint256)": "infinite",
						"supplier()": "2550"
					}
				},
				"methodIdentifiers": {
					"addMaterial(string,uint256,string)": "ab4c50b3",
					"authorizeManufacturer(address)": "089e1b39",
					"authorizedManufacturers(address)": "24b04245",
					"deductMaterial(uint256,uint256)": "6586b134",
					"getMaterial(uint256)": "da6d8909",
					"materialCount()": "d472f038",
					"materials(uint256)": "7a8e8526",
					"supplier()": "36da4468"
				}
			},
			"storageLayout": {
				"storage": [
					{
						"astId": 16,
						"contract": "contracts/Supplier.sol:Supplier",
						"label": "supplier",
						"offset": 0,
						"slot": "0",
						"type": "t_address"
					},
					{
						"astId": 21,
						"contract": "contracts/Supplier.sol:Supplier",
						"label": "materials",
						"offset": 0,
						"slot": "1",
						"type": "t_mapping(t_uint256,t_struct(Material)14_storage)"
					},
					{
						"astId": 24,
						"contract": "contracts/Supplier.sol:Supplier",
						"label": "materialCount",
						"offset": 0,
						"slot": "2",
						"type": "t_uint256"
					},
					{
						"astId": 28,
						"contract": "contracts/Supplier.sol:Supplier",
						"label": "authorizedManufacturers",
						"offset": 0,
						"slot": "3",
						"type": "t_mapping(t_address,t_bool)"
					}
				],
				"types": {
					"t_address": {
						"encoding": "inplace",
						"label": "address",
						"numberOfBytes": "20"
					},
					"t_bool": {
						"encoding": "inplace",
						"label": "bool",
						"numberOfBytes": "1"
					},
					"t_mapping(t_address,t_bool)": {
						"encoding": "mapping",
						"key": "t_address",
						"label": "mapping(address => bool)",
						"numberOfBytes": "32",
						"value": "t_bool"
					},
					"t_mapping(t_uint256,t_struct(Material)14_storage)": {
						"encoding": "mapping",
						"key": "t_uint256",
						"label": "mapping(uint256 => struct Supplier.Material)",
						"numberOfBytes": "32",
						"value": "t_struct(Material)14_storage"
					},
					"t_string_storage": {
						"encoding": "bytes",
						"label": "string",
						"numberOfBytes": "32"
					},
					"t_struct(Material)14_storage": {
						"encoding": "inplace",
						"label": "struct Supplier.Material",
						"members": [
							{
								"astId": 3,
								"contract": "contracts/Supplier.sol:Supplier",
								"label": "id",
								"offset": 0,
								"slot": "0",
								"type": "t_uint256"
							},
							{
								"astId": 5,
								"contract": "contracts/Supplier.sol:Supplier",
								"label": "name",
								"offset": 0,
								"slot": "1",
								"type": "t_string_storage"
							},
							{
								"astId": 7,
								"contract": "contracts/Supplier.sol:Supplier",
								"label": "quantity",
								"offset": 0,
								"slot": "2",
								"type": "t_uint256"
							},
							{
								"astId": 9,
								"contract": "contracts/Supplier.sol:Supplier",
								"label": "location",
								"offset": 0,
								"slot": "3",
								"type": "t_string_storage"
							},
							{
								"astId": 11,
								"contract": "contracts/Supplier.sol:Supplier",
								"label": "timestamp",
								"offset": 0,
								"slot": "4",
								"type": "t_uint256"
							},
							{
								"astId": 13,
								"contract": "contracts/Supplier.sol:Supplier",
								"label": "isAdded",
								"offset": 0,
								"slot": "5",
								"type": "t_bool"
							}
						],
						"numberOfBytes": "192"
					},
					"t_uint256": {
						"encoding": "inplace",
						"label": "uint256",
						"numberOfBytes": "32"
					}
				}
			},
			"userdoc": {
				"kind": "user",
				"methods": {},
				"version": 1
			}
		}
	}
}