{
	"contracts/Logistics.sol": {
		"Logistics": {
			"abi": [
				{
					"inputs": [
						{
							"internalType": "address",
							"name": "_manufacturerContract",
							"type": "address"
						}
					],
					"stateMutability": "nonpayable",
					"type": "constructor"
				},
				{
					"inputs": [
						{
							"internalType": "address",
							"name": "_retailer",
							"type": "address"
						}
					],
					"name": "authorizeRetailer",
					"outputs": [],
					"stateMutability": "nonpayable",
					"type": "function"
				},
				{
					"inputs": [
						{
							"internalType": "address",
							"name": "",
							"type": "address"
						}
					],
					"name": "authorizedRetailers",
					"outputs": [
						{
							"internalType": "bool",
							"name": "",
							"type": "bool"
						}
					],
					"stateMutability": "view",
					"type": "function"
				},
				{
					"inputs": [
						{
							"internalType": "uint256",
							"name": "_deliveryId",
							"type": "uint256"
						}
					],
					"name": "confirmDelivery",
					"outputs": [],
					"stateMutability": "nonpayable",
					"type": "function"
				},
				{
					"inputs": [
						{
							"internalType": "uint256",
							"name": "_productId",
							"type": "uint256"
						},
						{
							"internalType": "string",
							"name": "_destination",
							"type": "string"
						}
					],
					"name": "deliverProduct",
					"outputs": [],
					"stateMutability": "nonpayable",
					"type": "function"
				},
				{
					"inputs": [
						{
							"internalType": "uint256",
							"name": "",
							"type": "uint256"
						}
					],
					"name": "deliveries",
					"outputs": [
						{
							"internalType": "uint256",
							"name": "id",
							"type": "uint256"
						},
						{
							"internalType": "string",
							"name": "productName",
							"type": "string"
						},
						{
							"internalType": "uint256",
							"name": "quantity",
							"type": "uint256"
						},
						{
							"internalType": "string",
							"name": "destination",
							"type": "string"
						},
						{
							"internalType": "uint256",
							"name": "timestamp",
							"type": "uint256"
						},
						{
							"internalType": "string",
							"name": "status",
							"type": "string"
						},
						{
							"internalType": "bool",
							"name": "isDelivered",
							"type": "bool"
						}
					],
					"stateMutability": "view",
					"type": "function"
				},
				{
					"inputs": [],
					"name": "deliveryCount",
					"outputs": [
						{
							"internalType": "uint256",
							"name": "",
							"type": "uint256"
						}
					],
					"stateMutability": "view",
					"type": "function"
				},
				{
					"inputs": [],
					"name": "logisticsProvider",
					"outputs": [
						{
							"internalType": "address",
							"name": "",
							"type": "address"
						}
					],
					"stateMutability": "view",
					"type": "function"
				},
				{
					"inputs": [],
					"name": "manufacturerContract",
					"outputs": [
						{
							"internalType": "contract IManufacturer",
							"name": "",
							"type": "address"
						}
					],
					"stateMutability": "view",
					"type": "function"
				}
			],
			"devdoc": {
				"kind": "dev",
				"methods": {},
				"version": 1
			},
			"evm": {
				"assembly": "    /* \"contracts/Logistics.sol\":229:2224  contract Logistics {... */\n  mstore(0x40, 0x80)\n    /* \"contracts/Logistics.sol\":586:587  0 */\n  0x00\n    /* \"contracts/Logistics.sol\":558:587  uint public deliveryCount = 0 */\n  0x02\n  sstore\n    /* \"contracts/Logistics.sol\":1036:1198  constructor(address _manufacturerContract) {... */\n  callvalue\n  dup1\n  iszero\n  tag_1\n  jumpi\n  0x00\n  dup1\n  revert\ntag_1:\n  pop\n  mload(0x40)\n  sub(codesize, bytecodeSize)\n  dup1\n  bytecodeSize\n  dup4\n  codecopy\n  dup2\n  dup2\n  add\n  0x40\n  mstore\n  dup2\n  add\n  swap1\n  tag_2\n  swap2\n  swap1\n  tag_3\n  jump\t// in\ntag_2:\n    /* \"contracts/Logistics.sol\":1110:1120  msg.sender */\n  caller\n    /* \"contracts/Logistics.sol\":1090:1107  logisticsProvider */\n  0x00\n  dup1\n    /* \"contracts/Logistics.sol\":1090:1120  logisticsProvider = msg.sender */\n  0x0100\n  exp\n  dup2\n  sload\n  dup2\n  0xffffffffffffffffffffffffffffffffffffffff\n  mul\n  not\n  and\n  swap1\n  dup4\n  0xffffffffffffffffffffffffffffffffffffffff\n  and\n  mul\n  or\n  swap1\n  sstore\n  pop\n    /* \"contracts/Logistics.sol\":1168:1189  _manufacturerContract */\n  dup1\n    /* \"contracts/Logistics.sol\":1131:1151  manufacturerContract */\n  0x03\n  0x00\n    /* \"contracts/Logistics.sol\":1131:1190  manufacturerContract = IManufacturer(_manufacturerContract) */\n  0x0100\n  exp\n  dup2\n  sload\n  dup2\n  0xffffffffffffffffffffffffffffffffffffffff\n  mul\n  not\n  and\n  swap1\n  dup4\n  0xffffffffffffffffffffffffffffffffffffffff\n  and\n  mul\n  or\n  swap1\n  sstore\n  pop\n    /* \"contracts/Logistics.sol\":1036:1198  constructor(address _manufacturerContract) {... */\n  pop\n    /* \"contracts/Logistics.sol\":229:2224  contract Logistics {... */\n  jump(tag_6)\n    /* \"#utility.yul\":88:205   */\ntag_8:\n    /* \"#utility.yul\":197:198   */\n  0x00\n    /* \"#utility.yul\":194:195   */\n  dup1\n    /* \"#utility.yul\":187:199   */\n  revert\n    /* \"#utility.yul\":334:460   */\ntag_10:\n    /* \"#utility.yul\":371:378   */\n  0x00\n    /* \"#utility.yul\":411:453   */\n  0xffffffffffffffffffffffffffffffffffffffff\n    /* \"#utility.yul\":404:409   */\n  dup3\n    /* \"#utility.yul\":400:454   */\n  and\n    /* \"#utility.yul\":389:454   */\n  swap1\n  pop\n    /* \"#utility.yul\":334:460   */\n  swap2\n  swap1\n  pop\n  jump\t// out\n    /* \"#utility.yul\":466:562   */\ntag_11:\n    /* \"#utility.yul\":503:510   */\n  0x00\n    /* \"#utility.yul\":532:556   */\n  tag_20\n    /* \"#utility.yul\":550:555   */\n  dup3\n    /* \"#utility.yul\":532:556   */\n  tag_10\n  jump\t// in\ntag_20:\n    /* \"#utility.yul\":521:556   */\n  swap1\n  pop\n    /* \"#utility.yul\":466:562   */\n  swap2\n  swap1\n  pop\n  jump\t// out\n    /* \"#utility.yul\":568:690   */\ntag_12:\n    /* \"#utility.yul\":641:665   */\n  tag_22\n    /* \"#utility.yul\":659:664   */\n  dup2\n    /* \"#utility.yul\":641:665   */\n  tag_11\n  jump\t// in\ntag_22:\n    /* \"#utility.yul\":634:639   */\n  dup2\n    /* \"#utility.yul\":631:666   */\n  eq\n    /* \"#utility.yul\":621:684   */\n  tag_23\n  jumpi\n    /* \"#utility.yul\":680:681   */\n  0x00\n    /* \"#utility.yul\":677:678   */\n  dup1\n    /* \"#utility.yul\":670:682   */\n  revert\n    /* \"#utility.yul\":621:684   */\ntag_23:\n    /* \"#utility.yul\":568:690   */\n  pop\n  jump\t// out\n    /* \"#utility.yul\":696:839   */\ntag_13:\n    /* \"#utility.yul\":753:758   */\n  0x00\n    /* \"#utility.yul\":784:790   */\n  dup2\n    /* \"#utility.yul\":778:791   */\n  mload\n    /* \"#utility.yul\":769:791   */\n  swap1\n  pop\n    /* \"#utility.yul\":800:833   */\n  tag_25\n    /* \"#utility.yul\":827:832   */\n  dup2\n    /* \"#utility.yul\":800:833   */\n  tag_12\n  jump\t// in\ntag_25:\n    /* \"#utility.yul\":696:839   */\n  swap3\n  swap2\n  pop\n  pop\n  jump\t// out\n    /* \"#utility.yul\":845:1196   */\ntag_3:\n    /* \"#utility.yul\":915:921   */\n  0x00\n    /* \"#utility.yul\":964:966   */\n  0x20\n    /* \"#utility.yul\":952:961   */\n  dup3\n    /* \"#utility.yul\":943:950   */\n  dup5\n    /* \"#utility.yul\":939:962   */\n  sub\n    /* \"#utility.yul\":935:967   */\n  slt\n    /* \"#utility.yul\":932:1051   */\n  iszero\n  tag_27\n  jumpi\n    /* \"#utility.yul\":970:1049   */\n  tag_28\n  tag_8\n  jump\t// in\ntag_28:\n    /* \"#utility.yul\":932:1051   */\ntag_27:\n    /* \"#utility.yul\":1090:1091   */\n  0x00\n    /* \"#utility.yul\":1115:1179   */\n  tag_29\n    /* \"#utility.yul\":1171:1178   */\n  dup5\n    /* \"#utility.yul\":1162:1168   */\n  dup3\n    /* \"#utility.yul\":1151:1160   */\n  dup6\n    /* \"#utility.yul\":1147:1169   */\n  add\n    /* \"#utility.yul\":1115:1179   */\n  tag_13\n  jump\t// in\ntag_29:\n    /* \"#utility.yul\":1105:1179   */\n  swap2\n  pop\n    /* \"#utility.yul\":1061:1189   */\n  pop\n    /* \"#utility.yul\":845:1196   */\n  swap3\n  swap2\n  pop\n  pop\n  jump\t// out\n    /* \"contracts/Logistics.sol\":229:2224  contract Logistics {... */\ntag_6:\n  dataSize(sub_0)\n  dup1\n  dataOffset(sub_0)\n  0x00\n  codecopy\n  0x00\n  return\nstop\n\nsub_0: assembly {\n        /* \"contracts/Logistics.sol\":229:2224  contract Logistics {... */\n      mstore(0x40, 0x80)\n      callvalue\n      dup1\n      iszero\n      tag_1\n      jumpi\n      0x00\n      dup1\n      revert\n    tag_1:\n      pop\n      jumpi(tag_2, lt(calldatasize, 0x04))\n      shr(0xe0, calldataload(0x00))\n      dup1\n      0xa9e4a324\n      gt\n      tag_11\n      jumpi\n      dup1\n      0xa9e4a324\n      eq\n      tag_7\n      jumpi\n      dup1\n      0xb11168ec\n      eq\n      tag_8\n      jumpi\n      dup1\n      0xba2fe9b7\n      eq\n      tag_9\n      jumpi\n      dup1\n      0xfd84cb97\n      eq\n      tag_10\n      jumpi\n      jump(tag_2)\n    tag_11:\n      dup1\n      0x5b77b6a6\n      eq\n      tag_3\n      jumpi\n      dup1\n      0x8ca5ded1\n      eq\n      tag_4\n      jumpi\n      dup1\n      0x9369d880\n      eq\n      tag_5\n      jumpi\n      dup1\n      0xa3d8a331\n      eq\n      tag_6\n      jumpi\n    tag_2:\n      0x00\n      dup1\n      revert\n        /* \"contracts/Logistics.sol\":558:587  uint public deliveryCount = 0 */\n    tag_3:\n      tag_12\n      tag_13\n      jump\t// in\n    tag_12:\n      mload(0x40)\n      tag_14\n      swap2\n      swap1\n      tag_15\n      jump\t// in\n    tag_14:\n      mload(0x40)\n      dup1\n      swap2\n      sub\n      swap1\n      return\n        /* \"contracts/Logistics.sol\":2090:2221  function authorizeRetailer(address _retailer) public onlyLogisticsProvider {... */\n    tag_4:\n      tag_16\n      0x04\n      dup1\n      calldatasize\n      sub\n      dup2\n      add\n      swap1\n      tag_17\n      swap2\n      swap1\n      tag_18\n      jump\t// in\n    tag_17:\n      tag_19\n      jump\t// in\n    tag_16:\n      stop\n        /* \"contracts/Logistics.sol\":642:693  mapping(address => bool) public authorizedRetailers */\n    tag_5:\n      tag_20\n      0x04\n      dup1\n      calldatasize\n      sub\n      dup2\n      add\n      swap1\n      tag_21\n      swap2\n      swap1\n      tag_18\n      jump\t// in\n    tag_21:\n      tag_22\n      jump\t// in\n    tag_20:\n      mload(0x40)\n      tag_23\n      swap2\n      swap1\n      tag_24\n      jump\t// in\n    tag_23:\n      mload(0x40)\n      dup1\n      swap2\n      sub\n      swap1\n      return\n        /* \"contracts/Logistics.sol\":1206:1789  function deliverProduct(uint _productId, string memory _destination) public onlyLogisticsProvider {... */\n    tag_6:\n      tag_25\n      0x04\n      dup1\n      calldatasize\n      sub\n      dup2\n      add\n      swap1\n      tag_26\n      swap2\n      swap1\n      tag_27\n      jump\t// in\n    tag_26:\n      tag_28\n      jump\t// in\n    tag_25:\n      stop\n        /* \"contracts/Logistics.sol\":508:551  mapping(uint => Delivery) public deliveries */\n    tag_7:\n      tag_29\n      0x04\n      dup1\n      calldatasize\n      sub\n      dup2\n      add\n      swap1\n      tag_30\n      swap2\n      swap1\n      tag_31\n      jump\t// in\n    tag_30:\n      tag_32\n      jump\t// in\n    tag_29:\n      mload(0x40)\n      tag_33\n      swap8\n      swap7\n      swap6\n      swap5\n      swap4\n      swap3\n      swap2\n      swap1\n      tag_34\n      jump\t// in\n    tag_33:\n      mload(0x40)\n      dup1\n      swap2\n      sub\n      swap1\n      return\n        /* \"contracts/Logistics.sol\":594:635  IManufacturer public manufacturerContract */\n    tag_8:\n      tag_35\n      tag_36\n      jump\t// in\n    tag_35:\n      mload(0x40)\n      tag_37\n      swap2\n      swap1\n      tag_38\n      jump\t// in\n    tag_37:\n      mload(0x40)\n      dup1\n      swap2\n      sub\n      swap1\n      return\n        /* \"contracts/Logistics.sol\":469:501  address public logisticsProvider */\n    tag_9:\n      tag_39\n      tag_40\n      jump\t// in\n    tag_39:\n      mload(0x40)\n      tag_41\n      swap2\n      swap1\n      tag_42\n      jump\t// in\n    tag_41:\n      mload(0x40)\n      dup1\n      swap2\n      sub\n      swap1\n      return\n        /* \"contracts/Logistics.sol\":1797:2082  function confirmDelivery(uint _deliveryId) public onlyAuthorizedRetailer {... */\n    tag_10:\n      tag_43\n      0x04\n      dup1\n      calldatasize\n      sub\n      dup2\n      add\n      swap1\n      tag_44\n      swap2\n      swap1\n      tag_31\n      jump\t// in\n    tag_44:\n      tag_45\n      jump\t// in\n    tag_43:\n      stop\n        /* \"contracts/Logistics.sol\":558:587  uint public deliveryCount = 0 */\n    tag_13:\n      sload(0x02)\n      dup2\n      jump\t// out\n        /* \"contracts/Logistics.sol\":2090:2221  function authorizeRetailer(address _retailer) public onlyLogisticsProvider {... */\n    tag_19:\n        /* \"contracts/Logistics.sol\":768:785  logisticsProvider */\n      0x00\n      dup1\n      sload\n      swap1\n      0x0100\n      exp\n      swap1\n      div\n      0xffffffffffffffffffffffffffffffffffffffff\n      and\n        /* \"contracts/Logistics.sol\":754:785  msg.sender == logisticsProvider */\n      0xffffffffffffffffffffffffffffffffffffffff\n      and\n        /* \"contracts/Logistics.sol\":754:764  msg.sender */\n      caller\n        /* \"contracts/Logistics.sol\":754:785  msg.sender == logisticsProvider */\n      0xffffffffffffffffffffffffffffffffffffffff\n      and\n      eq\n        /* \"contracts/Logistics.sol\":746:841  require(msg.sender == logisticsProvider, \"Only the logistics provider can perform this action\") */\n      tag_47\n      jumpi\n      mload(0x40)\n      0x08c379a000000000000000000000000000000000000000000000000000000000\n      dup2\n      mstore\n      0x04\n      add\n      tag_48\n      swap1\n      tag_49\n      jump\t// in\n    tag_48:\n      mload(0x40)\n      dup1\n      swap2\n      sub\n      swap1\n      revert\n    tag_47:\n        /* \"contracts/Logistics.sol\":2209:2213  true */\n      0x01\n        /* \"contracts/Logistics.sol\":2176:2195  authorizedRetailers */\n      0x04\n        /* \"contracts/Logistics.sol\":2176:2206  authorizedRetailers[_retailer] */\n      0x00\n        /* \"contracts/Logistics.sol\":2196:2205  _retailer */\n      dup4\n        /* \"contracts/Logistics.sol\":2176:2206  authorizedRetailers[_retailer] */\n      0xffffffffffffffffffffffffffffffffffffffff\n      and\n      0xffffffffffffffffffffffffffffffffffffffff\n      and\n      dup2\n      mstore\n      0x20\n      add\n      swap1\n      dup2\n      mstore\n      0x20\n      add\n      0x00\n      keccak256\n      0x00\n        /* \"contracts/Logistics.sol\":2176:2213  authorizedRetailers[_retailer] = true */\n      0x0100\n      exp\n      dup2\n      sload\n      dup2\n      0xff\n      mul\n      not\n      and\n      swap1\n      dup4\n      iszero\n      iszero\n      mul\n      or\n      swap1\n      sstore\n      pop\n        /* \"contracts/Logistics.sol\":2090:2221  function authorizeRetailer(address _retailer) public onlyLogisticsProvider {... */\n      pop\n      jump\t// out\n        /* \"contracts/Logistics.sol\":642:693  mapping(address => bool) public authorizedRetailers */\n    tag_22:\n      mstore(0x20, 0x04)\n      dup1\n      0x00\n      mstore\n      keccak256(0x00, 0x40)\n      0x00\n      swap2\n      pop\n      sload\n      swap1\n      0x0100\n      exp\n      swap1\n      div\n      0xff\n      and\n      dup2\n      jump\t// out\n        /* \"contracts/Logistics.sol\":1206:1789  function deliverProduct(uint _productId, string memory _destination) public onlyLogisticsProvider {... */\n    tag_28:\n        /* \"contracts/Logistics.sol\":768:785  logisticsProvider */\n      0x00\n      dup1\n      sload\n      swap1\n      0x0100\n      exp\n      swap1\n      div\n      0xffffffffffffffffffffffffffffffffffffffff\n      and\n        /* \"contracts/Logistics.sol\":754:785  msg.sender == logisticsProvider */\n      0xffffffffffffffffffffffffffffffffffffffff\n      and\n        /* \"contracts/Logistics.sol\":754:764  msg.sender */\n      caller\n        /* \"contracts/Logistics.sol\":754:785  msg.sender == logisticsProvider */\n      0xffffffffffffffffffffffffffffffffffffffff\n      and\n      eq\n        /* \"contracts/Logistics.sol\":746:841  require(msg.sender == logisticsProvider, \"Only the logistics provider can perform this action\") */\n      tag_52\n      jumpi\n      mload(0x40)\n      0x08c379a000000000000000000000000000000000000000000000000000000000\n      dup2\n      mstore\n      0x04\n      add\n      tag_53\n      swap1\n      tag_49\n      jump\t// in\n    tag_53:\n      mload(0x40)\n      dup1\n      swap2\n      sub\n      swap1\n      revert\n    tag_52:\n        /* \"contracts/Logistics.sol\":1368:1393  string memory productName */\n      0x00\n        /* \"contracts/Logistics.sol\":1395:1411  uint256 quantity */\n      dup1\n        /* \"contracts/Logistics.sol\":1414:1431  uint256 timestamp */\n      0x00\n        /* \"contracts/Logistics.sol\":1433:1453  string memory status */\n      dup1\n        /* \"contracts/Logistics.sol\":1457:1477  manufacturerContract */\n      0x03\n      0x00\n      swap1\n      sload\n      swap1\n      0x0100\n      exp\n      swap1\n      div\n      0xffffffffffffffffffffffffffffffffffffffff\n      and\n        /* \"contracts/Logistics.sol\":1457:1488  manufacturerContract.getProduct */\n      0xffffffffffffffffffffffffffffffffffffffff\n      and\n      0xb9db15b4\n        /* \"contracts/Logistics.sol\":1489:1499  _productId */\n      dup8\n        /* \"contracts/Logistics.sol\":1457:1500  manufacturerContract.getProduct(_productId) */\n      mload(0x40)\n      dup3\n      0xffffffff\n      and\n      0xe0\n      shl\n      dup2\n      mstore\n      0x04\n      add\n      tag_55\n      swap2\n      swap1\n      tag_15\n      jump\t// in\n    tag_55:\n      0x00\n      mload(0x40)\n      dup1\n      dup4\n      sub\n      dup2\n      dup7\n      gas\n      staticcall\n      iszero\n      dup1\n      iszero\n      tag_57\n      jumpi\n      returndatasize\n      0x00\n      dup1\n      returndatacopy\n      revert(0x00, returndatasize)\n    tag_57:\n      pop\n      pop\n      pop\n      pop\n      mload(0x40)\n      returndatasize\n      0x00\n      dup3\n      returndatacopy\n      returndatasize\n      not(0x1f)\n      0x1f\n      dup3\n      add\n      and\n      dup3\n      add\n      dup1\n      0x40\n      mstore\n      pop\n      dup2\n      add\n      swap1\n      tag_58\n      swap2\n      swap1\n      tag_59\n      jump\t// in\n    tag_58:\n        /* \"contracts/Logistics.sol\":1367:1500  (string memory productName, uint256 quantity,,,uint256 timestamp, string memory status) = manufacturerContract.getProduct(_productId) */\n      swap6\n      pop\n      swap6\n      pop\n      pop\n      pop\n      swap4\n      pop\n      swap4\n      pop\n        /* \"contracts/Logistics.sol\":1559:1580  bytes(\"Manufactured\") */\n      mload(0x40)\n      dup1\n      0x40\n      add\n      0x40\n      mstore\n      dup1\n      0x0c\n      dup2\n      mstore\n      0x20\n      add\n      0x4d616e7566616374757265640000000000000000000000000000000000000000\n      dup2\n      mstore\n      pop\n        /* \"contracts/Logistics.sol\":1549:1581  keccak256(bytes(\"Manufactured\")) */\n      dup1\n      mload\n      swap1\n      0x20\n      add\n      keccak256\n        /* \"contracts/Logistics.sol\":1537:1543  status */\n      dup2\n        /* \"contracts/Logistics.sol\":1521:1545  keccak256(bytes(status)) */\n      dup1\n      mload\n      swap1\n      0x20\n      add\n      keccak256\n        /* \"contracts/Logistics.sol\":1521:1581  keccak256(bytes(status)) == keccak256(bytes(\"Manufactured\")) */\n      eq\n        /* \"contracts/Logistics.sol\":1513:1616  require(keccak256(bytes(status)) == keccak256(bytes(\"Manufactured\")), \"Product not ready for delivery\") */\n      tag_60\n      jumpi\n      mload(0x40)\n      0x08c379a000000000000000000000000000000000000000000000000000000000\n      dup2\n      mstore\n      0x04\n      add\n      tag_61\n      swap1\n      tag_62\n      jump\t// in\n    tag_61:\n      mload(0x40)\n      dup1\n      swap2\n      sub\n      swap1\n      revert\n    tag_60:\n        /* \"contracts/Logistics.sol\":1629:1642  deliveryCount */\n      0x02\n      0x00\n        /* \"contracts/Logistics.sol\":1629:1644  deliveryCount++ */\n      dup2\n      sload\n      dup1\n      swap3\n      swap2\n      swap1\n      tag_63\n      swap1\n      tag_64\n      jump\t// in\n    tag_63:\n      swap2\n      swap1\n      pop\n      sstore\n      pop\n        /* \"contracts/Logistics.sol\":1683:1781  Delivery(deliveryCount, productName, quantity, _destination, block.timestamp, \"In Transit\", false) */\n      mload(0x40)\n      dup1\n      0xe0\n      add\n      0x40\n      mstore\n      dup1\n        /* \"contracts/Logistics.sol\":1692:1705  deliveryCount */\n      sload(0x02)\n        /* \"contracts/Logistics.sol\":1683:1781  Delivery(deliveryCount, productName, quantity, _destination, block.timestamp, \"In Transit\", false) */\n      dup2\n      mstore\n      0x20\n      add\n        /* \"contracts/Logistics.sol\":1707:1718  productName */\n      dup6\n        /* \"contracts/Logistics.sol\":1683:1781  Delivery(deliveryCount, productName, quantity, _destination, block.timestamp, \"In Transit\", false) */\n      dup2\n      mstore\n      0x20\n      add\n        /* \"contracts/Logistics.sol\":1720:1728  quantity */\n      dup5\n        /* \"contracts/Logistics.sol\":1683:1781  Delivery(deliveryCount, productName, quantity, _destination, block.timestamp, \"In Transit\", false) */\n      dup2\n      mstore\n      0x20\n      add\n        /* \"contracts/Logistics.sol\":1730:1742  _destination */\n      dup7\n        /* \"contracts/Logistics.sol\":1683:1781  Delivery(deliveryCount, productName, quantity, _destination, block.timestamp, \"In Transit\", false) */\n      dup2\n      mstore\n      0x20\n      add\n        /* \"contracts/Logistics.sol\":1744:1759  block.timestamp */\n      timestamp\n        /* \"contracts/Logistics.sol\":1683:1781  Delivery(deliveryCount, productName, quantity, _destination, block.timestamp, \"In Transit\", false) */\n      dup2\n      mstore\n      0x20\n      add\n      mload(0x40)\n      dup1\n      0x40\n      add\n      0x40\n      mstore\n      dup1\n      0x0a\n      dup2\n      mstore\n      0x20\n      add\n      0x496e205472616e73697400000000000000000000000000000000000000000000\n      dup2\n      mstore\n      pop\n      dup2\n      mstore\n      0x20\n      add\n        /* \"contracts/Logistics.sol\":1775:1780  false */\n      0x00\n        /* \"contracts/Logistics.sol\":1683:1781  Delivery(deliveryCount, productName, quantity, _destination, block.timestamp, \"In Transit\", false) */\n      iszero\n      iszero\n      dup2\n      mstore\n      pop\n        /* \"contracts/Logistics.sol\":1655:1665  deliveries */\n      0x01\n        /* \"contracts/Logistics.sol\":1655:1680  deliveries[deliveryCount] */\n      0x00\n        /* \"contracts/Logistics.sol\":1666:1679  deliveryCount */\n      sload(0x02)\n        /* \"contracts/Logistics.sol\":1655:1680  deliveries[deliveryCount] */\n      dup2\n      mstore\n      0x20\n      add\n      swap1\n      dup2\n      mstore\n      0x20\n      add\n      0x00\n      keccak256\n        /* \"contracts/Logistics.sol\":1655:1781  deliveries[deliveryCount] = Delivery(deliveryCount, productName, quantity, _destination, block.timestamp, \"In Transit\", false) */\n      0x00\n      dup3\n      add\n      mload\n      dup2\n      0x00\n      add\n      sstore\n      0x20\n      dup3\n      add\n      mload\n      dup2\n      0x01\n      add\n      swap1\n      dup2\n      tag_65\n      swap2\n      swap1\n      tag_66\n      jump\t// in\n    tag_65:\n      pop\n      0x40\n      dup3\n      add\n      mload\n      dup2\n      0x02\n      add\n      sstore\n      0x60\n      dup3\n      add\n      mload\n      dup2\n      0x03\n      add\n      swap1\n      dup2\n      tag_67\n      swap2\n      swap1\n      tag_66\n      jump\t// in\n    tag_67:\n      pop\n      0x80\n      dup3\n      add\n      mload\n      dup2\n      0x04\n      add\n      sstore\n      0xa0\n      dup3\n      add\n      mload\n      dup2\n      0x05\n      add\n      swap1\n      dup2\n      tag_68\n      swap2\n      swap1\n      tag_66\n      jump\t// in\n    tag_68:\n      pop\n      0xc0\n      dup3\n      add\n      mload\n      dup2\n      0x06\n      add\n      exp(0x0100, 0x00)\n      dup2\n      sload\n      dup2\n      0xff\n      mul\n      not\n      and\n      swap1\n      dup4\n      iszero\n      iszero\n      mul\n      or\n      swap1\n      sstore\n      pop\n      swap1\n      pop\n      pop\n        /* \"contracts/Logistics.sol\":1304:1789  {... */\n      pop\n      pop\n      pop\n      pop\n        /* \"contracts/Logistics.sol\":1206:1789  function deliverProduct(uint _productId, string memory _destination) public onlyLogisticsProvider {... */\n      pop\n      pop\n      jump\t// out\n        /* \"contracts/Logistics.sol\":508:551  mapping(uint => Delivery) public deliveries */\n    tag_32:\n      mstore(0x20, 0x01)\n      dup1\n      0x00\n      mstore\n      keccak256(0x00, 0x40)\n      0x00\n      swap2\n      pop\n      swap1\n      pop\n      dup1\n      0x00\n      add\n      sload\n      swap1\n      dup1\n      0x01\n      add\n      dup1\n      sload\n      tag_69\n      swap1\n      tag_70\n      jump\t// in\n    tag_69:\n      dup1\n      0x1f\n      add\n      0x20\n      dup1\n      swap2\n      div\n      mul\n      0x20\n      add\n      mload(0x40)\n      swap1\n      dup2\n      add\n      0x40\n      mstore\n      dup1\n      swap3\n      swap2\n      swap1\n      dup2\n      dup2\n      mstore\n      0x20\n      add\n      dup3\n      dup1\n      sload\n      tag_71\n      swap1\n      tag_70\n      jump\t// in\n    tag_71:\n      dup1\n      iszero\n      tag_72\n      jumpi\n      dup1\n      0x1f\n      lt\n      tag_73\n      jumpi\n      0x0100\n      dup1\n      dup4\n      sload\n      div\n      mul\n      dup4\n      mstore\n      swap2\n      0x20\n      add\n      swap2\n      jump(tag_72)\n    tag_73:\n      dup3\n      add\n      swap2\n      swap1\n      0x00\n      mstore\n      keccak256(0x00, 0x20)\n      swap1\n    tag_74:\n      dup2\n      sload\n      dup2\n      mstore\n      swap1\n      0x01\n      add\n      swap1\n      0x20\n      add\n      dup1\n      dup4\n      gt\n      tag_74\n      jumpi\n      dup3\n      swap1\n      sub\n      0x1f\n      and\n      dup3\n      add\n      swap2\n    tag_72:\n      pop\n      pop\n      pop\n      pop\n      pop\n      swap1\n      dup1\n      0x02\n      add\n      sload\n      swap1\n      dup1\n      0x03\n      add\n      dup1\n      sload\n      tag_75\n      swap1\n      tag_70\n      jump\t// in\n    tag_75:\n      dup1\n      0x1f\n      add\n      0x20\n      dup1\n      swap2\n      div\n      mul\n      0x20\n      add\n      mload(0x40)\n      swap1\n      dup2\n      add\n      0x40\n      mstore\n      dup1\n      swap3\n      swap2\n      swap1\n      dup2\n      dup2\n      mstore\n      0x20\n      add\n      dup3\n      dup1\n      sload\n      tag_76\n      swap1\n      tag_70\n      jump\t// in\n    tag_76:\n      dup1\n      iszero\n      tag_77\n      jumpi\n      dup1\n      0x1f\n      lt\n      tag_78\n      jumpi\n      0x0100\n      dup1\n      dup4\n      sload\n      div\n      mul\n      dup4\n      mstore\n      swap2\n      0x20\n      add\n      swap2\n      jump(tag_77)\n    tag_78:\n      dup3\n      add\n      swap2\n      swap1\n      0x00\n      mstore\n      keccak256(0x00, 0x20)\n      swap1\n    tag_79:\n      dup2\n      sload\n      dup2\n      mstore\n      swap1\n      0x01\n      add\n      swap1\n      0x20\n      add\n      dup1\n      dup4\n      gt\n      tag_79\n      jumpi\n      dup3\n      swap1\n      sub\n      0x1f\n      and\n      dup3\n      add\n      swap2\n    tag_77:\n      pop\n      pop\n      pop\n      pop\n      pop\n      swap1\n      dup1\n      0x04\n      add\n      sload\n      swap1\n      dup1\n      0x05\n      add\n      dup1\n      sload\n      tag_80\n      swap1\n      tag_70\n      jump\t// in\n    tag_80:\n      dup1\n      0x1f\n      add\n      0x20\n      dup1\n      swap2\n      div\n      mul\n      0x20\n      add\n      mload(0x40)\n      swap1\n      dup2\n      add\n      0x40\n      mstore\n      dup1\n      swap3\n      swap2\n      swap1\n      dup2\n      dup2\n      mstore\n      0x20\n      add\n      dup3\n      dup1\n      sload\n      tag_81\n      swap1\n      tag_70\n      jump\t// in\n    tag_81:\n      dup1\n      iszero\n      tag_82\n      jumpi\n      dup1\n      0x1f\n      lt\n      tag_83\n      jumpi\n      0x0100\n      dup1\n      dup4\n      sload\n      div\n      mul\n      dup4\n      mstore\n      swap2\n      0x20\n      add\n      swap2\n      jump(tag_82)\n    tag_83:\n      dup3\n      add\n      swap2\n      swap1\n      0x00\n      mstore\n      keccak256(0x00, 0x20)\n      swap1\n    tag_84:\n      dup2\n      sload\n      dup2\n      mstore\n      swap1\n      0x01\n      add\n      swap1\n      0x20\n      add\n      dup1\n      dup4\n      gt\n      tag_84\n      jumpi\n      dup3\n      swap1\n      sub\n      0x1f\n      and\n      dup3\n      add\n      swap2\n    tag_82:\n      pop\n      pop\n      pop\n      pop\n      pop\n      swap1\n      dup1\n      0x06\n      add\n      0x00\n      swap1\n      sload\n      swap1\n      0x0100\n      exp\n      swap1\n      div\n      0xff\n      and\n      swap1\n      pop\n      dup8\n      jump\t// out\n        /* \"contracts/Logistics.sol\":594:635  IManufacturer public manufacturerContract */\n    tag_36:\n      0x03\n      0x00\n      swap1\n      sload\n      swap1\n      0x0100\n      exp\n      swap1\n      div\n      0xffffffffffffffffffffffffffffffffffffffff\n      and\n      dup2\n      jump\t// out\n        /* \"contracts/Logistics.sol\":469:501  address public logisticsProvider */\n    tag_40:\n      0x00\n      dup1\n      sload\n      swap1\n      0x0100\n      exp\n      swap1\n      div\n      0xffffffffffffffffffffffffffffffffffffffff\n      and\n      dup2\n      jump\t// out\n        /* \"contracts/Logistics.sol\":1797:2082  function confirmDelivery(uint _deliveryId) public onlyAuthorizedRetailer {... */\n    tag_45:\n        /* \"contracts/Logistics.sol\":922:941  authorizedRetailers */\n      0x04\n        /* \"contracts/Logistics.sol\":922:953  authorizedRetailers[msg.sender] */\n      0x00\n        /* \"contracts/Logistics.sol\":942:952  msg.sender */\n      caller\n        /* \"contracts/Logistics.sol\":922:953  authorizedRetailers[msg.sender] */\n      0xffffffffffffffffffffffffffffffffffffffff\n      and\n      0xffffffffffffffffffffffffffffffffffffffff\n      and\n      dup2\n      mstore\n      0x20\n      add\n      swap1\n      dup2\n      mstore\n      0x20\n      add\n      0x00\n      keccak256\n      0x00\n      swap1\n      sload\n      swap1\n      0x0100\n      exp\n      swap1\n      div\n      0xff\n      and\n        /* \"contracts/Logistics.sol\":914:1008  require(authorizedRetailers[msg.sender], \"Only authorized retailers can confirm the delivery\") */\n      tag_86\n      jumpi\n      mload(0x40)\n      0x08c379a000000000000000000000000000000000000000000000000000000000\n      dup2\n      mstore\n      0x04\n      add\n      tag_87\n      swap1\n      tag_88\n      jump\t// in\n    tag_87:\n      mload(0x40)\n      dup1\n      swap2\n      sub\n      swap1\n      revert\n    tag_86:\n        /* \"contracts/Logistics.sol\":1928:1933  false */\n      0x00\n        /* \"contracts/Logistics.sol\":1889:1933  deliveries[_deliveryId].isDelivered == false */\n      iszero\n      iszero\n        /* \"contracts/Logistics.sol\":1889:1899  deliveries */\n      0x01\n        /* \"contracts/Logistics.sol\":1889:1912  deliveries[_deliveryId] */\n      0x00\n        /* \"contracts/Logistics.sol\":1900:1911  _deliveryId */\n      dup4\n        /* \"contracts/Logistics.sol\":1889:1912  deliveries[_deliveryId] */\n      dup2\n      mstore\n      0x20\n      add\n      swap1\n      dup2\n      mstore\n      0x20\n      add\n      0x00\n      keccak256\n        /* \"contracts/Logistics.sol\":1889:1924  deliveries[_deliveryId].isDelivered */\n      0x06\n      add\n      0x00\n      swap1\n      sload\n      swap1\n      0x0100\n      exp\n      swap1\n      div\n      0xff\n      and\n        /* \"contracts/Logistics.sol\":1889:1933  deliveries[_deliveryId].isDelivered == false */\n      iszero\n      iszero\n      eq\n        /* \"contracts/Logistics.sol\":1881:1964  require(deliveries[_deliveryId].isDelivered == false, \"Delivery already confirmed\") */\n      tag_90\n      jumpi\n      mload(0x40)\n      0x08c379a000000000000000000000000000000000000000000000000000000000\n      dup2\n      mstore\n      0x04\n      add\n      tag_91\n      swap1\n      tag_92\n      jump\t// in\n    tag_91:\n      mload(0x40)\n      dup1\n      swap2\n      sub\n      swap1\n      revert\n    tag_90:\n        /* \"contracts/Logistics.sol\":2015:2019  true */\n      0x01\n        /* \"contracts/Logistics.sol\":1977:1987  deliveries */\n      dup1\n        /* \"contracts/Logistics.sol\":1977:2000  deliveries[_deliveryId] */\n      0x00\n        /* \"contracts/Logistics.sol\":1988:1999  _deliveryId */\n      dup4\n        /* \"contracts/Logistics.sol\":1977:2000  deliveries[_deliveryId] */\n      dup2\n      mstore\n      0x20\n      add\n      swap1\n      dup2\n      mstore\n      0x20\n      add\n      0x00\n      keccak256\n        /* \"contracts/Logistics.sol\":1977:2012  deliveries[_deliveryId].isDelivered */\n      0x06\n      add\n      0x00\n        /* \"contracts/Logistics.sol\":1977:2019  deliveries[_deliveryId].isDelivered = true */\n      0x0100\n      exp\n      dup2\n      sload\n      dup2\n      0xff\n      mul\n      not\n      and\n      swap1\n      dup4\n      iszero\n      iszero\n      mul\n      or\n      swap1\n      sstore\n      pop\n        /* \"contracts/Logistics.sol\":2030:2074  deliveries[_deliveryId].status = \"Delivered\" */\n      mload(0x40)\n      dup1\n      0x40\n      add\n      0x40\n      mstore\n      dup1\n      0x09\n      dup2\n      mstore\n      0x20\n      add\n      0x44656c6976657265640000000000000000000000000000000000000000000000\n      dup2\n      mstore\n      pop\n        /* \"contracts/Logistics.sol\":2030:2040  deliveries */\n      0x01\n        /* \"contracts/Logistics.sol\":2030:2053  deliveries[_deliveryId] */\n      0x00\n        /* \"contracts/Logistics.sol\":2041:2052  _deliveryId */\n      dup4\n        /* \"contracts/Logistics.sol\":2030:2053  deliveries[_deliveryId] */\n      dup2\n      mstore\n      0x20\n      add\n      swap1\n      dup2\n      mstore\n      0x20\n      add\n      0x00\n      keccak256\n        /* \"contracts/Logistics.sol\":2030:2060  deliveries[_deliveryId].status */\n      0x05\n      add\n        /* \"contracts/Logistics.sol\":2030:2074  deliveries[_deliveryId].status = \"Delivered\" */\n      swap1\n      dup2\n      tag_93\n      swap2\n      swap1\n      tag_66\n      jump\t// in\n    tag_93:\n      pop\n        /* \"contracts/Logistics.sol\":1797:2082  function confirmDelivery(uint _deliveryId) public onlyAuthorizedRetailer {... */\n      pop\n      jump\t// out\n        /* \"#utility.yul\":7:84   */\n    tag_94:\n        /* \"#utility.yul\":44:51   */\n      0x00\n        /* \"#utility.yul\":73:78   */\n      dup2\n        /* \"#utility.yul\":62:78   */\n      swap1\n      pop\n        /* \"#utility.yul\":7:84   */\n      swap2\n      swap1\n      pop\n      jump\t// out\n        /* \"#utility.yul\":90:208   */\n    tag_95:\n        /* \"#utility.yul\":177:201   */\n      tag_157\n        /* \"#utility.yul\":195:200   */\n      dup2\n        /* \"#utility.yul\":177:201   */\n      tag_94\n      jump\t// in\n    tag_157:\n        /* \"#utility.yul\":172:175   */\n      dup3\n        /* \"#utility.yul\":165:202   */\n      mstore\n        /* \"#utility.yul\":90:208   */\n      pop\n      pop\n      jump\t// out\n        /* \"#utility.yul\":214:436   */\n    tag_15:\n        /* \"#utility.yul\":307:311   */\n      0x00\n        /* \"#utility.yul\":345:347   */\n      0x20\n        /* \"#utility.yul\":334:343   */\n      dup3\n        /* \"#utility.yul\":330:348   */\n      add\n        /* \"#utility.yul\":322:348   */\n      swap1\n      pop\n        /* \"#utility.yul\":358:429   */\n      tag_159\n        /* \"#utility.yul\":426:427   */\n      0x00\n        /* \"#utility.yul\":415:424   */\n      dup4\n        /* \"#utility.yul\":411:428   */\n      add\n        /* \"#utility.yul\":402:408   */\n      dup5\n        /* \"#utility.yul\":358:429   */\n      tag_95\n      jump\t// in\n    tag_159:\n        /* \"#utility.yul\":214:436   */\n      swap3\n      swap2\n      pop\n      pop\n      jump\t// out\n        /* \"#utility.yul\":442:517   */\n    tag_96:\n        /* \"#utility.yul\":475:481   */\n      0x00\n        /* \"#utility.yul\":508:510   */\n      0x40\n        /* \"#utility.yul\":502:511   */\n      mload\n        /* \"#utility.yul\":492:511   */\n      swap1\n      pop\n        /* \"#utility.yul\":442:517   */\n      swap1\n      jump\t// out\n        /* \"#utility.yul\":523:640   */\n    tag_97:\n        /* \"#utility.yul\":632:633   */\n      0x00\n        /* \"#utility.yul\":629:630   */\n      dup1\n        /* \"#utility.yul\":622:634   */\n      revert\n        /* \"#utility.yul\":646:763   */\n    tag_98:\n        /* \"#utility.yul\":755:756   */\n      0x00\n        /* \"#utility.yul\":752:753   */\n      dup1\n        /* \"#utility.yul\":745:757   */\n      revert\n        /* \"#utility.yul\":769:895   */\n    tag_99:\n        /* \"#utility.yul\":806:813   */\n      0x00\n        /* \"#utility.yul\":846:888   */\n      0xffffffffffffffffffffffffffffffffffffffff\n        /* \"#utility.yul\":839:844   */\n      dup3\n        /* \"#utility.yul\":835:889   */\n      and\n        /* \"#utility.yul\":824:889   */\n      swap1\n      pop\n        /* \"#utility.yul\":769:895   */\n      swap2\n      swap1\n      pop\n      jump\t// out\n        /* \"#utility.yul\":901:997   */\n    tag_100:\n        /* \"#utility.yul\":938:945   */\n      0x00\n        /* \"#utility.yul\":967:991   */\n      tag_165\n        /* \"#utility.yul\":985:990   */\n      dup3\n        /* \"#utility.yul\":967:991   */\n      tag_99\n      jump\t// in\n    tag_165:\n        /* \"#utility.yul\":956:991   */\n      swap1\n      pop\n        /* \"#utility.yul\":901:997   */\n      swap2\n      swap1\n      pop\n      jump\t// out\n        /* \"#utility.yul\":1003:1125   */\n    tag_101:\n        /* \"#utility.yul\":1076:1100   */\n      tag_167\n        /* \"#utility.yul\":1094:1099   */\n      dup2\n        /* \"#utility.yul\":1076:1100   */\n      tag_100\n      jump\t// in\n    tag_167:\n        /* \"#utility.yul\":1069:1074   */\n      dup2\n        /* \"#utility.yul\":1066:1101   */\n      eq\n        /* \"#utility.yul\":1056:1119   */\n      tag_168\n      jumpi\n        /* \"#utility.yul\":1115:1116   */\n      0x00\n        /* \"#utility.yul\":1112:1113   */\n      dup1\n        /* \"#utility.yul\":1105:1117   */\n      revert\n        /* \"#utility.yul\":1056:1119   */\n    tag_168:\n        /* \"#utility.yul\":1003:1125   */\n      pop\n      jump\t// out\n        /* \"#utility.yul\":1131:1270   */\n    tag_102:\n        /* \"#utility.yul\":1177:1182   */\n      0x00\n        /* \"#utility.yul\":1215:1221   */\n      dup2\n        /* \"#utility.yul\":1202:1222   */\n      calldataload\n        /* \"#utility.yul\":1193:1222   */\n      swap1\n      pop\n        /* \"#utility.yul\":1231:1264   */\n      tag_170\n        /* \"#utility.yul\":1258:1263   */\n      dup2\n        /* \"#utility.yul\":1231:1264   */\n      tag_101\n      jump\t// in\n    tag_170:\n        /* \"#utility.yul\":1131:1270   */\n      swap3\n      swap2\n      pop\n      pop\n      jump\t// out\n        /* \"#utility.yul\":1276:1605   */\n    tag_18:\n        /* \"#utility.yul\":1335:1341   */\n      0x00\n        /* \"#utility.yul\":1384:1386   */\n      0x20\n        /* \"#utility.yul\":1372:1381   */\n      dup3\n        /* \"#utility.yul\":1363:1370   */\n      dup5\n        /* \"#utility.yul\":1359:1382   */\n      sub\n        /* \"#utility.yul\":1355:1387   */\n      slt\n        /* \"#utility.yul\":1352:1471   */\n      iszero\n      tag_172\n      jumpi\n        /* \"#utility.yul\":1390:1469   */\n      tag_173\n      tag_97\n      jump\t// in\n    tag_173:\n        /* \"#utility.yul\":1352:1471   */\n    tag_172:\n        /* \"#utility.yul\":1510:1511   */\n      0x00\n        /* \"#utility.yul\":1535:1588   */\n      tag_174\n        /* \"#utility.yul\":1580:1587   */\n      dup5\n        /* \"#utility.yul\":1571:1577   */\n      dup3\n        /* \"#utility.yul\":1560:1569   */\n      dup6\n        /* \"#utility.yul\":1556:1578   */\n      add\n        /* \"#utility.yul\":1535:1588   */\n      tag_102\n      jump\t// in\n    tag_174:\n        /* \"#utility.yul\":1525:1588   */\n      swap2\n      pop\n        /* \"#utility.yul\":1481:1598   */\n      pop\n        /* \"#utility.yul\":1276:1605   */\n      swap3\n      swap2\n      pop\n      pop\n      jump\t// out\n        /* \"#utility.yul\":1611:1701   */\n    tag_103:\n        /* \"#utility.yul\":1645:1652   */\n      0x00\n        /* \"#utility.yul\":1688:1693   */\n      dup2\n        /* \"#utility.yul\":1681:1694   */\n      iszero\n        /* \"#utility.yul\":1674:1695   */\n      iszero\n        /* \"#utility.yul\":1663:1695   */\n      swap1\n      pop\n        /* \"#utility.yul\":1611:1701   */\n      swap2\n      swap1\n      pop\n      jump\t// out\n        /* \"#utility.yul\":1707:1816   */\n    tag_104:\n        /* \"#utility.yul\":1788:1809   */\n      tag_177\n        /* \"#utility.yul\":1803:1808   */\n      dup2\n        /* \"#utility.yul\":1788:1809   */\n      tag_103\n      jump\t// in\n    tag_177:\n        /* \"#utility.yul\":1783:1786   */\n      dup3\n        /* \"#utility.yul\":1776:1810   */\n      mstore\n        /* \"#utility.yul\":1707:1816   */\n      pop\n      pop\n      jump\t// out\n        /* \"#utility.yul\":1822:2032   */\n    tag_24:\n        /* \"#utility.yul\":1909:1913   */\n      0x00\n        /* \"#utility.yul\":1947:1949   */\n      0x20\n        /* \"#utility.yul\":1936:1945   */\n      dup3\n        /* \"#utility.yul\":1932:1950   */\n      add\n        /* \"#utility.yul\":1924:1950   */\n      swap1\n      pop\n        /* \"#utility.yul\":1960:2025   */\n      tag_179\n        /* \"#utility.yul\":2022:2023   */\n      0x00\n        /* \"#utility.yul\":2011:2020   */\n      dup4\n        /* \"#utility.yul\":2007:2024   */\n      add\n        /* \"#utility.yul\":1998:2004   */\n      dup5\n        /* \"#utility.yul\":1960:2025   */\n      tag_104\n      jump\t// in\n    tag_179:\n        /* \"#utility.yul\":1822:2032   */\n      swap3\n      swap2\n      pop\n      pop\n      jump\t// out\n        /* \"#utility.yul\":2038:2160   */\n    tag_105:\n        /* \"#utility.yul\":2111:2135   */\n      tag_181\n        /* \"#utility.yul\":2129:2134   */\n      dup2\n        /* \"#utility.yul\":2111:2135   */\n      tag_94\n      jump\t// in\n    tag_181:\n        /* \"#utility.yul\":2104:2109   */\n      dup2\n        /* \"#utility.yul\":2101:2136   */\n      eq\n        /* \"#utility.yul\":2091:2154   */\n      tag_182\n      jumpi\n        /* \"#utility.yul\":2150:2151   */\n      0x00\n        /* \"#utility.yul\":2147:2148   */\n      dup1\n        /* \"#utility.yul\":2140:2152   */\n      revert\n        /* \"#utility.yul\":2091:2154   */\n    tag_182:\n        /* \"#utility.yul\":2038:2160   */\n      pop\n      jump\t// out\n        /* \"#utility.yul\":2166:2305   */\n    tag_106:\n        /* \"#utility.yul\":2212:2217   */\n      0x00\n        /* \"#utility.yul\":2250:2256   */\n      dup2\n        /* \"#utility.yul\":2237:2257   */\n      calldataload\n        /* \"#utility.yul\":2228:2257   */\n      swap1\n      pop\n        /* \"#utility.yul\":2266:2299   */\n      tag_184\n        /* \"#utility.yul\":2293:2298   */\n      dup2\n        /* \"#utility.yul\":2266:2299   */\n      tag_105\n      jump\t// in\n    tag_184:\n        /* \"#utility.yul\":2166:2305   */\n      swap3\n      swap2\n      pop\n      pop\n      jump\t// out\n        /* \"#utility.yul\":2311:2428   */\n    tag_107:\n        /* \"#utility.yul\":2420:2421   */\n      0x00\n        /* \"#utility.yul\":2417:2418   */\n      dup1\n        /* \"#utility.yul\":2410:2422   */\n      revert\n        /* \"#utility.yul\":2434:2551   */\n    tag_108:\n        /* \"#utility.yul\":2543:2544   */\n      0x00\n        /* \"#utility.yul\":2540:2541   */\n      dup1\n        /* \"#utility.yul\":2533:2545   */\n      revert\n        /* \"#utility.yul\":2557:2659   */\n    tag_109:\n        /* \"#utility.yul\":2598:2604   */\n      0x00\n        /* \"#utility.yul\":2649:2651   */\n      0x1f\n        /* \"#utility.yul\":2645:2652   */\n      not\n        /* \"#utility.yul\":2640:2642   */\n      0x1f\n        /* \"#utility.yul\":2633:2638   */\n      dup4\n        /* \"#utility.yul\":2629:2643   */\n      add\n        /* \"#utility.yul\":2625:2653   */\n      and\n        /* \"#utility.yul\":2615:2653   */\n      swap1\n      pop\n        /* \"#utility.yul\":2557:2659   */\n      swap2\n      swap1\n      pop\n      jump\t// out\n        /* \"#utility.yul\":2665:2845   */\n    tag_110:\n        /* \"#utility.yul\":2713:2790   */\n      0x4e487b7100000000000000000000000000000000000000000000000000000000\n        /* \"#utility.yul\":2710:2711   */\n      0x00\n        /* \"#utility.yul\":2703:2791   */\n      mstore\n        /* \"#utility.yul\":2810:2814   */\n      0x41\n        /* \"#utility.yul\":2807:2808   */\n      0x04\n        /* \"#utility.yul\":2800:2815   */\n      mstore\n        /* \"#utility.yul\":2834:2838   */\n      0x24\n        /* \"#utility.yul\":2831:2832   */\n      0x00\n        /* \"#utility.yul\":2824:2839   */\n      revert\n        /* \"#utility.yul\":2851:3132   */\n    tag_111:\n        /* \"#utility.yul\":2934:2961   */\n      tag_190\n        /* \"#utility.yul\":2956:2960   */\n      dup3\n        /* \"#utility.yul\":2934:2961   */\n      tag_109\n      jump\t// in\n    tag_190:\n        /* \"#utility.yul\":2926:2932   */\n      dup2\n        /* \"#utility.yul\":2922:2962   */\n      add\n        /* \"#utility.yul\":3064:3070   */\n      dup2\n        /* \"#utility.yul\":3052:3062   */\n      dup2\n        /* \"#utility.yul\":3049:3071   */\n      lt\n        /* \"#utility.yul\":3028:3046   */\n      0xffffffffffffffff\n        /* \"#utility.yul\":3016:3026   */\n      dup3\n        /* \"#utility.yul\":3013:3047   */\n      gt\n        /* \"#utility.yul\":3010:3072   */\n      or\n        /* \"#utility.yul\":3007:3095   */\n      iszero\n      tag_191\n      jumpi\n        /* \"#utility.yul\":3075:3093   */\n      tag_192\n      tag_110\n      jump\t// in\n    tag_192:\n        /* \"#utility.yul\":3007:3095   */\n    tag_191:\n        /* \"#utility.yul\":3115:3125   */\n      dup1\n        /* \"#utility.yul\":3111:3113   */\n      0x40\n        /* \"#utility.yul\":3104:3126   */\n      mstore\n        /* \"#utility.yul\":2894:3132   */\n      pop\n        /* \"#utility.yul\":2851:3132   */\n      pop\n      pop\n      jump\t// out\n        /* \"#utility.yul\":3138:3267   */\n    tag_112:\n        /* \"#utility.yul\":3172:3178   */\n      0x00\n        /* \"#utility.yul\":3199:3219   */\n      tag_194\n      tag_96\n      jump\t// in\n    tag_194:\n        /* \"#utility.yul\":3189:3219   */\n      swap1\n      pop\n        /* \"#utility.yul\":3228:3261   */\n      tag_195\n        /* \"#utility.yul\":3256:3260   */\n      dup3\n        /* \"#utility.yul\":3248:3254   */\n      dup3\n        /* \"#utility.yul\":3228:3261   */\n      tag_111\n      jump\t// in\n    tag_195:\n        /* \"#utility.yul\":3138:3267   */\n      swap2\n      swap1\n      pop\n      jump\t// out\n        /* \"#utility.yul\":3273:3581   */\n    tag_113:\n        /* \"#utility.yul\":3335:3339   */\n      0x00\n        /* \"#utility.yul\":3425:3443   */\n      0xffffffffffffffff\n        /* \"#utility.yul\":3417:3423   */\n      dup3\n        /* \"#utility.yul\":3414:3444   */\n      gt\n        /* \"#utility.yul\":3411:3467   */\n      iszero\n      tag_197\n      jumpi\n        /* \"#utility.yul\":3447:3465   */\n      tag_198\n      tag_110\n      jump\t// in\n    tag_198:\n        /* \"#utility.yul\":3411:3467   */\n    tag_197:\n        /* \"#utility.yul\":3485:3514   */\n      tag_199\n        /* \"#utility.yul\":3507:3513   */\n      dup3\n        /* \"#utility.yul\":3485:3514   */\n      tag_109\n      jump\t// in\n    tag_199:\n        /* \"#utility.yul\":3477:3514   */\n      swap1\n      pop\n        /* \"#utility.yul\":3569:3573   */\n      0x20\n        /* \"#utility.yul\":3563:3567   */\n      dup2\n        /* \"#utility.yul\":3559:3574   */\n      add\n        /* \"#utility.yul\":3551:3574   */\n      swap1\n      pop\n        /* \"#utility.yul\":3273:3581   */\n      swap2\n      swap1\n      pop\n      jump\t// out\n        /* \"#utility.yul\":3587:3735   */\n    tag_114:\n        /* \"#utility.yul\":3685:3691   */\n      dup3\n        /* \"#utility.yul\":3680:3683   */\n      dup2\n        /* \"#utility.yul\":3675:3678   */\n      dup4\n        /* \"#utility.yul\":3662:3692   */\n      calldatacopy\n        /* \"#utility.yul\":3726:3727   */\n      0x00\n        /* \"#utility.yul\":3717:3723   */\n      dup4\n        /* \"#utility.yul\":3712:3715   */\n      dup4\n        /* \"#utility.yul\":3708:3724   */\n      add\n        /* \"#utility.yul\":3701:3728   */\n      mstore\n        /* \"#utility.yul\":3587:3735   */\n      pop\n      pop\n      pop\n      jump\t// out\n        /* \"#utility.yul\":3741:4166   */\n    tag_115:\n        /* \"#utility.yul\":3819:3824   */\n      0x00\n        /* \"#utility.yul\":3844:3910   */\n      tag_202\n        /* \"#utility.yul\":3860:3909   */\n      tag_203\n        /* \"#utility.yul\":3902:3908   */\n      dup5\n        /* \"#utility.yul\":3860:3909   */\n      tag_113\n      jump\t// in\n    tag_203:\n        /* \"#utility.yul\":3844:3910   */\n      tag_112\n      jump\t// in\n    tag_202:\n        /* \"#utility.yul\":3835:3910   */\n      swap1\n      pop\n        /* \"#utility.yul\":3933:3939   */\n      dup3\n        /* \"#utility.yul\":3926:3931   */\n      dup2\n        /* \"#utility.yul\":3919:3940   */\n      mstore\n        /* \"#utility.yul\":3971:3975   */\n      0x20\n        /* \"#utility.yul\":3964:3969   */\n      dup2\n        /* \"#utility.yul\":3960:3976   */\n      add\n        /* \"#utility.yul\":4009:4012   */\n      dup5\n        /* \"#utility.yul\":4000:4006   */\n      dup5\n        /* \"#utility.yul\":3995:3998   */\n      dup5\n        /* \"#utility.yul\":3991:4007   */\n      add\n        /* \"#utility.yul\":3988:4013   */\n      gt\n        /* \"#utility.yul\":3985:4097   */\n      iszero\n      tag_204\n      jumpi\n        /* \"#utility.yul\":4016:4095   */\n      tag_205\n      tag_108\n      jump\t// in\n    tag_205:\n        /* \"#utility.yul\":3985:4097   */\n    tag_204:\n        /* \"#utility.yul\":4106:4160   */\n      tag_206\n        /* \"#utility.yul\":4153:4159   */\n      dup5\n        /* \"#utility.yul\":4148:4151   */\n      dup3\n        /* \"#utility.yul\":4143:4146   */\n      dup6\n        /* \"#utility.yul\":4106:4160   */\n      tag_114\n      jump\t// in\n    tag_206:\n        /* \"#utility.yul\":3825:4166   */\n      pop\n        /* \"#utility.yul\":3741:4166   */\n      swap4\n      swap3\n      pop\n      pop\n      pop\n      jump\t// out\n        /* \"#utility.yul\":4186:4526   */\n    tag_116:\n        /* \"#utility.yul\":4242:4247   */\n      0x00\n        /* \"#utility.yul\":4291:4294   */\n      dup3\n        /* \"#utility.yul\":4284:4288   */\n      0x1f\n        /* \"#utility.yul\":4276:4282   */\n      dup4\n        /* \"#utility.yul\":4272:4289   */\n      add\n        /* \"#utility.yul\":4268:4295   */\n      slt\n        /* \"#utility.yul\":4258:4380   */\n      tag_208\n      jumpi\n        /* \"#utility.yul\":4299:4378   */\n      tag_209\n      tag_107\n      jump\t// in\n    tag_209:\n        /* \"#utility.yul\":4258:4380   */\n    tag_208:\n        /* \"#utility.yul\":4416:4422   */\n      dup2\n        /* \"#utility.yul\":4403:4423   */\n      calldataload\n        /* \"#utility.yul\":4441:4520   */\n      tag_210\n        /* \"#utility.yul\":4516:4519   */\n      dup5\n        /* \"#utility.yul\":4508:4514   */\n      dup3\n        /* \"#utility.yul\":4501:4505   */\n      0x20\n        /* \"#utility.yul\":4493:4499   */\n      dup7\n        /* \"#utility.yul\":4489:4506   */\n      add\n        /* \"#utility.yul\":4441:4520   */\n      tag_115\n      jump\t// in\n    tag_210:\n        /* \"#utility.yul\":4432:4520   */\n      swap2\n      pop\n        /* \"#utility.yul\":4248:4526   */\n      pop\n        /* \"#utility.yul\":4186:4526   */\n      swap3\n      swap2\n      pop\n      pop\n      jump\t// out\n        /* \"#utility.yul\":4532:5186   */\n    tag_27:\n        /* \"#utility.yul\":4610:4616   */\n      0x00\n        /* \"#utility.yul\":4618:4624   */\n      dup1\n        /* \"#utility.yul\":4667:4669   */\n      0x40\n        /* \"#utility.yul\":4655:4664   */\n      dup4\n        /* \"#utility.yul\":4646:4653   */\n      dup6\n        /* \"#utility.yul\":4642:4665   */\n      sub\n        /* \"#utility.yul\":4638:4670   */\n      slt\n        /* \"#utility.yul\":4635:4754   */\n      iszero\n      tag_212\n      jumpi\n        /* \"#utility.yul\":4673:4752   */\n      tag_213\n      tag_97\n      jump\t// in\n    tag_213:\n        /* \"#utility.yul\":4635:4754   */\n    tag_212:\n        /* \"#utility.yul\":4793:4794   */\n      0x00\n        /* \"#utility.yul\":4818:4871   */\n      tag_214\n        /* \"#utility.yul\":4863:4870   */\n      dup6\n        /* \"#utility.yul\":4854:4860   */\n      dup3\n        /* \"#utility.yul\":4843:4852   */\n      dup7\n        /* \"#utility.yul\":4839:4861   */\n      add\n        /* \"#utility.yul\":4818:4871   */\n      tag_106\n      jump\t// in\n    tag_214:\n        /* \"#utility.yul\":4808:4871   */\n      swap3\n      pop\n        /* \"#utility.yul\":4764:4881   */\n      pop\n        /* \"#utility.yul\":4948:4950   */\n      0x20\n        /* \"#utility.yul\":4937:4946   */\n      dup4\n        /* \"#utility.yul\":4933:4951   */\n      add\n        /* \"#utility.yul\":4920:4952   */\n      calldataload\n        /* \"#utility.yul\":4979:4997   */\n      0xffffffffffffffff\n        /* \"#utility.yul\":4971:4977   */\n      dup2\n        /* \"#utility.yul\":4968:4998   */\n      gt\n        /* \"#utility.yul\":4965:5082   */\n      iszero\n      tag_215\n      jumpi\n        /* \"#utility.yul\":5001:5080   */\n      tag_216\n      tag_98\n      jump\t// in\n    tag_216:\n        /* \"#utility.yul\":4965:5082   */\n    tag_215:\n        /* \"#utility.yul\":5106:5169   */\n      tag_217\n        /* \"#utility.yul\":5161:5168   */\n      dup6\n        /* \"#utility.yul\":5152:5158   */\n      dup3\n        /* \"#utility.yul\":5141:5150   */\n      dup7\n        /* \"#utility.yul\":5137:5159   */\n      add\n        /* \"#utility.yul\":5106:5169   */\n      tag_116\n      jump\t// in\n    tag_217:\n        /* \"#utility.yul\":5096:5169   */\n      swap2\n      pop\n        /* \"#utility.yul\":4891:5179   */\n      pop\n        /* \"#utility.yul\":4532:5186   */\n      swap3\n      pop\n      swap3\n      swap1\n      pop\n      jump\t// out\n        /* \"#utility.yul\":5192:5521   */\n    tag_31:\n        /* \"#utility.yul\":5251:5257   */\n      0x00\n        /* \"#utility.yul\":5300:5302   */\n      0x20\n        /* \"#utility.yul\":5288:5297   */\n      dup3\n        /* \"#utility.yul\":5279:5286   */\n      dup5\n        /* \"#utility.yul\":5275:5298   */\n      sub\n        /* \"#utility.yul\":5271:5303   */\n      slt\n        /* \"#utility.yul\":5268:5387   */\n      iszero\n      tag_219\n      jumpi\n        /* \"#utility.yul\":5306:5385   */\n      tag_220\n      tag_97\n      jump\t// in\n    tag_220:\n        /* \"#utility.yul\":5268:5387   */\n    tag_219:\n        /* \"#utility.yul\":5426:5427   */\n      0x00\n        /* \"#utility.yul\":5451:5504   */\n      tag_221\n        /* \"#utility.yul\":5496:5503   */\n      dup5\n        /* \"#utility.yul\":5487:5493   */\n      dup3\n        /* \"#utility.yul\":5476:5485   */\n      dup6\n        /* \"#utility.yul\":5472:5494   */\n      add\n        /* \"#utility.yul\":5451:5504   */\n      tag_106\n      jump\t// in\n    tag_221:\n        /* \"#utility.yul\":5441:5504   */\n      swap2\n      pop\n        /* \"#utility.yul\":5397:5514   */\n      pop\n        /* \"#utility.yul\":5192:5521   */\n      swap3\n      swap2\n      pop\n      pop\n      jump\t// out\n        /* \"#utility.yul\":5527:5626   */\n    tag_117:\n        /* \"#utility.yul\":5579:5585   */\n      0x00\n        /* \"#utility.yul\":5613:5618   */\n      dup2\n        /* \"#utility.yul\":5607:5619   */\n      mload\n        /* \"#utility.yul\":5597:5619   */\n      swap1\n      pop\n        /* \"#utility.yul\":5527:5626   */\n      swap2\n      swap1\n      pop\n      jump\t// out\n        /* \"#utility.yul\":5632:5801   */\n    tag_118:\n        /* \"#utility.yul\":5716:5727   */\n      0x00\n        /* \"#utility.yul\":5750:5756   */\n      dup3\n        /* \"#utility.yul\":5745:5748   */\n      dup3\n        /* \"#utility.yul\":5738:5757   */\n      mstore\n        /* \"#utility.yul\":5790:5794   */\n      0x20\n        /* \"#utility.yul\":5785:5788   */\n      dup3\n        /* \"#utility.yul\":5781:5795   */\n      add\n        /* \"#utility.yul\":5766:5795   */\n      swap1\n      pop\n        /* \"#utility.yul\":5632:5801   */\n      swap3\n      swap2\n      pop\n      pop\n      jump\t// out\n        /* \"#utility.yul\":5807:5946   */\n    tag_119:\n        /* \"#utility.yul\":5896:5902   */\n      dup3\n        /* \"#utility.yul\":5891:5894   */\n      dup2\n        /* \"#utility.yul\":5886:5889   */\n      dup4\n        /* \"#utility.yul\":5880:5903   */\n      mcopy\n        /* \"#utility.yul\":5937:5938   */\n      0x00\n        /* \"#utility.yul\":5928:5934   */\n      dup4\n        /* \"#utility.yul\":5923:5926   */\n      dup4\n        /* \"#utility.yul\":5919:5935   */\n      add\n        /* \"#utility.yul\":5912:5939   */\n      mstore\n        /* \"#utility.yul\":5807:5946   */\n      pop\n      pop\n      pop\n      jump\t// out\n        /* \"#utility.yul\":5952:6329   */\n    tag_120:\n        /* \"#utility.yul\":6040:6043   */\n      0x00\n        /* \"#utility.yul\":6068:6107   */\n      tag_226\n        /* \"#utility.yul\":6101:6106   */\n      dup3\n        /* \"#utility.yul\":6068:6107   */\n      tag_117\n      jump\t// in\n    tag_226:\n        /* \"#utility.yul\":6123:6194   */\n      tag_227\n        /* \"#utility.yul\":6187:6193   */\n      dup2\n        /* \"#utility.yul\":6182:6185   */\n      dup6\n        /* \"#utility.yul\":6123:6194   */\n      tag_118\n      jump\t// in\n    tag_227:\n        /* \"#utility.yul\":6116:6194   */\n      swap4\n      pop\n        /* \"#utility.yul\":6203:6268   */\n      tag_228\n        /* \"#utility.yul\":6261:6267   */\n      dup2\n        /* \"#utility.yul\":6256:6259   */\n      dup6\n        /* \"#utility.yul\":6249:6253   */\n      0x20\n        /* \"#utility.yul\":6242:6247   */\n      dup7\n        /* \"#utility.yul\":6238:6254   */\n      add\n        /* \"#utility.yul\":6203:6268   */\n      tag_119\n      jump\t// in\n    tag_228:\n        /* \"#utility.yul\":6293:6322   */\n      tag_229\n        /* \"#utility.yul\":6315:6321   */\n      dup2\n        /* \"#utility.yul\":6293:6322   */\n      tag_109\n      jump\t// in\n    tag_229:\n        /* \"#utility.yul\":6288:6291   */\n      dup5\n        /* \"#utility.yul\":6284:6323   */\n      add\n        /* \"#utility.yul\":6277:6323   */\n      swap2\n      pop\n        /* \"#utility.yul\":6044:6329   */\n      pop\n        /* \"#utility.yul\":5952:6329   */\n      swap3\n      swap2\n      pop\n      pop\n      jump\t// out\n        /* \"#utility.yul\":6335:7482   */\n    tag_34:\n        /* \"#utility.yul\":6650:6654   */\n      0x00\n        /* \"#utility.yul\":6688:6691   */\n      0xe0\n        /* \"#utility.yul\":6677:6686   */\n      dup3\n        /* \"#utility.yul\":6673:6692   */\n      add\n        /* \"#utility.yul\":6665:6692   */\n      swap1\n      pop\n        /* \"#utility.yul\":6702:6773   */\n      tag_231\n        /* \"#utility.yul\":6770:6771   */\n      0x00\n        /* \"#utility.yul\":6759:6768   */\n      dup4\n        /* \"#utility.yul\":6755:6772   */\n      add\n        /* \"#utility.yul\":6746:6752   */\n      dup11\n        /* \"#utility.yul\":6702:6773   */\n      tag_95\n      jump\t// in\n    tag_231:\n        /* \"#utility.yul\":6820:6829   */\n      dup2\n        /* \"#utility.yul\":6814:6818   */\n      dup2\n        /* \"#utility.yul\":6810:6830   */\n      sub\n        /* \"#utility.yul\":6805:6807   */\n      0x20\n        /* \"#utility.yul\":6794:6803   */\n      dup4\n        /* \"#utility.yul\":6790:6808   */\n      add\n        /* \"#utility.yul\":6783:6831   */\n      mstore\n        /* \"#utility.yul\":6848:6926   */\n      tag_232\n        /* \"#utility.yul\":6921:6925   */\n      dup2\n        /* \"#utility.yul\":6912:6918   */\n      dup10\n        /* \"#utility.yul\":6848:6926   */\n      tag_120\n      jump\t// in\n    tag_232:\n        /* \"#utility.yul\":6840:6926   */\n      swap1\n      pop\n        /* \"#utility.yul\":6936:7008   */\n      tag_233\n        /* \"#utility.yul\":7004:7006   */\n      0x40\n        /* \"#utility.yul\":6993:7002   */\n      dup4\n        /* \"#utility.yul\":6989:7007   */\n      add\n        /* \"#utility.yul\":6980:6986   */\n      dup9\n        /* \"#utility.yul\":6936:7008   */\n      tag_95\n      jump\t// in\n    tag_233:\n        /* \"#utility.yul\":7055:7064   */\n      dup2\n        /* \"#utility.yul\":7049:7053   */\n      dup2\n        /* \"#utility.yul\":7045:7065   */\n      sub\n        /* \"#utility.yul\":7040:7042   */\n      0x60\n        /* \"#utility.yul\":7029:7038   */\n      dup4\n        /* \"#utility.yul\":7025:7043   */\n      add\n        /* \"#utility.yul\":7018:7066   */\n      mstore\n        /* \"#utility.yul\":7083:7161   */\n      tag_234\n        /* \"#utility.yul\":7156:7160   */\n      dup2\n        /* \"#utility.yul\":7147:7153   */\n      dup8\n        /* \"#utility.yul\":7083:7161   */\n      tag_120\n      jump\t// in\n    tag_234:\n        /* \"#utility.yul\":7075:7161   */\n      swap1\n      pop\n        /* \"#utility.yul\":7171:7244   */\n      tag_235\n        /* \"#utility.yul\":7239:7242   */\n      0x80\n        /* \"#utility.yul\":7228:7237   */\n      dup4\n        /* \"#utility.yul\":7224:7243   */\n      add\n        /* \"#utility.yul\":7215:7221   */\n      dup7\n        /* \"#utility.yul\":7171:7244   */\n      tag_95\n      jump\t// in\n    tag_235:\n        /* \"#utility.yul\":7292:7301   */\n      dup2\n        /* \"#utility.yul\":7286:7290   */\n      dup2\n        /* \"#utility.yul\":7282:7302   */\n      sub\n        /* \"#utility.yul\":7276:7279   */\n      0xa0\n        /* \"#utility.yul\":7265:7274   */\n      dup4\n        /* \"#utility.yul\":7261:7280   */\n      add\n        /* \"#utility.yul\":7254:7303   */\n      mstore\n        /* \"#utility.yul\":7320:7398   */\n      tag_236\n        /* \"#utility.yul\":7393:7397   */\n      dup2\n        /* \"#utility.yul\":7384:7390   */\n      dup6\n        /* \"#utility.yul\":7320:7398   */\n      tag_120\n      jump\t// in\n    tag_236:\n        /* \"#utility.yul\":7312:7398   */\n      swap1\n      pop\n        /* \"#utility.yul\":7408:7475   */\n      tag_237\n        /* \"#utility.yul\":7470:7473   */\n      0xc0\n        /* \"#utility.yul\":7459:7468   */\n      dup4\n        /* \"#utility.yul\":7455:7474   */\n      add\n        /* \"#utility.yul\":7446:7452   */\n      dup5\n        /* \"#utility.yul\":7408:7475   */\n      tag_104\n      jump\t// in\n    tag_237:\n        /* \"#utility.yul\":6335:7482   */\n      swap9\n      swap8\n      pop\n      pop\n      pop\n      pop\n      pop\n      pop\n      pop\n      pop\n      jump\t// out\n        /* \"#utility.yul\":7488:7548   */\n    tag_121:\n        /* \"#utility.yul\":7516:7519   */\n      0x00\n        /* \"#utility.yul\":7537:7542   */\n      dup2\n        /* \"#utility.yul\":7530:7542   */\n      swap1\n      pop\n        /* \"#utility.yul\":7488:7548   */\n      swap2\n      swap1\n      pop\n      jump\t// out\n        /* \"#utility.yul\":7554:7696   */\n    tag_122:\n        /* \"#utility.yul\":7604:7613   */\n      0x00\n        /* \"#utility.yul\":7637:7690   */\n      tag_240\n        /* \"#utility.yul\":7655:7689   */\n      tag_241\n        /* \"#utility.yul\":7664:7688   */\n      tag_242\n        /* \"#utility.yul\":7682:7687   */\n      dup5\n        /* \"#utility.yul\":7664:7688   */\n      tag_99\n      jump\t// in\n    tag_242:\n        /* \"#utility.yul\":7655:7689   */\n      tag_121\n      jump\t// in\n    tag_241:\n        /* \"#utility.yul\":7637:7690   */\n      tag_99\n      jump\t// in\n    tag_240:\n        /* \"#utility.yul\":7624:7690   */\n      swap1\n      pop\n        /* \"#utility.yul\":7554:7696   */\n      swap2\n      swap1\n      pop\n      jump\t// out\n        /* \"#utility.yul\":7702:7828   */\n    tag_123:\n        /* \"#utility.yul\":7752:7761   */\n      0x00\n        /* \"#utility.yul\":7785:7822   */\n      tag_244\n        /* \"#utility.yul\":7816:7821   */\n      dup3\n        /* \"#utility.yul\":7785:7822   */\n      tag_122\n      jump\t// in\n    tag_244:\n        /* \"#utility.yul\":7772:7822   */\n      swap1\n      pop\n        /* \"#utility.yul\":7702:7828   */\n      swap2\n      swap1\n      pop\n      jump\t// out\n        /* \"#utility.yul\":7834:7980   */\n    tag_124:\n        /* \"#utility.yul\":7904:7913   */\n      0x00\n        /* \"#utility.yul\":7937:7974   */\n      tag_246\n        /* \"#utility.yul\":7968:7973   */\n      dup3\n        /* \"#utility.yul\":7937:7974   */\n      tag_123\n      jump\t// in\n    tag_246:\n        /* \"#utility.yul\":7924:7974   */\n      swap1\n      pop\n        /* \"#utility.yul\":7834:7980   */\n      swap2\n      swap1\n      pop\n      jump\t// out\n        /* \"#utility.yul\":7986:8157   */\n    tag_125:\n        /* \"#utility.yul\":8093:8150   */\n      tag_248\n        /* \"#utility.yul\":8144:8149   */\n      dup2\n        /* \"#utility.yul\":8093:8150   */\n      tag_124\n      jump\t// in\n    tag_248:\n        /* \"#utility.yul\":8088:8091   */\n      dup3\n        /* \"#utility.yul\":8081:8151   */\n      mstore\n        /* \"#utility.yul\":7986:8157   */\n      pop\n      pop\n      jump\t// out\n        /* \"#utility.yul\":8163:8425   */\n    tag_38:\n        /* \"#utility.yul\":8276:8280   */\n      0x00\n        /* \"#utility.yul\":8314:8316   */\n      0x20\n        /* \"#utility.yul\":8303:8312   */\n      dup3\n        /* \"#utility.yul\":8299:8317   */\n      add\n        /* \"#utility.yul\":8291:8317   */\n      swap1\n      pop\n        /* \"#utility.yul\":8327:8418   */\n      tag_250\n        /* \"#utility.yul\":8415:8416   */\n      0x00\n        /* \"#utility.yul\":8404:8413   */\n      dup4\n        /* \"#utility.yul\":8400:8417   */\n      add\n        /* \"#utility.yul\":8391:8397   */\n      dup5\n        /* \"#utility.yul\":8327:8418   */\n      tag_125\n      jump\t// in\n    tag_250:\n        /* \"#utility.yul\":8163:8425   */\n      swap3\n      swap2\n      pop\n      pop\n      jump\t// out\n        /* \"#utility.yul\":8431:8549   */\n    tag_126:\n        /* \"#utility.yul\":8518:8542   */\n      tag_252\n        /* \"#utility.yul\":8536:8541   */\n      dup2\n        /* \"#utility.yul\":8518:8542   */\n      tag_100\n      jump\t// in\n    tag_252:\n        /* \"#utility.yul\":8513:8516   */\n      dup3\n        /* \"#utility.yul\":8506:8543   */\n      mstore\n        /* \"#utility.yul\":8431:8549   */\n      pop\n      pop\n      jump\t// out\n        /* \"#utility.yul\":8555:8777   */\n    tag_42:\n        /* \"#utility.yul\":8648:8652   */\n      0x00\n        /* \"#utility.yul\":8686:8688   */\n      0x20\n        /* \"#utility.yul\":8675:8684   */\n      dup3\n        /* \"#utility.yul\":8671:8689   */\n      add\n        /* \"#utility.yul\":8663:8689   */\n      swap1\n      pop\n        /* \"#utility.yul\":8699:8770   */\n      tag_254\n        /* \"#utility.yul\":8767:8768   */\n      0x00\n        /* \"#utility.yul\":8756:8765   */\n      dup4\n        /* \"#utility.yul\":8752:8769   */\n      add\n        /* \"#utility.yul\":8743:8749   */\n      dup5\n        /* \"#utility.yul\":8699:8770   */\n      tag_126\n      jump\t// in\n    tag_254:\n        /* \"#utility.yul\":8555:8777   */\n      swap3\n      swap2\n      pop\n      pop\n      jump\t// out\n        /* \"#utility.yul\":8783:9021   */\n    tag_127:\n        /* \"#utility.yul\":8923:8957   */\n      0x4f6e6c7920746865206c6f676973746963732070726f76696465722063616e20\n        /* \"#utility.yul\":8919:8920   */\n      0x00\n        /* \"#utility.yul\":8911:8917   */\n      dup3\n        /* \"#utility.yul\":8907:8921   */\n      add\n        /* \"#utility.yul\":8900:8958   */\n      mstore\n        /* \"#utility.yul\":8992:9013   */\n      0x706572666f726d207468697320616374696f6e00000000000000000000000000\n        /* \"#utility.yul\":8987:8989   */\n      0x20\n        /* \"#utility.yul\":8979:8985   */\n      dup3\n        /* \"#utility.yul\":8975:8990   */\n      add\n        /* \"#utility.yul\":8968:9014   */\n      mstore\n        /* \"#utility.yul\":8783:9021   */\n      pop\n      jump\t// out\n        /* \"#utility.yul\":9027:9393   */\n    tag_128:\n        /* \"#utility.yul\":9169:9172   */\n      0x00\n        /* \"#utility.yul\":9190:9257   */\n      tag_257\n        /* \"#utility.yul\":9254:9256   */\n      0x33\n        /* \"#utility.yul\":9249:9252   */\n      dup4\n        /* \"#utility.yul\":9190:9257   */\n      tag_118\n      jump\t// in\n    tag_257:\n        /* \"#utility.yul\":9183:9257   */\n      swap2\n      pop\n        /* \"#utility.yul\":9266:9359   */\n      tag_258\n        /* \"#utility.yul\":9355:9358   */\n      dup3\n        /* \"#utility.yul\":9266:9359   */\n      tag_127\n      jump\t// in\n    tag_258:\n        /* \"#utility.yul\":9384:9386   */\n      0x40\n        /* \"#utility.yul\":9379:9382   */\n      dup3\n        /* \"#utility.yul\":9375:9387   */\n      add\n        /* \"#utility.yul\":9368:9387   */\n      swap1\n      pop\n        /* \"#utility.yul\":9027:9393   */\n      swap2\n      swap1\n      pop\n      jump\t// out\n        /* \"#utility.yul\":9399:9818   */\n    tag_49:\n        /* \"#utility.yul\":9565:9569   */\n      0x00\n        /* \"#utility.yul\":9603:9605   */\n      0x20\n        /* \"#utility.yul\":9592:9601   */\n      dup3\n        /* \"#utility.yul\":9588:9606   */\n      add\n        /* \"#utility.yul\":9580:9606   */\n      swap1\n      pop\n        /* \"#utility.yul\":9652:9661   */\n      dup2\n        /* \"#utility.yul\":9646:9650   */\n      dup2\n        /* \"#utility.yul\":9642:9662   */\n      sub\n        /* \"#utility.yul\":9638:9639   */\n      0x00\n        /* \"#utility.yul\":9627:9636   */\n      dup4\n        /* \"#utility.yul\":9623:9640   */\n      add\n        /* \"#utility.yul\":9616:9663   */\n      mstore\n        /* \"#utility.yul\":9680:9811   */\n      tag_260\n        /* \"#utility.yul\":9806:9810   */\n      dup2\n        /* \"#utility.yul\":9680:9811   */\n      tag_128\n      jump\t// in\n    tag_260:\n        /* \"#utility.yul\":9672:9811   */\n      swap1\n      pop\n        /* \"#utility.yul\":9399:9818   */\n      swap2\n      swap1\n      pop\n      jump\t// out\n        /* \"#utility.yul\":9824:10258   */\n    tag_129:\n        /* \"#utility.yul\":9913:9918   */\n      0x00\n        /* \"#utility.yul\":9938:10004   */\n      tag_262\n        /* \"#utility.yul\":9954:10003   */\n      tag_263\n        /* \"#utility.yul\":9996:10002   */\n      dup5\n        /* \"#utility.yul\":9954:10003   */\n      tag_113\n      jump\t// in\n    tag_263:\n        /* \"#utility.yul\":9938:10004   */\n      tag_112\n      jump\t// in\n    tag_262:\n        /* \"#utility.yul\":9929:10004   */\n      swap1\n      pop\n        /* \"#utility.yul\":10027:10033   */\n      dup3\n        /* \"#utility.yul\":10020:10025   */\n      dup2\n        /* \"#utility.yul\":10013:10034   */\n      mstore\n        /* \"#utility.yul\":10065:10069   */\n      0x20\n        /* \"#utility.yul\":10058:10063   */\n      dup2\n        /* \"#utility.yul\":10054:10070   */\n      add\n        /* \"#utility.yul\":10103:10106   */\n      dup5\n        /* \"#utility.yul\":10094:10100   */\n      dup5\n        /* \"#utility.yul\":10089:10092   */\n      dup5\n        /* \"#utility.yul\":10085:10101   */\n      add\n        /* \"#utility.yul\":10082:10107   */\n      gt\n        /* \"#utility.yul\":10079:10191   */\n      iszero\n      tag_264\n      jumpi\n        /* \"#utility.yul\":10110:10189   */\n      tag_265\n      tag_108\n      jump\t// in\n    tag_265:\n        /* \"#utility.yul\":10079:10191   */\n    tag_264:\n        /* \"#utility.yul\":10200:10252   */\n      tag_266\n        /* \"#utility.yul\":10245:10251   */\n      dup5\n        /* \"#utility.yul\":10240:10243   */\n      dup3\n        /* \"#utility.yul\":10235:10238   */\n      dup6\n        /* \"#utility.yul\":10200:10252   */\n      tag_119\n      jump\t// in\n    tag_266:\n        /* \"#utility.yul\":9919:10258   */\n      pop\n        /* \"#utility.yul\":9824:10258   */\n      swap4\n      swap3\n      pop\n      pop\n      pop\n      jump\t// out\n        /* \"#utility.yul\":10278:10633   */\n    tag_130:\n        /* \"#utility.yul\":10345:10350   */\n      0x00\n        /* \"#utility.yul\":10394:10397   */\n      dup3\n        /* \"#utility.yul\":10387:10391   */\n      0x1f\n        /* \"#utility.yul\":10379:10385   */\n      dup4\n        /* \"#utility.yul\":10375:10392   */\n      add\n        /* \"#utility.yul\":10371:10398   */\n      slt\n        /* \"#utility.yul\":10361:10483   */\n      tag_268\n      jumpi\n        /* \"#utility.yul\":10402:10481   */\n      tag_269\n      tag_107\n      jump\t// in\n    tag_269:\n        /* \"#utility.yul\":10361:10483   */\n    tag_268:\n        /* \"#utility.yul\":10512:10518   */\n      dup2\n        /* \"#utility.yul\":10506:10519   */\n      mload\n        /* \"#utility.yul\":10537:10627   */\n      tag_270\n        /* \"#utility.yul\":10623:10626   */\n      dup5\n        /* \"#utility.yul\":10615:10621   */\n      dup3\n        /* \"#utility.yul\":10608:10612   */\n      0x20\n        /* \"#utility.yul\":10600:10606   */\n      dup7\n        /* \"#utility.yul\":10596:10613   */\n      add\n        /* \"#utility.yul\":10537:10627   */\n      tag_129\n      jump\t// in\n    tag_270:\n        /* \"#utility.yul\":10528:10627   */\n      swap2\n      pop\n        /* \"#utility.yul\":10351:10633   */\n      pop\n        /* \"#utility.yul\":10278:10633   */\n      swap3\n      swap2\n      pop\n      pop\n      jump\t// out\n        /* \"#utility.yul\":10639:10782   */\n    tag_131:\n        /* \"#utility.yul\":10696:10701   */\n      0x00\n        /* \"#utility.yul\":10727:10733   */\n      dup2\n        /* \"#utility.yul\":10721:10734   */\n      mload\n        /* \"#utility.yul\":10712:10734   */\n      swap1\n      pop\n        /* \"#utility.yul\":10743:10776   */\n      tag_272\n        /* \"#utility.yul\":10770:10775   */\n      dup2\n        /* \"#utility.yul\":10743:10776   */\n      tag_105\n      jump\t// in\n    tag_272:\n        /* \"#utility.yul\":10639:10782   */\n      swap3\n      swap2\n      pop\n      pop\n      jump\t// out\n        /* \"#utility.yul\":10788:12614   */\n    tag_59:\n        /* \"#utility.yul\":10943:10949   */\n      0x00\n        /* \"#utility.yul\":10951:10957   */\n      dup1\n        /* \"#utility.yul\":10959:10965   */\n      0x00\n        /* \"#utility.yul\":10967:10973   */\n      dup1\n        /* \"#utility.yul\":10975:10981   */\n      0x00\n        /* \"#utility.yul\":10983:10989   */\n      dup1\n        /* \"#utility.yul\":11032:11035   */\n      0xc0\n        /* \"#utility.yul\":11020:11029   */\n      dup8\n        /* \"#utility.yul\":11011:11018   */\n      dup10\n        /* \"#utility.yul\":11007:11030   */\n      sub\n        /* \"#utility.yul\":11003:11036   */\n      slt\n        /* \"#utility.yul\":11000:11120   */\n      iszero\n      tag_274\n      jumpi\n        /* \"#utility.yul\":11039:11118   */\n      tag_275\n      tag_97\n      jump\t// in\n    tag_275:\n        /* \"#utility.yul\":11000:11120   */\n    tag_274:\n        /* \"#utility.yul\":11180:11181   */\n      0x00\n        /* \"#utility.yul\":11169:11178   */\n      dup8\n        /* \"#utility.yul\":11165:11182   */\n      add\n        /* \"#utility.yul\":11159:11183   */\n      mload\n        /* \"#utility.yul\":11210:11228   */\n      0xffffffffffffffff\n        /* \"#utility.yul\":11202:11208   */\n      dup2\n        /* \"#utility.yul\":11199:11229   */\n      gt\n        /* \"#utility.yul\":11196:11313   */\n      iszero\n      tag_276\n      jumpi\n        /* \"#utility.yul\":11232:11311   */\n      tag_277\n      tag_98\n      jump\t// in\n    tag_277:\n        /* \"#utility.yul\":11196:11313   */\n    tag_276:\n        /* \"#utility.yul\":11337:11411   */\n      tag_278\n        /* \"#utility.yul\":11403:11410   */\n      dup10\n        /* \"#utility.yul\":11394:11400   */\n      dup3\n        /* \"#utility.yul\":11383:11392   */\n      dup11\n        /* \"#utility.yul\":11379:11401   */\n      add\n        /* \"#utility.yul\":11337:11411   */\n      tag_130\n      jump\t// in\n    tag_278:\n        /* \"#utility.yul\":11327:11411   */\n      swap7\n      pop\n        /* \"#utility.yul\":11130:11421   */\n      pop\n        /* \"#utility.yul\":11460:11462   */\n      0x20\n        /* \"#utility.yul\":11486:11550   */\n      tag_279\n        /* \"#utility.yul\":11542:11549   */\n      dup10\n        /* \"#utility.yul\":11533:11539   */\n      dup3\n        /* \"#utility.yul\":11522:11531   */\n      dup11\n        /* \"#utility.yul\":11518:11540   */\n      add\n        /* \"#utility.yul\":11486:11550   */\n      tag_131\n      jump\t// in\n    tag_279:\n        /* \"#utility.yul\":11476:11550   */\n      swap6\n      pop\n        /* \"#utility.yul\":11431:11560   */\n      pop\n        /* \"#utility.yul\":11620:11622   */\n      0x40\n        /* \"#utility.yul\":11609:11618   */\n      dup8\n        /* \"#utility.yul\":11605:11623   */\n      add\n        /* \"#utility.yul\":11599:11624   */\n      mload\n        /* \"#utility.yul\":11651:11669   */\n      0xffffffffffffffff\n        /* \"#utility.yul\":11643:11649   */\n      dup2\n        /* \"#utility.yul\":11640:11670   */\n      gt\n        /* \"#utility.yul\":11637:11754   */\n      iszero\n      tag_280\n      jumpi\n        /* \"#utility.yul\":11673:11752   */\n      tag_281\n      tag_98\n      jump\t// in\n    tag_281:\n        /* \"#utility.yul\":11637:11754   */\n    tag_280:\n        /* \"#utility.yul\":11778:11852   */\n      tag_282\n        /* \"#utility.yul\":11844:11851   */\n      dup10\n        /* \"#utility.yul\":11835:11841   */\n      dup3\n        /* \"#utility.yul\":11824:11833   */\n      dup11\n        /* \"#utility.yul\":11820:11842   */\n      add\n        /* \"#utility.yul\":11778:11852   */\n      tag_130\n      jump\t// in\n    tag_282:\n        /* \"#utility.yul\":11768:11852   */\n      swap5\n      pop\n        /* \"#utility.yul\":11570:11862   */\n      pop\n        /* \"#utility.yul\":11922:11924   */\n      0x60\n        /* \"#utility.yul\":11911:11920   */\n      dup8\n        /* \"#utility.yul\":11907:11925   */\n      add\n        /* \"#utility.yul\":11901:11926   */\n      mload\n        /* \"#utility.yul\":11953:11971   */\n      0xffffffffffffffff\n        /* \"#utility.yul\":11945:11951   */\n      dup2\n        /* \"#utility.yul\":11942:11972   */\n      gt\n        /* \"#utility.yul\":11939:12056   */\n      iszero\n      tag_283\n      jumpi\n        /* \"#utility.yul\":11975:12054   */\n      tag_284\n      tag_98\n      jump\t// in\n    tag_284:\n        /* \"#utility.yul\":11939:12056   */\n    tag_283:\n        /* \"#utility.yul\":12080:12154   */\n      tag_285\n        /* \"#utility.yul\":12146:12153   */\n      dup10\n        /* \"#utility.yul\":12137:12143   */\n      dup3\n        /* \"#utility.yul\":12126:12135   */\n      dup11\n        /* \"#utility.yul\":12122:12144   */\n      add\n        /* \"#utility.yul\":12080:12154   */\n      tag_130\n      jump\t// in\n    tag_285:\n        /* \"#utility.yul\":12070:12154   */\n      swap4\n      pop\n        /* \"#utility.yul\":11872:12164   */\n      pop\n        /* \"#utility.yul\":12203:12206   */\n      0x80\n        /* \"#utility.yul\":12230:12294   */\n      tag_286\n        /* \"#utility.yul\":12286:12293   */\n      dup10\n        /* \"#utility.yul\":12277:12283   */\n      dup3\n        /* \"#utility.yul\":12266:12275   */\n      dup11\n        /* \"#utility.yul\":12262:12284   */\n      add\n        /* \"#utility.yul\":12230:12294   */\n      tag_131\n      jump\t// in\n    tag_286:\n        /* \"#utility.yul\":12220:12294   */\n      swap3\n      pop\n        /* \"#utility.yul\":12174:12304   */\n      pop\n        /* \"#utility.yul\":12364:12367   */\n      0xa0\n        /* \"#utility.yul\":12353:12362   */\n      dup8\n        /* \"#utility.yul\":12349:12368   */\n      add\n        /* \"#utility.yul\":12343:12369   */\n      mload\n        /* \"#utility.yul\":12396:12414   */\n      0xffffffffffffffff\n        /* \"#utility.yul\":12388:12394   */\n      dup2\n        /* \"#utility.yul\":12385:12415   */\n      gt\n        /* \"#utility.yul\":12382:12499   */\n      iszero\n      tag_287\n      jumpi\n        /* \"#utility.yul\":12418:12497   */\n      tag_288\n      tag_98\n      jump\t// in\n    tag_288:\n        /* \"#utility.yul\":12382:12499   */\n    tag_287:\n        /* \"#utility.yul\":12523:12597   */\n      tag_289\n        /* \"#utility.yul\":12589:12596   */\n      dup10\n        /* \"#utility.yul\":12580:12586   */\n      dup3\n        /* \"#utility.yul\":12569:12578   */\n      dup11\n        /* \"#utility.yul\":12565:12587   */\n      add\n        /* \"#utility.yul\":12523:12597   */\n      tag_130\n      jump\t// in\n    tag_289:\n        /* \"#utility.yul\":12513:12597   */\n      swap2\n      pop\n        /* \"#utility.yul\":12314:12607   */\n      pop\n        /* \"#utility.yul\":10788:12614   */\n      swap3\n      swap6\n      pop\n      swap3\n      swap6\n      pop\n      swap3\n      swap6\n      jump\t// out\n        /* \"#utility.yul\":12620:12800   */\n    tag_132:\n        /* \"#utility.yul\":12760:12792   */\n      0x50726f64756374206e6f7420726561647920666f722064656c69766572790000\n        /* \"#utility.yul\":12756:12757   */\n      0x00\n        /* \"#utility.yul\":12748:12754   */\n      dup3\n        /* \"#utility.yul\":12744:12758   */\n      add\n        /* \"#utility.yul\":12737:12793   */\n      mstore\n        /* \"#utility.yul\":12620:12800   */\n      pop\n      jump\t// out\n        /* \"#utility.yul\":12806:13172   */\n    tag_133:\n        /* \"#utility.yul\":12948:12951   */\n      0x00\n        /* \"#utility.yul\":12969:13036   */\n      tag_292\n        /* \"#utility.yul\":13033:13035   */\n      0x1e\n        /* \"#utility.yul\":13028:13031   */\n      dup4\n        /* \"#utility.yul\":12969:13036   */\n      tag_118\n      jump\t// in\n    tag_292:\n        /* \"#utility.yul\":12962:13036   */\n      swap2\n      pop\n        /* \"#utility.yul\":13045:13138   */\n      tag_293\n        /* \"#utility.yul\":13134:13137   */\n      dup3\n        /* \"#utility.yul\":13045:13138   */\n      tag_132\n      jump\t// in\n    tag_293:\n        /* \"#utility.yul\":13163:13165   */\n      0x20\n        /* \"#utility.yul\":13158:13161   */\n      dup3\n        /* \"#utility.yul\":13154:13166   */\n      add\n        /* \"#utility.yul\":13147:13166   */\n      swap1\n      pop\n        /* \"#utility.yul\":12806:13172   */\n      swap2\n      swap1\n      pop\n      jump\t// out\n        /* \"#utility.yul\":13178:13597   */\n    tag_62:\n        /* \"#utility.yul\":13344:13348   */\n      0x00\n        /* \"#utility.yul\":13382:13384   */\n      0x20\n        /* \"#utility.yul\":13371:13380   */\n      dup3\n        /* \"#utility.yul\":13367:13385   */\n      add\n        /* \"#utility.yul\":13359:13385   */\n      swap1\n      pop\n        /* \"#utility.yul\":13431:13440   */\n      dup2\n        /* \"#utility.yul\":13425:13429   */\n      dup2\n        /* \"#utility.yul\":13421:13441   */\n      sub\n        /* \"#utility.yul\":13417:13418   */\n      0x00\n        /* \"#utility.yul\":13406:13415   */\n      dup4\n        /* \"#utility.yul\":13402:13419   */\n      add\n        /* \"#utility.yul\":13395:13442   */\n      mstore\n        /* \"#utility.yul\":13459:13590   */\n      tag_295\n        /* \"#utility.yul\":13585:13589   */\n      dup2\n        /* \"#utility.yul\":13459:13590   */\n      tag_133\n      jump\t// in\n    tag_295:\n        /* \"#utility.yul\":13451:13590   */\n      swap1\n      pop\n        /* \"#utility.yul\":13178:13597   */\n      swap2\n      swap1\n      pop\n      jump\t// out\n        /* \"#utility.yul\":13603:13783   */\n    tag_134:\n        /* \"#utility.yul\":13651:13728   */\n      0x4e487b7100000000000000000000000000000000000000000000000000000000\n        /* \"#utility.yul\":13648:13649   */\n      0x00\n        /* \"#utility.yul\":13641:13729   */\n      mstore\n        /* \"#utility.yul\":13748:13752   */\n      0x11\n        /* \"#utility.yul\":13745:13746   */\n      0x04\n        /* \"#utility.yul\":13738:13753   */\n      mstore\n        /* \"#utility.yul\":13772:13776   */\n      0x24\n        /* \"#utility.yul\":13769:13770   */\n      0x00\n        /* \"#utility.yul\":13762:13777   */\n      revert\n        /* \"#utility.yul\":13789:14022   */\n    tag_64:\n        /* \"#utility.yul\":13828:13831   */\n      0x00\n        /* \"#utility.yul\":13851:13875   */\n      tag_298\n        /* \"#utility.yul\":13869:13874   */\n      dup3\n        /* \"#utility.yul\":13851:13875   */\n      tag_94\n      jump\t// in\n    tag_298:\n        /* \"#utility.yul\":13842:13875   */\n      swap2\n      pop\n        /* \"#utility.yul\":13897:13963   */\n      0xffffffffffffffffffffffffffffffffffffffffffffffffffffffffffffffff\n        /* \"#utility.yul\":13890:13895   */\n      dup3\n        /* \"#utility.yul\":13887:13964   */\n      sub\n        /* \"#utility.yul\":13884:13987   */\n      tag_299\n      jumpi\n        /* \"#utility.yul\":13967:13985   */\n      tag_300\n      tag_134\n      jump\t// in\n    tag_300:\n        /* \"#utility.yul\":13884:13987   */\n    tag_299:\n        /* \"#utility.yul\":14014:14015   */\n      0x01\n        /* \"#utility.yul\":14007:14012   */\n      dup3\n        /* \"#utility.yul\":14003:14016   */\n      add\n        /* \"#utility.yul\":13996:14016   */\n      swap1\n      pop\n        /* \"#utility.yul\":13789:14022   */\n      swap2\n      swap1\n      pop\n      jump\t// out\n        /* \"#utility.yul\":14028:14208   */\n    tag_135:\n        /* \"#utility.yul\":14076:14153   */\n      0x4e487b7100000000000000000000000000000000000000000000000000000000\n        /* \"#utility.yul\":14073:14074   */\n      0x00\n        /* \"#utility.yul\":14066:14154   */\n      mstore\n        /* \"#utility.yul\":14173:14177   */\n      0x22\n        /* \"#utility.yul\":14170:14171   */\n      0x04\n        /* \"#utility.yul\":14163:14178   */\n      mstore\n        /* \"#utility.yul\":14197:14201   */\n      0x24\n        /* \"#utility.yul\":14194:14195   */\n      0x00\n        /* \"#utility.yul\":14187:14202   */\n      revert\n        /* \"#utility.yul\":14214:14534   */\n    tag_70:\n        /* \"#utility.yul\":14258:14264   */\n      0x00\n        /* \"#utility.yul\":14295:14296   */\n      0x02\n        /* \"#utility.yul\":14289:14293   */\n      dup3\n        /* \"#utility.yul\":14285:14297   */\n      div\n        /* \"#utility.yul\":14275:14297   */\n      swap1\n      pop\n        /* \"#utility.yul\":14342:14343   */\n      0x01\n        /* \"#utility.yul\":14336:14340   */\n      dup3\n        /* \"#utility.yul\":14332:14344   */\n      and\n        /* \"#utility.yul\":14363:14381   */\n      dup1\n        /* \"#utility.yul\":14353:14434   */\n      tag_303\n      jumpi\n        /* \"#utility.yul\":14419:14423   */\n      0x7f\n        /* \"#utility.yul\":14411:14417   */\n      dup3\n        /* \"#utility.yul\":14407:14424   */\n      and\n        /* \"#utility.yul\":14397:14424   */\n      swap2\n      pop\n        /* \"#utility.yul\":14353:14434   */\n    tag_303:\n        /* \"#utility.yul\":14481:14483   */\n      0x20\n        /* \"#utility.yul\":14473:14479   */\n      dup3\n        /* \"#utility.yul\":14470:14484   */\n      lt\n        /* \"#utility.yul\":14450:14468   */\n      dup2\n        /* \"#utility.yul\":14447:14485   */\n      sub\n        /* \"#utility.yul\":14444:14528   */\n      tag_304\n      jumpi\n        /* \"#utility.yul\":14500:14518   */\n      tag_305\n      tag_135\n      jump\t// in\n    tag_305:\n        /* \"#utility.yul\":14444:14528   */\n    tag_304:\n        /* \"#utility.yul\":14265:14534   */\n      pop\n        /* \"#utility.yul\":14214:14534   */\n      swap2\n      swap1\n      pop\n      jump\t// out\n        /* \"#utility.yul\":14540:14681   */\n    tag_136:\n        /* \"#utility.yul\":14589:14593   */\n      0x00\n        /* \"#utility.yul\":14612:14615   */\n      dup2\n        /* \"#utility.yul\":14604:14615   */\n      swap1\n      pop\n        /* \"#utility.yul\":14635:14638   */\n      dup2\n        /* \"#utility.yul\":14632:14633   */\n      0x00\n        /* \"#utility.yul\":14625:14639   */\n      mstore\n        /* \"#utility.yul\":14669:14673   */\n      0x20\n        /* \"#utility.yul\":14666:14667   */\n      0x00\n        /* \"#utility.yul\":14656:14674   */\n      keccak256\n        /* \"#utility.yul\":14648:14674   */\n      swap1\n      pop\n        /* \"#utility.yul\":14540:14681   */\n      swap2\n      swap1\n      pop\n      jump\t// out\n        /* \"#utility.yul\":14687:14780   */\n    tag_137:\n        /* \"#utility.yul\":14724:14730   */\n      0x00\n        /* \"#utility.yul\":14771:14773   */\n      0x20\n        /* \"#utility.yul\":14766:14768   */\n      0x1f\n        /* \"#utility.yul\":14759:14764   */\n      dup4\n        /* \"#utility.yul\":14755:14769   */\n      add\n        /* \"#utility.yul\":14751:14774   */\n      div\n        /* \"#utility.yul\":14741:14774   */\n      swap1\n      pop\n        /* \"#utility.yul\":14687:14780   */\n      swap2\n      swap1\n      pop\n      jump\t// out\n        /* \"#utility.yul\":14786:14893   */\n    tag_138:\n        /* \"#utility.yul\":14830:14838   */\n      0x00\n        /* \"#utility.yul\":14880:14885   */\n      dup3\n        /* \"#utility.yul\":14874:14878   */\n      dup3\n        /* \"#utility.yul\":14870:14886   */\n      shl\n        /* \"#utility.yul\":14849:14886   */\n      swap1\n      pop\n        /* \"#utility.yul\":14786:14893   */\n      swap3\n      swap2\n      pop\n      pop\n      jump\t// out\n        /* \"#utility.yul\":14899:15292   */\n    tag_139:\n        /* \"#utility.yul\":14968:14974   */\n      0x00\n        /* \"#utility.yul\":15018:15019   */\n      0x08\n        /* \"#utility.yul\":15006:15016   */\n      dup4\n        /* \"#utility.yul\":15002:15020   */\n      mul\n        /* \"#utility.yul\":15041:15138   */\n      tag_310\n        /* \"#utility.yul\":15071:15137   */\n      0xffffffffffffffffffffffffffffffffffffffffffffffffffffffffffffffff\n        /* \"#utility.yul\":15060:15069   */\n      dup3\n        /* \"#utility.yul\":15041:15138   */\n      tag_138\n      jump\t// in\n    tag_310:\n        /* \"#utility.yul\":15159:15198   */\n      tag_311\n        /* \"#utility.yul\":15189:15197   */\n      dup7\n        /* \"#utility.yul\":15178:15187   */\n      dup4\n        /* \"#utility.yul\":15159:15198   */\n      tag_138\n      jump\t// in\n    tag_311:\n        /* \"#utility.yul\":15147:15198   */\n      swap6\n      pop\n        /* \"#utility.yul\":15231:15235   */\n      dup1\n        /* \"#utility.yul\":15227:15236   */\n      not\n        /* \"#utility.yul\":15220:15225   */\n      dup5\n        /* \"#utility.yul\":15216:15237   */\n      and\n        /* \"#utility.yul\":15207:15237   */\n      swap4\n      pop\n        /* \"#utility.yul\":15280:15284   */\n      dup1\n        /* \"#utility.yul\":15270:15278   */\n      dup7\n        /* \"#utility.yul\":15266:15285   */\n      and\n        /* \"#utility.yul\":15259:15264   */\n      dup5\n        /* \"#utility.yul\":15256:15286   */\n      or\n        /* \"#utility.yul\":15246:15286   */\n      swap3\n      pop\n        /* \"#utility.yul\":14975:15292   */\n      pop\n      pop\n        /* \"#utility.yul\":14899:15292   */\n      swap4\n      swap3\n      pop\n      pop\n      pop\n      jump\t// out\n        /* \"#utility.yul\":15298:15440   */\n    tag_140:\n        /* \"#utility.yul\":15348:15357   */\n      0x00\n        /* \"#utility.yul\":15381:15434   */\n      tag_313\n        /* \"#utility.yul\":15399:15433   */\n      tag_314\n        /* \"#utility.yul\":15408:15432   */\n      tag_315\n        /* \"#utility.yul\":15426:15431   */\n      dup5\n        /* \"#utility.yul\":15408:15432   */\n      tag_94\n      jump\t// in\n    tag_315:\n        /* \"#utility.yul\":15399:15433   */\n      tag_121\n      jump\t// in\n    tag_314:\n        /* \"#utility.yul\":15381:15434   */\n      tag_94\n      jump\t// in\n    tag_313:\n        /* \"#utility.yul\":15368:15434   */\n      swap1\n      pop\n        /* \"#utility.yul\":15298:15440   */\n      swap2\n      swap1\n      pop\n      jump\t// out\n        /* \"#utility.yul\":15446:15521   */\n    tag_141:\n        /* \"#utility.yul\":15489:15492   */\n      0x00\n        /* \"#utility.yul\":15510:15515   */\n      dup2\n        /* \"#utility.yul\":15503:15515   */\n      swap1\n      pop\n        /* \"#utility.yul\":15446:15521   */\n      swap2\n      swap1\n      pop\n      jump\t// out\n        /* \"#utility.yul\":15527:15796   */\n    tag_142:\n        /* \"#utility.yul\":15637:15676   */\n      tag_318\n        /* \"#utility.yul\":15668:15675   */\n      dup4\n        /* \"#utility.yul\":15637:15676   */\n      tag_140\n      jump\t// in\n    tag_318:\n        /* \"#utility.yul\":15698:15789   */\n      tag_319\n        /* \"#utility.yul\":15747:15788   */\n      tag_320\n        /* \"#utility.yul\":15771:15787   */\n      dup3\n        /* \"#utility.yul\":15747:15788   */\n      tag_141\n      jump\t// in\n    tag_320:\n        /* \"#utility.yul\":15739:15745   */\n      dup5\n        /* \"#utility.yul\":15732:15736   */\n      dup5\n        /* \"#utility.yul\":15726:15737   */\n      sload\n        /* \"#utility.yul\":15698:15789   */\n      tag_139\n      jump\t// in\n    tag_319:\n        /* \"#utility.yul\":15692:15696   */\n      dup3\n        /* \"#utility.yul\":15685:15790   */\n      sstore\n        /* \"#utility.yul\":15603:15796   */\n      pop\n        /* \"#utility.yul\":15527:15796   */\n      pop\n      pop\n      pop\n      jump\t// out\n        /* \"#utility.yul\":15802:15875   */\n    tag_143:\n        /* \"#utility.yul\":15847:15850   */\n      0x00\n        /* \"#utility.yul\":15802:15875   */\n      swap1\n      jump\t// out\n        /* \"#utility.yul\":15881:16070   */\n    tag_144:\n        /* \"#utility.yul\":15958:15990   */\n      tag_323\n      tag_143\n      jump\t// in\n    tag_323:\n        /* \"#utility.yul\":15999:16064   */\n      tag_324\n        /* \"#utility.yul\":16057:16063   */\n      dup2\n        /* \"#utility.yul\":16049:16055   */\n      dup5\n        /* \"#utility.yul\":16043:16047   */\n      dup5\n        /* \"#utility.yul\":15999:16064   */\n      tag_142\n      jump\t// in\n    tag_324:\n        /* \"#utility.yul\":15934:16070   */\n      pop\n        /* \"#utility.yul\":15881:16070   */\n      pop\n      pop\n      jump\t// out\n        /* \"#utility.yul\":16076:16262   */\n    tag_145:\n        /* \"#utility.yul\":16136:16256   */\n    tag_326:\n        /* \"#utility.yul\":16153:16156   */\n      dup2\n        /* \"#utility.yul\":16146:16151   */\n      dup2\n        /* \"#utility.yul\":16143:16157   */\n      lt\n        /* \"#utility.yul\":16136:16256   */\n      iszero\n      tag_328\n      jumpi\n        /* \"#utility.yul\":16207:16246   */\n      tag_329\n        /* \"#utility.yul\":16244:16245   */\n      0x00\n        /* \"#utility.yul\":16237:16242   */\n      dup3\n        /* \"#utility.yul\":16207:16246   */\n      tag_144\n      jump\t// in\n    tag_329:\n        /* \"#utility.yul\":16180:16181   */\n      0x01\n        /* \"#utility.yul\":16173:16178   */\n      dup2\n        /* \"#utility.yul\":16169:16182   */\n      add\n        /* \"#utility.yul\":16160:16182   */\n      swap1\n      pop\n        /* \"#utility.yul\":16136:16256   */\n      jump(tag_326)\n    tag_328:\n        /* \"#utility.yul\":16076:16262   */\n      pop\n      pop\n      jump\t// out\n        /* \"#utility.yul\":16268:16811   */\n    tag_146:\n        /* \"#utility.yul\":16369:16371   */\n      0x1f\n        /* \"#utility.yul\":16364:16367   */\n      dup3\n        /* \"#utility.yul\":16361:16372   */\n      gt\n        /* \"#utility.yul\":16358:16804   */\n      iszero\n      tag_331\n      jumpi\n        /* \"#utility.yul\":16403:16441   */\n      tag_332\n        /* \"#utility.yul\":16435:16440   */\n      dup2\n        /* \"#utility.yul\":16403:16441   */\n      tag_136\n      jump\t// in\n    tag_332:\n        /* \"#utility.yul\":16487:16516   */\n      tag_333\n        /* \"#utility.yul\":16505:16515   */\n      dup5\n        /* \"#utility.yul\":16487:16516   */\n      tag_137\n      jump\t// in\n    tag_333:\n        /* \"#utility.yul\":16477:16485   */\n      dup2\n        /* \"#utility.yul\":16473:16517   */\n      add\n        /* \"#utility.yul\":16670:16672   */\n      0x20\n        /* \"#utility.yul\":16658:16668   */\n      dup6\n        /* \"#utility.yul\":16655:16673   */\n      lt\n        /* \"#utility.yul\":16652:16701   */\n      iszero\n      tag_334\n      jumpi\n        /* \"#utility.yul\":16691:16699   */\n      dup2\n        /* \"#utility.yul\":16676:16699   */\n      swap1\n      pop\n        /* \"#utility.yul\":16652:16701   */\n    tag_334:\n        /* \"#utility.yul\":16714:16794   */\n      tag_335\n        /* \"#utility.yul\":16770:16792   */\n      tag_336\n        /* \"#utility.yul\":16788:16791   */\n      dup6\n        /* \"#utility.yul\":16770:16792   */\n      tag_137\n      jump\t// in\n    tag_336:\n        /* \"#utility.yul\":16760:16768   */\n      dup4\n        /* \"#utility.yul\":16756:16793   */\n      add\n        /* \"#utility.yul\":16743:16754   */\n      dup3\n        /* \"#utility.yul\":16714:16794   */\n      tag_145\n      jump\t// in\n    tag_335:\n        /* \"#utility.yul\":16373:16804   */\n      pop\n      pop\n        /* \"#utility.yul\":16358:16804   */\n    tag_331:\n        /* \"#utility.yul\":16268:16811   */\n      pop\n      pop\n      pop\n      jump\t// out\n        /* \"#utility.yul\":16817:16934   */\n    tag_147:\n        /* \"#utility.yul\":16871:16879   */\n      0x00\n        /* \"#utility.yul\":16921:16926   */\n      dup3\n        /* \"#utility.yul\":16915:16919   */\n      dup3\n        /* \"#utility.yul\":16911:16927   */\n      shr\n        /* \"#utility.yul\":16890:16927   */\n      swap1\n      pop\n        /* \"#utility.yul\":16817:16934   */\n      swap3\n      swap2\n      pop\n      pop\n      jump\t// out\n        /* \"#utility.yul\":16940:17109   */\n    tag_148:\n        /* \"#utility.yul\":16984:16990   */\n      0x00\n        /* \"#utility.yul\":17017:17068   */\n      tag_339\n        /* \"#utility.yul\":17065:17066   */\n      0x00\n        /* \"#utility.yul\":17061:17067   */\n      not\n        /* \"#utility.yul\":17053:17058   */\n      dup5\n        /* \"#utility.yul\":17050:17051   */\n      0x08\n        /* \"#utility.yul\":17046:17059   */\n      mul\n        /* \"#utility.yul\":17017:17068   */\n      tag_147\n      jump\t// in\n    tag_339:\n        /* \"#utility.yul\":17013:17069   */\n      not\n        /* \"#utility.yul\":17098:17102   */\n      dup1\n        /* \"#utility.yul\":17092:17096   */\n      dup4\n        /* \"#utility.yul\":17088:17103   */\n      and\n        /* \"#utility.yul\":17078:17103   */\n      swap2\n      pop\n        /* \"#utility.yul\":16991:17109   */\n      pop\n        /* \"#utility.yul\":16940:17109   */\n      swap3\n      swap2\n      pop\n      pop\n      jump\t// out\n        /* \"#utility.yul\":17114:17409   */\n    tag_149:\n        /* \"#utility.yul\":17190:17194   */\n      0x00\n        /* \"#utility.yul\":17336:17365   */\n      tag_341\n        /* \"#utility.yul\":17361:17364   */\n      dup4\n        /* \"#utility.yul\":17355:17359   */\n      dup4\n        /* \"#utility.yul\":17336:17365   */\n      tag_148\n      jump\t// in\n    tag_341:\n        /* \"#utility.yul\":17328:17365   */\n      swap2\n      pop\n        /* \"#utility.yul\":17398:17401   */\n      dup3\n        /* \"#utility.yul\":17395:17396   */\n      0x02\n        /* \"#utility.yul\":17391:17402   */\n      mul\n        /* \"#utility.yul\":17385:17389   */\n      dup3\n        /* \"#utility.yul\":17382:17403   */\n      or\n        /* \"#utility.yul\":17374:17403   */\n      swap1\n      pop\n        /* \"#utility.yul\":17114:17409   */\n      swap3\n      swap2\n      pop\n      pop\n      jump\t// out\n        /* \"#utility.yul\":17414:18809   */\n    tag_66:\n        /* \"#utility.yul\":17531:17568   */\n      tag_343\n        /* \"#utility.yul\":17564:17567   */\n      dup3\n        /* \"#utility.yul\":17531:17568   */\n      tag_117\n      jump\t// in\n    tag_343:\n        /* \"#utility.yul\":17633:17651   */\n      0xffffffffffffffff\n        /* \"#utility.yul\":17625:17631   */\n      dup2\n        /* \"#utility.yul\":17622:17652   */\n      gt\n        /* \"#utility.yul\":17619:17675   */\n      iszero\n      tag_344\n      jumpi\n        /* \"#utility.yul\":17655:17673   */\n      tag_345\n      tag_110\n      jump\t// in\n    tag_345:\n        /* \"#utility.yul\":17619:17675   */\n    tag_344:\n        /* \"#utility.yul\":17699:17737   */\n      tag_346\n        /* \"#utility.yul\":17731:17735   */\n      dup3\n        /* \"#utility.yul\":17725:17736   */\n      sload\n        /* \"#utility.yul\":17699:17737   */\n      tag_70\n      jump\t// in\n    tag_346:\n        /* \"#utility.yul\":17784:17851   */\n      tag_347\n        /* \"#utility.yul\":17844:17850   */\n      dup3\n        /* \"#utility.yul\":17836:17842   */\n      dup3\n        /* \"#utility.yul\":17830:17834   */\n      dup6\n        /* \"#utility.yul\":17784:17851   */\n      tag_146\n      jump\t// in\n    tag_347:\n        /* \"#utility.yul\":17878:17879   */\n      0x00\n        /* \"#utility.yul\":17902:17906   */\n      0x20\n        /* \"#utility.yul\":17889:17906   */\n      swap1\n      pop\n        /* \"#utility.yul\":17934:17936   */\n      0x1f\n        /* \"#utility.yul\":17926:17932   */\n      dup4\n        /* \"#utility.yul\":17923:17937   */\n      gt\n        /* \"#utility.yul\":17951:17952   */\n      0x01\n        /* \"#utility.yul\":17946:18564   */\n      dup2\n      eq\n      tag_349\n      jumpi\n        /* \"#utility.yul\":18608:18609   */\n      0x00\n        /* \"#utility.yul\":18625:18631   */\n      dup5\n        /* \"#utility.yul\":18622:18699   */\n      iszero\n      tag_350\n      jumpi\n        /* \"#utility.yul\":18674:18683   */\n      dup3\n        /* \"#utility.yul\":18669:18672   */\n      dup8\n        /* \"#utility.yul\":18665:18684   */\n      add\n        /* \"#utility.yul\":18659:18685   */\n      mload\n        /* \"#utility.yul\":18650:18685   */\n      swap1\n      pop\n        /* \"#utility.yul\":18622:18699   */\n    tag_350:\n        /* \"#utility.yul\":18725:18792   */\n      tag_351\n        /* \"#utility.yul\":18785:18791   */\n      dup6\n        /* \"#utility.yul\":18778:18783   */\n      dup3\n        /* \"#utility.yul\":18725:18792   */\n      tag_149\n      jump\t// in\n    tag_351:\n        /* \"#utility.yul\":18719:18723   */\n      dup7\n        /* \"#utility.yul\":18712:18793   */\n      sstore\n        /* \"#utility.yul\":18581:18803   */\n      pop\n        /* \"#utility.yul\":17916:18803   */\n      jump(tag_348)\n        /* \"#utility.yul\":17946:18564   */\n    tag_349:\n        /* \"#utility.yul\":17998:18002   */\n      0x1f\n        /* \"#utility.yul\":17994:18003   */\n      not\n        /* \"#utility.yul\":17986:17992   */\n      dup5\n        /* \"#utility.yul\":17982:18004   */\n      and\n        /* \"#utility.yul\":18032:18069   */\n      tag_352\n        /* \"#utility.yul\":18064:18068   */\n      dup7\n        /* \"#utility.yul\":18032:18069   */\n      tag_136\n      jump\t// in\n    tag_352:\n        /* \"#utility.yul\":18091:18092   */\n      0x00\n        /* \"#utility.yul\":18105:18313   */\n    tag_353:\n        /* \"#utility.yul\":18119:18126   */\n      dup3\n        /* \"#utility.yul\":18116:18117   */\n      dup2\n        /* \"#utility.yul\":18113:18127   */\n      lt\n        /* \"#utility.yul\":18105:18313   */\n      iszero\n      tag_355\n      jumpi\n        /* \"#utility.yul\":18198:18207   */\n      dup5\n        /* \"#utility.yul\":18193:18196   */\n      dup10\n        /* \"#utility.yul\":18189:18208   */\n      add\n        /* \"#utility.yul\":18183:18209   */\n      mload\n        /* \"#utility.yul\":18175:18181   */\n      dup3\n        /* \"#utility.yul\":18168:18210   */\n      sstore\n        /* \"#utility.yul\":18249:18250   */\n      0x01\n        /* \"#utility.yul\":18241:18247   */\n      dup3\n        /* \"#utility.yul\":18237:18251   */\n      add\n        /* \"#utility.yul\":18227:18251   */\n      swap2\n      pop\n        /* \"#utility.yul\":18296:18298   */\n      0x20\n        /* \"#utility.yul\":18285:18294   */\n      dup6\n        /* \"#utility.yul\":18281:18299   */\n      add\n        /* \"#utility.yul\":18268:18299   */\n      swap5\n      pop\n        /* \"#utility.yul\":18142:18146   */\n      0x20\n        /* \"#utility.yul\":18139:18140   */\n      dup2\n        /* \"#utility.yul\":18135:18147   */\n      add\n        /* \"#utility.yul\":18130:18147   */\n      swap1\n      pop\n        /* \"#utility.yul\":18105:18313   */\n      jump(tag_353)\n    tag_355:\n        /* \"#utility.yul\":18341:18347   */\n      dup7\n        /* \"#utility.yul\":18332:18339   */\n      dup4\n        /* \"#utility.yul\":18329:18348   */\n      lt\n        /* \"#utility.yul\":18326:18505   */\n      iszero\n      tag_356\n      jumpi\n        /* \"#utility.yul\":18399:18408   */\n      dup5\n        /* \"#utility.yul\":18394:18397   */\n      dup10\n        /* \"#utility.yul\":18390:18409   */\n      add\n        /* \"#utility.yul\":18384:18410   */\n      mload\n        /* \"#utility.yul\":18442:18490   */\n      tag_357\n        /* \"#utility.yul\":18484:18488   */\n      0x1f\n        /* \"#utility.yul\":18476:18482   */\n      dup10\n        /* \"#utility.yul\":18472:18489   */\n      and\n        /* \"#utility.yul\":18461:18470   */\n      dup3\n        /* \"#utility.yul\":18442:18490   */\n      tag_148\n      jump\t// in\n    tag_357:\n        /* \"#utility.yul\":18434:18440   */\n      dup4\n        /* \"#utility.yul\":18427:18491   */\n      sstore\n        /* \"#utility.yul\":18349:18505   */\n      pop\n        /* \"#utility.yul\":18326:18505   */\n    tag_356:\n        /* \"#utility.yul\":18551:18552   */\n      0x01\n        /* \"#utility.yul\":18547:18548   */\n      0x02\n        /* \"#utility.yul\":18539:18545   */\n      dup9\n        /* \"#utility.yul\":18535:18549   */\n      mul\n        /* \"#utility.yul\":18531:18553   */\n      add\n        /* \"#utility.yul\":18525:18529   */\n      dup9\n        /* \"#utility.yul\":18518:18554   */\n      sstore\n        /* \"#utility.yul\":17953:18564   */\n      pop\n      pop\n      pop\n        /* \"#utility.yul\":17916:18803   */\n    tag_348:\n      pop\n        /* \"#utility.yul\":17506:18809   */\n      pop\n      pop\n      pop\n        /* \"#utility.yul\":17414:18809   */\n      pop\n      pop\n      jump\t// out\n        /* \"#utility.yul\":18815:19052   */\n    tag_150:\n        /* \"#utility.yul\":18955:18989   */\n      0x4f6e6c7920617574686f72697a65642072657461696c6572732063616e20636f\n        /* \"#utility.yul\":18951:18952   */\n      0x00\n        /* \"#utility.yul\":18943:18949   */\n      dup3\n        /* \"#utility.yul\":18939:18953   */\n      add\n        /* \"#utility.yul\":18932:18990   */\n      mstore\n        /* \"#utility.yul\":19024:19044   */\n      0x6e6669726d207468652064656c69766572790000000000000000000000000000\n        /* \"#utility.yul\":19019:19021   */\n      0x20\n        /* \"#utility.yul\":19011:19017   */\n      dup3\n        /* \"#utility.yul\":19007:19022   */\n      add\n        /* \"#utility.yul\":19000:19045   */\n      mstore\n        /* \"#utility.yul\":18815:19052   */\n      pop\n      jump\t// out\n        /* \"#utility.yul\":19058:19424   */\n    tag_151:\n        /* \"#utility.yul\":19200:19203   */\n      0x00\n        /* \"#utility.yul\":19221:19288   */\n      tag_360\n        /* \"#utility.yul\":19285:19287   */\n      0x32\n        /* \"#utility.yul\":19280:19283   */\n      dup4\n        /* \"#utility.yul\":19221:19288   */\n      tag_118\n      jump\t// in\n    tag_360:\n        /* \"#utility.yul\":19214:19288   */\n      swap2\n      pop\n        /* \"#utility.yul\":19297:19390   */\n      tag_361\n        /* \"#utility.yul\":19386:19389   */\n      dup3\n        /* \"#utility.yul\":19297:19390   */\n      tag_150\n      jump\t// in\n    tag_361:\n        /* \"#utility.yul\":19415:19417   */\n      0x40\n        /* \"#utility.yul\":19410:19413   */\n      dup3\n        /* \"#utility.yul\":19406:19418   */\n      add\n        /* \"#utility.yul\":19399:19418   */\n      swap1\n      pop\n        /* \"#utility.yul\":19058:19424   */\n      swap2\n      swap1\n      pop\n      jump\t// out\n        /* \"#utility.yul\":19430:19849   */\n    tag_88:\n        /* \"#utility.yul\":19596:19600   */\n      0x00\n        /* \"#utility.yul\":19634:19636   */\n      0x20\n        /* \"#utility.yul\":19623:19632   */\n      dup3\n        /* \"#utility.yul\":19619:19637   */\n      add\n        /* \"#utility.yul\":19611:19637   */\n      swap1\n      pop\n        /* \"#utility.yul\":19683:19692   */\n      dup2\n        /* \"#utility.yul\":19677:19681   */\n      dup2\n        /* \"#utility.yul\":19673:19693   */\n      sub\n        /* \"#utility.yul\":19669:19670   */\n      0x00\n        /* \"#utility.yul\":19658:19667   */\n      dup4\n        /* \"#utility.yul\":19654:19671   */\n      add\n        /* \"#utility.yul\":19647:19694   */\n      mstore\n        /* \"#utility.yul\":19711:19842   */\n      tag_363\n        /* \"#utility.yul\":19837:19841   */\n      dup2\n        /* \"#utility.yul\":19711:19842   */\n      tag_151\n      jump\t// in\n    tag_363:\n        /* \"#utility.yul\":19703:19842   */\n      swap1\n      pop\n        /* \"#utility.yul\":19430:19849   */\n      swap2\n      swap1\n      pop\n      jump\t// out\n        /* \"#utility.yul\":19855:20031   */\n    tag_152:\n        /* \"#utility.yul\":19995:20023   */\n      0x44656c697665727920616c726561647920636f6e6669726d6564000000000000\n        /* \"#utility.yul\":19991:19992   */\n      0x00\n        /* \"#utility.yul\":19983:19989   */\n      dup3\n        /* \"#utility.yul\":19979:19993   */\n      add\n        /* \"#utility.yul\":19972:20024   */\n      mstore\n        /* \"#utility.yul\":19855:20031   */\n      pop\n      jump\t// out\n        /* \"#utility.yul\":20037:20403   */\n    tag_153:\n        /* \"#utility.yul\":20179:20182   */\n      0x00\n        /* \"#utility.yul\":20200:20267   */\n      tag_366\n        /* \"#utility.yul\":20264:20266   */\n      0x1a\n        /* \"#utility.yul\":20259:20262   */\n      dup4\n        /* \"#utility.yul\":20200:20267   */\n      tag_118\n      jump\t// in\n    tag_366:\n        /* \"#utility.yul\":20193:20267   */\n      swap2\n      pop\n        /* \"#utility.yul\":20276:20369   */\n      tag_367\n        /* \"#utility.yul\":20365:20368   */\n      dup3\n        /* \"#utility.yul\":20276:20369   */\n      tag_152\n      jump\t// in\n    tag_367:\n        /* \"#utility.yul\":20394:20396   */\n      0x20\n        /* \"#utility.yul\":20389:20392   */\n      dup3\n        /* \"#utility.yul\":20385:20397   */\n      add\n        /* \"#utility.yul\":20378:20397   */\n      swap1\n      pop\n        /* \"#utility.yul\":20037:20403   */\n      swap2\n      swap1\n      pop\n      jump\t// out\n        /* \"#utility.yul\":20409:20828   */\n    tag_92:\n        /* \"#utility.yul\":20575:20579   */\n      0x00\n        /* \"#utility.yul\":20613:20615   */\n      0x20\n        /* \"#utility.yul\":20602:20611   */\n      dup3\n        /* \"#utility.yul\":20598:20616   */\n      add\n        /* \"#utility.yul\":20590:20616   */\n      swap1\n      pop\n        /* \"#utility.yul\":20662:20671   */\n      dup2\n        /* \"#utility.yul\":20656:20660   */\n      dup2\n        /* \"#utility.yul\":20652:20672   */\n      sub\n        /* \"#utility.yul\":20648:20649   */\n      0x00\n        /* \"#utility.yul\":20637:20646   */\n      dup4\n        /* \"#utility.yul\":20633:20650   */\n      add\n        /* \"#utility.yul\":20626:20673   */\n      mstore\n        /* \"#utility.yul\":20690:20821   */\n      tag_369\n        /* \"#utility.yul\":20816:20820   */\n      dup2\n        /* \"#utility.yul\":20690:20821   */\n      tag_153\n      jump\t// in\n    tag_369:\n        /* \"#utility.yul\":20682:20821   */\n      swap1\n      pop\n        /* \"#utility.yul\":20409:20828   */\n      swap2\n      swap1\n      pop\n      jump\t// out\n\n    auxdata: 0xa264697066735822122067f5c34cbed426144135c74ababfd16b710a8b6a1dbf214c96d38bd53a9782e864736f6c634300081a0033\n}\n",
				"bytecode": {
					"linkReferences": {},
					"object": "60806040525f600255348015610013575f80fd5b5060405161159c38038061159c83398181016040528101906100359190610118565b335f806101000a81548173ffffffffffffffffffffffffffffffffffffffff021916908373ffffffffffffffffffffffffffffffffffffffff1602179055508060035f6101000a81548173ffffffffffffffffffffffffffffffffffffffff021916908373ffffffffffffffffffffffffffffffffffffffff16021790555050610143565b5f80fd5b5f73ffffffffffffffffffffffffffffffffffffffff82169050919050565b5f6100e7826100be565b9050919050565b6100f7816100dd565b8114610101575f80fd5b50565b5f81519050610112816100ee565b92915050565b5f6020828403121561012d5761012c6100ba565b5b5f61013a84828501610104565b91505092915050565b61144c806101505f395ff3fe608060405234801561000f575f80fd5b5060043610610086575f3560e01c8063a9e4a32411610059578063a9e4a32414610110578063b11168ec14610146578063ba2fe9b714610164578063fd84cb971461018257610086565b80635b77b6a61461008a5780638ca5ded1146100a85780639369d880146100c4578063a3d8a331146100f4575b5f80fd5b61009261019e565b60405161009f9190610930565b60405180910390f35b6100c260048036038101906100bd91906109b4565b6101a4565b005b6100de60048036038101906100d991906109b4565b610289565b6040516100eb91906109f9565b60405180910390f35b61010e60048036038101906101099190610b78565b6102a6565b005b61012a60048036038101906101259190610bd2565b610580565b60405161013d9796959493929190610c5d565b60405180910390f35b61014e61075c565b60405161015b9190610d3a565b60405180910390f35b61016c610781565b6040516101799190610d62565b60405180910390f35b61019c60048036038101906101979190610bd2565b6107a4565b005b60025481565b5f8054906101000a900473ffffffffffffffffffffffffffffffffffffffff1673ffffffffffffffffffffffffffffffffffffffff163373ffffffffffffffffffffffffffffffffffffffff1614610231576040517f08c379a000000000000000000000000000000000000000000000000000000000815260040161022890610deb565b60405180910390fd5b600160045f8373ffffffffffffffffffffffffffffffffffffffff1673ffffffffffffffffffffffffffffffffffffffff1681526020019081526020015f205f6101000a81548160ff02191690831515021790555050565b6004602052805f5260405f205f915054906101000a900460ff1681565b5f8054906101000a900473ffffffffffffffffffffffffffffffffffffffff1673ffffffffffffffffffffffffffffffffffffffff163373ffffffffffffffffffffffffffffffffffffffff1614610333576040517f08c379a000000000000000000000000000000000000000000000000000000000815260040161032a90610deb565b60405180910390fd5b5f805f8060035f9054906101000a900473ffffffffffffffffffffffffffffffffffffffff1673ffffffffffffffffffffffffffffffffffffffff1663b9db15b4876040518263ffffffff1660e01b81526004016103919190610930565b5f60405180830381865afa1580156103ab573d5f803e3d5ffd5b505050506040513d5f823e3d601f19601f820116820180604052508101906103d39190610e8b565b955095505050935093506040518060400160405280600c81526020017f4d616e756661637475726564000000000000000000000000000000000000000081525080519060200120818051906020012014610462576040517f08c379a000000000000000000000000000000000000000000000000000000000815260040161045990610fce565b60405180910390fd5b60025f81548092919061047490611019565b91905055506040518060e0016040528060025481526020018581526020018481526020018681526020014281526020016040518060400160405280600a81526020017f496e205472616e7369740000000000000000000000000000000000000000000081525081526020015f151581525060015f60025481526020019081526020015f205f820151815f015560208201518160010190816105159190611251565b506040820151816002015560608201518160030190816105359190611251565b506080820151816004015560a08201518160050190816105559190611251565b5060c0820151816006015f6101000a81548160ff021916908315150217905550905050505050505050565b6001602052805f5260405f205f91509050805f0154908060010180546105a59061108d565b80601f01602080910402602001604051908101604052809291908181526020018280546105d19061108d565b801561061c5780601f106105f35761010080835404028352916020019161061c565b820191905f5260205f20905b8154815290600101906020018083116105ff57829003601f168201915b5050505050908060020154908060030180546106379061108d565b80601f01602080910402602001604051908101604052809291908181526020018280546106639061108d565b80156106ae5780601f10610685576101008083540402835291602001916106ae565b820191905f5260205f20905b81548152906001019060200180831161069157829003601f168201915b5050505050908060040154908060050180546106c99061108d565b80601f01602080910402602001604051908101604052809291908181526020018280546106f59061108d565b80156107405780601f1061071757610100808354040283529160200191610740565b820191905f5260205f20905b81548152906001019060200180831161072357829003601f168201915b505050505090806006015f9054906101000a900460ff16905087565b60035f9054906101000a900473ffffffffffffffffffffffffffffffffffffffff1681565b5f8054906101000a900473ffffffffffffffffffffffffffffffffffffffff1681565b60045f3373ffffffffffffffffffffffffffffffffffffffff1673ffffffffffffffffffffffffffffffffffffffff1681526020019081526020015f205f9054906101000a900460ff1661082d576040517f08c379a000000000000000000000000000000000000000000000000000000000815260040161082490611390565b60405180910390fd5b5f151560015f8381526020019081526020015f206006015f9054906101000a900460ff16151514610893576040517f08c379a000000000000000000000000000000000000000000000000000000000815260040161088a906113f8565b60405180910390fd5b6001805f8381526020019081526020015f206006015f6101000a81548160ff0219169083151502179055506040518060400160405280600981526020017f44656c697665726564000000000000000000000000000000000000000000000081525060015f8381526020019081526020015f2060050190816109149190611251565b5050565b5f819050919050565b61092a81610918565b82525050565b5f6020820190506109435f830184610921565b92915050565b5f604051905090565b5f80fd5b5f80fd5b5f73ffffffffffffffffffffffffffffffffffffffff82169050919050565b5f6109838261095a565b9050919050565b61099381610979565b811461099d575f80fd5b50565b5f813590506109ae8161098a565b92915050565b5f602082840312156109c9576109c8610952565b5b5f6109d6848285016109a0565b91505092915050565b5f8115159050919050565b6109f3816109df565b82525050565b5f602082019050610a0c5f8301846109ea565b92915050565b610a1b81610918565b8114610a25575f80fd5b50565b5f81359050610a3681610a12565b92915050565b5f80fd5b5f80fd5b5f601f19601f8301169050919050565b7f4e487b71000000000000000000000000000000000000000000000000000000005f52604160045260245ffd5b610a8a82610a44565b810181811067ffffffffffffffff82111715610aa957610aa8610a54565b5b80604052505050565b5f610abb610949565b9050610ac78282610a81565b919050565b5f67ffffffffffffffff821115610ae657610ae5610a54565b5b610aef82610a44565b9050602081019050919050565b828183375f83830152505050565b5f610b1c610b1784610acc565b610ab2565b905082815260208101848484011115610b3857610b37610a40565b5b610b43848285610afc565b509392505050565b5f82601f830112610b5f57610b5e610a3c565b5b8135610b6f848260208601610b0a565b91505092915050565b5f8060408385031215610b8e57610b8d610952565b5b5f610b9b85828601610a28565b925050602083013567ffffffffffffffff811115610bbc57610bbb610956565b5b610bc885828601610b4b565b9150509250929050565b5f60208284031215610be757610be6610952565b5b5f610bf484828501610a28565b91505092915050565b5f81519050919050565b5f82825260208201905092915050565b8281835e5f83830152505050565b5f610c2f82610bfd565b610c398185610c07565b9350610c49818560208601610c17565b610c5281610a44565b840191505092915050565b5f60e082019050610c705f83018a610921565b8181036020830152610c828189610c25565b9050610c916040830188610921565b8181036060830152610ca38187610c25565b9050610cb26080830186610921565b81810360a0830152610cc48185610c25565b9050610cd360c08301846109ea565b98975050505050505050565b5f819050919050565b5f610d02610cfd610cf88461095a565b610cdf565b61095a565b9050919050565b5f610d1382610ce8565b9050919050565b5f610d2482610d09565b9050919050565b610d3481610d1a565b82525050565b5f602082019050610d4d5f830184610d2b565b92915050565b610d5c81610979565b82525050565b5f602082019050610d755f830184610d53565b92915050565b7f4f6e6c7920746865206c6f676973746963732070726f76696465722063616e205f8201527f706572666f726d207468697320616374696f6e00000000000000000000000000602082015250565b5f610dd5603383610c07565b9150610de082610d7b565b604082019050919050565b5f6020820190508181035f830152610e0281610dc9565b9050919050565b5f610e1b610e1684610acc565b610ab2565b905082815260208101848484011115610e3757610e36610a40565b5b610e42848285610c17565b509392505050565b5f82601f830112610e5e57610e5d610a3c565b5b8151610e6e848260208601610e09565b91505092915050565b5f81519050610e8581610a12565b92915050565b5f805f805f8060c08789031215610ea557610ea4610952565b5b5f87015167ffffffffffffffff811115610ec257610ec1610956565b5b610ece89828a01610e4a565b9650506020610edf89828a01610e77565b955050604087015167ffffffffffffffff811115610f0057610eff610956565b5b610f0c89828a01610e4a565b945050606087015167ffffffffffffffff811115610f2d57610f2c610956565b5b610f3989828a01610e4a565b9350506080610f4a89828a01610e77565b92505060a087015167ffffffffffffffff811115610f6b57610f6a610956565b5b610f7789828a01610e4a565b9150509295509295509295565b7f50726f64756374206e6f7420726561647920666f722064656c697665727900005f82015250565b5f610fb8601e83610c07565b9150610fc382610f84565b602082019050919050565b5f6020820190508181035f830152610fe581610fac565b9050919050565b7f4e487b71000000000000000000000000000000000000000000000000000000005f52601160045260245ffd5b5f61102382610918565b91507fffffffffffffffffffffffffffffffffffffffffffffffffffffffffffffffff820361105557611054610fec565b5b600182019050919050565b7f4e487b71000000000000000000000000000000000000000000000000000000005f52602260045260245ffd5b5f60028204905060018216806110a457607f821691505b6020821081036110b7576110b6611060565b5b50919050565b5f819050815f5260205f209050919050565b5f6020601f8301049050919050565b5f82821b905092915050565b5f600883026111197fffffffffffffffffffffffffffffffffffffffffffffffffffffffffffffffff826110de565b61112386836110de565b95508019841693508086168417925050509392505050565b5f61115561115061114b84610918565b610cdf565b610918565b9050919050565b5f819050919050565b61116e8361113b565b61118261117a8261115c565b8484546110ea565b825550505050565b5f90565b61119661118a565b6111a1818484611165565b505050565b5b818110156111c4576111b95f8261118e565b6001810190506111a7565b5050565b601f821115611209576111da816110bd565b6111e3846110cf565b810160208510156111f2578190505b6112066111fe856110cf565b8301826111a6565b50505b505050565b5f82821c905092915050565b5f6112295f198460080261120e565b1980831691505092915050565b5f611241838361121a565b9150826002028217905092915050565b61125a82610bfd565b67ffffffffffffffff81111561127357611272610a54565b5b61127d825461108d565b6112888282856111c8565b5f60209050601f8311600181146112b9575f84156112a7578287015190505b6112b18582611236565b865550611318565b601f1984166112c7866110bd565b5f5b828110156112ee578489015182556001820191506020850194506020810190506112c9565b8683101561130b5784890151611307601f89168261121a565b8355505b6001600288020188555050505b505050505050565b7f4f6e6c7920617574686f72697a65642072657461696c6572732063616e20636f5f8201527f6e6669726d207468652064656c69766572790000000000000000000000000000602082015250565b5f61137a603283610c07565b915061138582611320565b604082019050919050565b5f6020820190508181035f8301526113a78161136e565b9050919050565b7f44656c697665727920616c726561647920636f6e6669726d65640000000000005f82015250565b5f6113e2601a83610c07565b91506113ed826113ae565b602082019050919050565b5f6020820190508181035f83015261140f816113d6565b905091905056fea264697066735822122067f5c34cbed426144135c74ababfd16b710a8b6a1dbf214c96d38bd53a9782e864736f6c634300081a0033",
					"opcodes": "PUSH1 0x80 PUSH1 0x40 MSTORE PUSH0 PUSH1 0x2 SSTORE CALLVALUE DUP1 ISZERO PUSH2 0x13 JUMPI PUSH0 DUP1 REVERT JUMPDEST POP PUSH1 0x40 MLOAD PUSH2 0x159C CODESIZE SUB DUP1 PUSH2 0x159C DUP4 CODECOPY DUP2 DUP2 ADD PUSH1 0x40 MSTORE DUP2 ADD SWAP1 PUSH2 0x35 SWAP2 SWAP1 PUSH2 0x118 JUMP JUMPDEST CALLER PUSH0 DUP1 PUSH2 0x100 EXP DUP2 SLOAD DUP2 PUSH20 0xFFFFFFFFFFFFFFFFFFFFFFFFFFFFFFFFFFFFFFFF MUL NOT AND SWAP1 DUP4 PUSH20 0xFFFFFFFFFFFFFFFFFFFFFFFFFFFFFFFFFFFFFFFF AND MUL OR SWAP1 SSTORE POP DUP1 PUSH1 0x3 PUSH0 PUSH2 0x100 EXP DUP2 SLOAD DUP2 PUSH20 0xFFFFFFFFFFFFFFFFFFFFFFFFFFFFFFFFFFFFFFFF MUL NOT AND SWAP1 DUP4 PUSH20 0xFFFFFFFFFFFFFFFFFFFFFFFFFFFFFFFFFFFFFFFF AND MUL OR SWAP1 SSTORE POP POP PUSH2 0x143 JUMP JUMPDEST PUSH0 DUP1 REVERT JUMPDEST PUSH0 PUSH20 0xFFFFFFFFFFFFFFFFFFFFFFFFFFFFFFFFFFFFFFFF DUP3 AND SWAP1 POP SWAP2 SWAP1 POP JUMP JUMPDEST PUSH0 PUSH2 0xE7 DUP3 PUSH2 0xBE JUMP JUMPDEST SWAP1 POP SWAP2 SWAP1 POP JUMP JUMPDEST PUSH2 0xF7 DUP2 PUSH2 0xDD JUMP JUMPDEST DUP2 EQ PUSH2 0x101 JUMPI PUSH0 DUP1 REVERT JUMPDEST POP JUMP JUMPDEST PUSH0 DUP2 MLOAD SWAP1 POP PUSH2 0x112 DUP2 PUSH2 0xEE JUMP JUMPDEST SWAP3 SWAP2 POP POP JUMP JUMPDEST PUSH0 PUSH1 0x20 DUP3 DUP5 SUB SLT ISZERO PUSH2 0x12D JUMPI PUSH2 0x12C PUSH2 0xBA JUMP JUMPDEST JUMPDEST PUSH0 PUSH2 0x13A DUP5 DUP3 DUP6 ADD PUSH2 0x104 JUMP JUMPDEST SWAP2 POP POP SWAP3 SWAP2 POP POP JUMP JUMPDEST PUSH2 0x144C DUP1 PUSH2 0x150 PUSH0 CODECOPY PUSH0 RETURN INVALID PUSH1 0x80 PUSH1 0x40 MSTORE CALLVALUE DUP1 ISZERO PUSH2 0xF JUMPI PUSH0 DUP1 REVERT JUMPDEST POP PUSH1 0x4 CALLDATASIZE LT PUSH2 0x86 JUMPI PUSH0 CALLDATALOAD PUSH1 0xE0 SHR DUP1 PUSH4 0xA9E4A324 GT PUSH2 0x59 JUMPI DUP1 PUSH4 0xA9E4A324 EQ PUSH2 0x110 JUMPI DUP1 PUSH4 0xB11168EC EQ PUSH2 0x146 JUMPI DUP1 PUSH4 0xBA2FE9B7 EQ PUSH2 0x164 JUMPI DUP1 PUSH4 0xFD84CB97 EQ PUSH2 0x182 JUMPI PUSH2 0x86 JUMP JUMPDEST DUP1 PUSH4 0x5B77B6A6 EQ PUSH2 0x8A JUMPI DUP1 PUSH4 0x8CA5DED1 EQ PUSH2 0xA8 JUMPI DUP1 PUSH4 0x9369D880 EQ PUSH2 0xC4 JUMPI DUP1 PUSH4 0xA3D8A331 EQ PUSH2 0xF4 JUMPI JUMPDEST PUSH0 DUP1 REVERT JUMPDEST PUSH2 0x92 PUSH2 0x19E JUMP JUMPDEST PUSH1 0x40 MLOAD PUSH2 0x9F SWAP2 SWAP1 PUSH2 0x930 JUMP JUMPDEST PUSH1 0x40 MLOAD DUP1 SWAP2 SUB SWAP1 RETURN JUMPDEST PUSH2 0xC2 PUSH1 0x4 DUP1 CALLDATASIZE SUB DUP2 ADD SWAP1 PUSH2 0xBD SWAP2 SWAP1 PUSH2 0x9B4 JUMP JUMPDEST PUSH2 0x1A4 JUMP JUMPDEST STOP JUMPDEST PUSH2 0xDE PUSH1 0x4 DUP1 CALLDATASIZE SUB DUP2 ADD SWAP1 PUSH2 0xD9 SWAP2 SWAP1 PUSH2 0x9B4 JUMP JUMPDEST PUSH2 0x289 JUMP JUMPDEST PUSH1 0x40 MLOAD PUSH2 0xEB SWAP2 SWAP1 PUSH2 0x9F9 JUMP JUMPDEST PUSH1 0x40 MLOAD DUP1 SWAP2 SUB SWAP1 RETURN JUMPDEST PUSH2 0x10E PUSH1 0x4 DUP1 CALLDATASIZE SUB DUP2 ADD SWAP1 PUSH2 0x109 SWAP2 SWAP1 PUSH2 0xB78 JUMP JUMPDEST PUSH2 0x2A6 JUMP JUMPDEST STOP JUMPDEST PUSH2 0x12A PUSH1 0x4 DUP1 CALLDATASIZE SUB DUP2 ADD SWAP1 PUSH2 0x125 SWAP2 SWAP1 PUSH2 0xBD2 JUMP JUMPDEST PUSH2 0x580 JUMP JUMPDEST PUSH1 0x40 MLOAD PUSH2 0x13D SWAP8 SWAP7 SWAP6 SWAP5 SWAP4 SWAP3 SWAP2 SWAP1 PUSH2 0xC5D JUMP JUMPDEST PUSH1 0x40 MLOAD DUP1 SWAP2 SUB SWAP1 RETURN JUMPDEST PUSH2 0x14E PUSH2 0x75C JUMP JUMPDEST PUSH1 0x40 MLOAD PUSH2 0x15B SWAP2 SWAP1 PUSH2 0xD3A JUMP JUMPDEST PUSH1 0x40 MLOAD DUP1 SWAP2 SUB SWAP1 RETURN JUMPDEST PUSH2 0x16C PUSH2 0x781 JUMP JUMPDEST PUSH1 0x40 MLOAD PUSH2 0x179 SWAP2 SWAP1 PUSH2 0xD62 JUMP JUMPDEST PUSH1 0x40 MLOAD DUP1 SWAP2 SUB SWAP1 RETURN JUMPDEST PUSH2 0x19C PUSH1 0x4 DUP1 CALLDATASIZE SUB DUP2 ADD SWAP1 PUSH2 0x197 SWAP2 SWAP1 PUSH2 0xBD2 JUMP JUMPDEST PUSH2 0x7A4 JUMP JUMPDEST STOP JUMPDEST PUSH1 0x2 SLOAD DUP2 JUMP JUMPDEST PUSH0 DUP1 SLOAD SWAP1 PUSH2 0x100 EXP SWAP1 DIV PUSH20 0xFFFFFFFFFFFFFFFFFFFFFFFFFFFFFFFFFFFFFFFF AND PUSH20 0xFFFFFFFFFFFFFFFFFFFFFFFFFFFFFFFFFFFFFFFF AND CALLER PUSH20 0xFFFFFFFFFFFFFFFFFFFFFFFFFFFFFFFFFFFFFFFF AND EQ PUSH2 0x231 JUMPI PUSH1 0x40 MLOAD PUSH32 0x8C379A000000000000000000000000000000000000000000000000000000000 DUP2 MSTORE PUSH1 0x4 ADD PUSH2 0x228 SWAP1 PUSH2 0xDEB JUMP JUMPDEST PUSH1 0x40 MLOAD DUP1 SWAP2 SUB SWAP1 REVERT JUMPDEST PUSH1 0x1 PUSH1 0x4 PUSH0 DUP4 PUSH20 0xFFFFFFFFFFFFFFFFFFFFFFFFFFFFFFFFFFFFFFFF AND PUSH20 0xFFFFFFFFFFFFFFFFFFFFFFFFFFFFFFFFFFFFFFFF AND DUP2 MSTORE PUSH1 0x20 ADD SWAP1 DUP2 MSTORE PUSH1 0x20 ADD PUSH0 KECCAK256 PUSH0 PUSH2 0x100 EXP DUP2 SLOAD DUP2 PUSH1 0xFF MUL NOT AND SWAP1 DUP4 ISZERO ISZERO MUL OR SWAP1 SSTORE POP POP JUMP JUMPDEST PUSH1 0x4 PUSH1 0x20 MSTORE DUP1 PUSH0 MSTORE PUSH1 0x40 PUSH0 KECCAK256 PUSH0 SWAP2 POP SLOAD SWAP1 PUSH2 0x100 EXP SWAP1 DIV PUSH1 0xFF AND DUP2 JUMP JUMPDEST PUSH0 DUP1 SLOAD SWAP1 PUSH2 0x100 EXP SWAP1 DIV PUSH20 0xFFFFFFFFFFFFFFFFFFFFFFFFFFFFFFFFFFFFFFFF AND PUSH20 0xFFFFFFFFFFFFFFFFFFFFFFFFFFFFFFFFFFFFFFFF AND CALLER PUSH20 0xFFFFFFFFFFFFFFFFFFFFFFFFFFFFFFFFFFFFFFFF AND EQ PUSH2 0x333 JUMPI PUSH1 0x40 MLOAD PUSH32 0x8C379A000000000000000000000000000000000000000000000000000000000 DUP2 MSTORE PUSH1 0x4 ADD PUSH2 0x32A SWAP1 PUSH2 0xDEB JUMP JUMPDEST PUSH1 0x40 MLOAD DUP1 SWAP2 SUB SWAP1 REVERT JUMPDEST PUSH0 DUP1 PUSH0 DUP1 PUSH1 0x3 PUSH0 SWAP1 SLOAD SWAP1 PUSH2 0x100 EXP SWAP1 DIV PUSH20 0xFFFFFFFFFFFFFFFFFFFFFFFFFFFFFFFFFFFFFFFF AND PUSH20 0xFFFFFFFFFFFFFFFFFFFFFFFFFFFFFFFFFFFFFFFF AND PUSH4 0xB9DB15B4 DUP8 PUSH1 0x40 MLOAD DUP3 PUSH4 0xFFFFFFFF AND PUSH1 0xE0 SHL DUP2 MSTORE PUSH1 0x4 ADD PUSH2 0x391 SWAP2 SWAP1 PUSH2 0x930 JUMP JUMPDEST PUSH0 PUSH1 0x40 MLOAD DUP1 DUP4 SUB DUP2 DUP7 GAS STATICCALL ISZERO DUP1 ISZERO PUSH2 0x3AB JUMPI RETURNDATASIZE PUSH0 DUP1 RETURNDATACOPY RETURNDATASIZE PUSH0 REVERT JUMPDEST POP POP POP POP PUSH1 0x40 MLOAD RETURNDATASIZE PUSH0 DUP3 RETURNDATACOPY RETURNDATASIZE PUSH1 0x1F NOT PUSH1 0x1F DUP3 ADD AND DUP3 ADD DUP1 PUSH1 0x40 MSTORE POP DUP2 ADD SWAP1 PUSH2 0x3D3 SWAP2 SWAP1 PUSH2 0xE8B JUMP JUMPDEST SWAP6 POP SWAP6 POP POP POP SWAP4 POP SWAP4 POP PUSH1 0x40 MLOAD DUP1 PUSH1 0x40 ADD PUSH1 0x40 MSTORE DUP1 PUSH1 0xC DUP2 MSTORE PUSH1 0x20 ADD PUSH32 0x4D616E7566616374757265640000000000000000000000000000000000000000 DUP2 MSTORE POP DUP1 MLOAD SWAP1 PUSH1 0x20 ADD KECCAK256 DUP2 DUP1 MLOAD SWAP1 PUSH1 0x20 ADD KECCAK256 EQ PUSH2 0x462 JUMPI PUSH1 0x40 MLOAD PUSH32 0x8C379A000000000000000000000000000000000000000000000000000000000 DUP2 MSTORE PUSH1 0x4 ADD PUSH2 0x459 SWAP1 PUSH2 0xFCE JUMP JUMPDEST PUSH1 0x40 MLOAD DUP1 SWAP2 SUB SWAP1 REVERT JUMPDEST PUSH1 0x2 PUSH0 DUP2 SLOAD DUP1 SWAP3 SWAP2 SWAP1 PUSH2 0x474 SWAP1 PUSH2 0x1019 JUMP JUMPDEST SWAP2 SWAP1 POP SSTORE POP PUSH1 0x40 MLOAD DUP1 PUSH1 0xE0 ADD PUSH1 0x40 MSTORE DUP1 PUSH1 0x2 SLOAD DUP2 MSTORE PUSH1 0x20 ADD DUP6 DUP2 MSTORE PUSH1 0x20 ADD DUP5 DUP2 MSTORE PUSH1 0x20 ADD DUP7 DUP2 MSTORE PUSH1 0x20 ADD TIMESTAMP DUP2 MSTORE PUSH1 0x20 ADD PUSH1 0x40 MLOAD DUP1 PUSH1 0x40 ADD PUSH1 0x40 MSTORE DUP1 PUSH1 0xA DUP2 MSTORE PUSH1 0x20 ADD PUSH32 0x496E205472616E73697400000000000000000000000000000000000000000000 DUP2 MSTORE POP DUP2 MSTORE PUSH1 0x20 ADD PUSH0 ISZERO ISZERO DUP2 MSTORE POP PUSH1 0x1 PUSH0 PUSH1 0x2 SLOAD DUP2 MSTORE PUSH1 0x20 ADD SWAP1 DUP2 MSTORE PUSH1 0x20 ADD PUSH0 KECCAK256 PUSH0 DUP3 ADD MLOAD DUP2 PUSH0 ADD SSTORE PUSH1 0x20 DUP3 ADD MLOAD DUP2 PUSH1 0x1 ADD SWAP1 DUP2 PUSH2 0x515 SWAP2 SWAP1 PUSH2 0x1251 JUMP JUMPDEST POP PUSH1 0x40 DUP3 ADD MLOAD DUP2 PUSH1 0x2 ADD SSTORE PUSH1 0x60 DUP3 ADD MLOAD DUP2 PUSH1 0x3 ADD SWAP1 DUP2 PUSH2 0x535 SWAP2 SWAP1 PUSH2 0x1251 JUMP JUMPDEST POP PUSH1 0x80 DUP3 ADD MLOAD DUP2 PUSH1 0x4 ADD SSTORE PUSH1 0xA0 DUP3 ADD MLOAD DUP2 PUSH1 0x5 ADD SWAP1 DUP2 PUSH2 0x555 SWAP2 SWAP1 PUSH2 0x1251 JUMP JUMPDEST POP PUSH1 0xC0 DUP3 ADD MLOAD DUP2 PUSH1 0x6 ADD PUSH0 PUSH2 0x100 EXP DUP2 SLOAD DUP2 PUSH1 0xFF MUL NOT AND SWAP1 DUP4 ISZERO ISZERO MUL OR SWAP1 SSTORE POP SWAP1 POP POP POP POP POP POP POP POP JUMP JUMPDEST PUSH1 0x1 PUSH1 0x20 MSTORE DUP1 PUSH0 MSTORE PUSH1 0x40 PUSH0 KECCAK256 PUSH0 SWAP2 POP SWAP1 POP DUP1 PUSH0 ADD SLOAD SWAP1 DUP1 PUSH1 0x1 ADD DUP1 SLOAD PUSH2 0x5A5 SWAP1 PUSH2 0x108D JUMP JUMPDEST DUP1 PUSH1 0x1F ADD PUSH1 0x20 DUP1 SWAP2 DIV MUL PUSH1 0x20 ADD PUSH1 0x40 MLOAD SWAP1 DUP2 ADD PUSH1 0x40 MSTORE DUP1 SWAP3 SWAP2 SWAP1 DUP2 DUP2 MSTORE PUSH1 0x20 ADD DUP3 DUP1 SLOAD PUSH2 0x5D1 SWAP1 PUSH2 0x108D JUMP JUMPDEST DUP1 ISZERO PUSH2 0x61C JUMPI DUP1 PUSH1 0x1F LT PUSH2 0x5F3 JUMPI PUSH2 0x100 DUP1 DUP4 SLOAD DIV MUL DUP4 MSTORE SWAP2 PUSH1 0x20 ADD SWAP2 PUSH2 0x61C JUMP JUMPDEST DUP3 ADD SWAP2 SWAP1 PUSH0 MSTORE PUSH1 0x20 PUSH0 KECCAK256 SWAP1 JUMPDEST DUP2 SLOAD DUP2 MSTORE SWAP1 PUSH1 0x1 ADD SWAP1 PUSH1 0x20 ADD DUP1 DUP4 GT PUSH2 0x5FF JUMPI DUP3 SWAP1 SUB PUSH1 0x1F AND DUP3 ADD SWAP2 JUMPDEST POP POP POP POP POP SWAP1 DUP1 PUSH1 0x2 ADD SLOAD SWAP1 DUP1 PUSH1 0x3 ADD DUP1 SLOAD PUSH2 0x637 SWAP1 PUSH2 0x108D JUMP JUMPDEST DUP1 PUSH1 0x1F ADD PUSH1 0x20 DUP1 SWAP2 DIV MUL PUSH1 0x20 ADD PUSH1 0x40 MLOAD SWAP1 DUP2 ADD PUSH1 0x40 MSTORE DUP1 SWAP3 SWAP2 SWAP1 DUP2 DUP2 MSTORE PUSH1 0x20 ADD DUP3 DUP1 SLOAD PUSH2 0x663 SWAP1 PUSH2 0x108D JUMP JUMPDEST DUP1 ISZERO PUSH2 0x6AE JUMPI DUP1 PUSH1 0x1F LT PUSH2 0x685 JUMPI PUSH2 0x100 DUP1 DUP4 SLOAD DIV MUL DUP4 MSTORE SWAP2 PUSH1 0x20 ADD SWAP2 PUSH2 0x6AE JUMP JUMPDEST DUP3 ADD SWAP2 SWAP1 PUSH0 MSTORE PUSH1 0x20 PUSH0 KECCAK256 SWAP1 JUMPDEST DUP2 SLOAD DUP2 MSTORE SWAP1 PUSH1 0x1 ADD SWAP1 PUSH1 0x20 ADD DUP1 DUP4 GT PUSH2 0x691 JUMPI DUP3 SWAP1 SUB PUSH1 0x1F AND DUP3 ADD SWAP2 JUMPDEST POP POP POP POP POP SWAP1 DUP1 PUSH1 0x4 ADD SLOAD SWAP1 DUP1 PUSH1 0x5 ADD DUP1 SLOAD PUSH2 0x6C9 SWAP1 PUSH2 0x108D JUMP JUMPDEST DUP1 PUSH1 0x1F ADD PUSH1 0x20 DUP1 SWAP2 DIV MUL PUSH1 0x20 ADD PUSH1 0x40 MLOAD SWAP1 DUP2 ADD PUSH1 0x40 MSTORE DUP1 SWAP3 SWAP2 SWAP1 DUP2 DUP2 MSTORE PUSH1 0x20 ADD DUP3 DUP1 SLOAD PUSH2 0x6F5 SWAP1 PUSH2 0x108D JUMP JUMPDEST DUP1 ISZERO PUSH2 0x740 JUMPI DUP1 PUSH1 0x1F LT PUSH2 0x717 JUMPI PUSH2 0x100 DUP1 DUP4 SLOAD DIV MUL DUP4 MSTORE SWAP2 PUSH1 0x20 ADD SWAP2 PUSH2 0x740 JUMP JUMPDEST DUP3 ADD SWAP2 SWAP1 PUSH0 MSTORE PUSH1 0x20 PUSH0 KECCAK256 SWAP1 JUMPDEST DUP2 SLOAD DUP2 MSTORE SWAP1 PUSH1 0x1 ADD SWAP1 PUSH1 0x20 ADD DUP1 DUP4 GT PUSH2 0x723 JUMPI DUP3 SWAP1 SUB PUSH1 0x1F AND DUP3 ADD SWAP2 JUMPDEST POP POP POP POP POP SWAP1 DUP1 PUSH1 0x6 ADD PUSH0 SWAP1 SLOAD SWAP1 PUSH2 0x100 EXP SWAP1 DIV PUSH1 0xFF AND SWAP1 POP DUP8 JUMP JUMPDEST PUSH1 0x3 PUSH0 SWAP1 SLOAD SWAP1 PUSH2 0x100 EXP SWAP1 DIV PUSH20 0xFFFFFFFFFFFFFFFFFFFFFFFFFFFFFFFFFFFFFFFF AND DUP2 JUMP JUMPDEST PUSH0 DUP1 SLOAD SWAP1 PUSH2 0x100 EXP SWAP1 DIV PUSH20 0xFFFFFFFFFFFFFFFFFFFFFFFFFFFFFFFFFFFFFFFF AND DUP2 JUMP JUMPDEST PUSH1 0x4 PUSH0 CALLER PUSH20 0xFFFFFFFFFFFFFFFFFFFFFFFFFFFFFFFFFFFFFFFF AND PUSH20 0xFFFFFFFFFFFFFFFFFFFFFFFFFFFFFFFFFFFFFFFF AND DUP2 MSTORE PUSH1 0x20 ADD SWAP1 DUP2 MSTORE PUSH1 0x20 ADD PUSH0 KECCAK256 PUSH0 SWAP1 SLOAD SWAP1 PUSH2 0x100 EXP SWAP1 DIV PUSH1 0xFF AND PUSH2 0x82D JUMPI PUSH1 0x40 MLOAD PUSH32 0x8C379A000000000000000000000000000000000000000000000000000000000 DUP2 MSTORE PUSH1 0x4 ADD PUSH2 0x824 SWAP1 PUSH2 0x1390 JUMP JUMPDEST PUSH1 0x40 MLOAD DUP1 SWAP2 SUB SWAP1 REVERT JUMPDEST PUSH0 ISZERO ISZERO PUSH1 0x1 PUSH0 DUP4 DUP2 MSTORE PUSH1 0x20 ADD SWAP1 DUP2 MSTORE PUSH1 0x20 ADD PUSH0 KECCAK256 PUSH1 0x6 ADD PUSH0 SWAP1 SLOAD SWAP1 PUSH2 0x100 EXP SWAP1 DIV PUSH1 0xFF AND ISZERO ISZERO EQ PUSH2 0x893 JUMPI PUSH1 0x40 MLOAD PUSH32 0x8C379A000000000000000000000000000000000000000000000000000000000 DUP2 MSTORE PUSH1 0x4 ADD PUSH2 0x88A SWAP1 PUSH2 0x13F8 JUMP JUMPDEST PUSH1 0x40 MLOAD DUP1 SWAP2 SUB SWAP1 REVERT JUMPDEST PUSH1 0x1 DUP1 PUSH0 DUP4 DUP2 MSTORE PUSH1 0x20 ADD SWAP1 DUP2 MSTORE PUSH1 0x20 ADD PUSH0 KECCAK256 PUSH1 0x6 ADD PUSH0 PUSH2 0x100 EXP DUP2 SLOAD DUP2 PUSH1 0xFF MUL NOT AND SWAP1 DUP4 ISZERO ISZERO MUL OR SWAP1 SSTORE POP PUSH1 0x40 MLOAD DUP1 PUSH1 0x40 ADD PUSH1 0x40 MSTORE DUP1 PUSH1 0x9 DUP2 MSTORE PUSH1 0x20 ADD PUSH32 0x44656C6976657265640000000000000000000000000000000000000000000000 DUP2 MSTORE POP PUSH1 0x1 PUSH0 DUP4 DUP2 MSTORE PUSH1 0x20 ADD SWAP1 DUP2 MSTORE PUSH1 0x20 ADD PUSH0 KECCAK256 PUSH1 0x5 ADD SWAP1 DUP2 PUSH2 0x914 SWAP2 SWAP1 PUSH2 0x1251 JUMP JUMPDEST POP POP JUMP JUMPDEST PUSH0 DUP2 SWAP1 POP SWAP2 SWAP1 POP JUMP JUMPDEST PUSH2 0x92A DUP2 PUSH2 0x918 JUMP JUMPDEST DUP3 MSTORE POP POP JUMP JUMPDEST PUSH0 PUSH1 0x20 DUP3 ADD SWAP1 POP PUSH2 0x943 PUSH0 DUP4 ADD DUP5 PUSH2 0x921 JUMP JUMPDEST SWAP3 SWAP2 POP POP JUMP JUMPDEST PUSH0 PUSH1 0x40 MLOAD SWAP1 POP SWAP1 JUMP JUMPDEST PUSH0 DUP1 REVERT JUMPDEST PUSH0 DUP1 REVERT JUMPDEST PUSH0 PUSH20 0xFFFFFFFFFFFFFFFFFFFFFFFFFFFFFFFFFFFFFFFF DUP3 AND SWAP1 POP SWAP2 SWAP1 POP JUMP JUMPDEST PUSH0 PUSH2 0x983 DUP3 PUSH2 0x95A JUMP JUMPDEST SWAP1 POP SWAP2 SWAP1 POP JUMP JUMPDEST PUSH2 0x993 DUP2 PUSH2 0x979 JUMP JUMPDEST DUP2 EQ PUSH2 0x99D JUMPI PUSH0 DUP1 REVERT JUMPDEST POP JUMP JUMPDEST PUSH0 DUP2 CALLDATALOAD SWAP1 POP PUSH2 0x9AE DUP2 PUSH2 0x98A JUMP JUMPDEST SWAP3 SWAP2 POP POP JUMP JUMPDEST PUSH0 PUSH1 0x20 DUP3 DUP5 SUB SLT ISZERO PUSH2 0x9C9 JUMPI PUSH2 0x9C8 PUSH2 0x952 JUMP JUMPDEST JUMPDEST PUSH0 PUSH2 0x9D6 DUP5 DUP3 DUP6 ADD PUSH2 0x9A0 JUMP JUMPDEST SWAP2 POP POP SWAP3 SWAP2 POP POP JUMP JUMPDEST PUSH0 DUP2 ISZERO ISZERO SWAP1 POP SWAP2 SWAP1 POP JUMP JUMPDEST PUSH2 0x9F3 DUP2 PUSH2 0x9DF JUMP JUMPDEST DUP3 MSTORE POP POP JUMP JUMPDEST PUSH0 PUSH1 0x20 DUP3 ADD SWAP1 POP PUSH2 0xA0C PUSH0 DUP4 ADD DUP5 PUSH2 0x9EA JUMP JUMPDEST SWAP3 SWAP2 POP POP JUMP JUMPDEST PUSH2 0xA1B DUP2 PUSH2 0x918 JUMP JUMPDEST DUP2 EQ PUSH2 0xA25 JUMPI PUSH0 DUP1 REVERT JUMPDEST POP JUMP JUMPDEST PUSH0 DUP2 CALLDATALOAD SWAP1 POP PUSH2 0xA36 DUP2 PUSH2 0xA12 JUMP JUMPDEST SWAP3 SWAP2 POP POP JUMP JUMPDEST PUSH0 DUP1 REVERT JUMPDEST PUSH0 DUP1 REVERT JUMPDEST PUSH0 PUSH1 0x1F NOT PUSH1 0x1F DUP4 ADD AND SWAP1 POP SWAP2 SWAP1 POP JUMP JUMPDEST PUSH32 0x4E487B7100000000000000000000000000000000000000000000000000000000 PUSH0 MSTORE PUSH1 0x41 PUSH1 0x4 MSTORE PUSH1 0x24 PUSH0 REVERT JUMPDEST PUSH2 0xA8A DUP3 PUSH2 0xA44 JUMP JUMPDEST DUP2 ADD DUP2 DUP2 LT PUSH8 0xFFFFFFFFFFFFFFFF DUP3 GT OR ISZERO PUSH2 0xAA9 JUMPI PUSH2 0xAA8 PUSH2 0xA54 JUMP JUMPDEST JUMPDEST DUP1 PUSH1 0x40 MSTORE POP POP POP JUMP JUMPDEST PUSH0 PUSH2 0xABB PUSH2 0x949 JUMP JUMPDEST SWAP1 POP PUSH2 0xAC7 DUP3 DUP3 PUSH2 0xA81 JUMP JUMPDEST SWAP2 SWAP1 POP JUMP JUMPDEST PUSH0 PUSH8 0xFFFFFFFFFFFFFFFF DUP3 GT ISZERO PUSH2 0xAE6 JUMPI PUSH2 0xAE5 PUSH2 0xA54 JUMP JUMPDEST JUMPDEST PUSH2 0xAEF DUP3 PUSH2 0xA44 JUMP JUMPDEST SWAP1 POP PUSH1 0x20 DUP2 ADD SWAP1 POP SWAP2 SWAP1 POP JUMP JUMPDEST DUP3 DUP2 DUP4 CALLDATACOPY PUSH0 DUP4 DUP4 ADD MSTORE POP POP POP JUMP JUMPDEST PUSH0 PUSH2 0xB1C PUSH2 0xB17 DUP5 PUSH2 0xACC JUMP JUMPDEST PUSH2 0xAB2 JUMP JUMPDEST SWAP1 POP DUP3 DUP2 MSTORE PUSH1 0x20 DUP2 ADD DUP5 DUP5 DUP5 ADD GT ISZERO PUSH2 0xB38 JUMPI PUSH2 0xB37 PUSH2 0xA40 JUMP JUMPDEST JUMPDEST PUSH2 0xB43 DUP5 DUP3 DUP6 PUSH2 0xAFC JUMP JUMPDEST POP SWAP4 SWAP3 POP POP POP JUMP JUMPDEST PUSH0 DUP3 PUSH1 0x1F DUP4 ADD SLT PUSH2 0xB5F JUMPI PUSH2 0xB5E PUSH2 0xA3C JUMP JUMPDEST JUMPDEST DUP2 CALLDATALOAD PUSH2 0xB6F DUP5 DUP3 PUSH1 0x20 DUP7 ADD PUSH2 0xB0A JUMP JUMPDEST SWAP2 POP POP SWAP3 SWAP2 POP POP JUMP JUMPDEST PUSH0 DUP1 PUSH1 0x40 DUP4 DUP6 SUB SLT ISZERO PUSH2 0xB8E JUMPI PUSH2 0xB8D PUSH2 0x952 JUMP JUMPDEST JUMPDEST PUSH0 PUSH2 0xB9B DUP6 DUP3 DUP7 ADD PUSH2 0xA28 JUMP JUMPDEST SWAP3 POP POP PUSH1 0x20 DUP4 ADD CALLDATALOAD PUSH8 0xFFFFFFFFFFFFFFFF DUP2 GT ISZERO PUSH2 0xBBC JUMPI PUSH2 0xBBB PUSH2 0x956 JUMP JUMPDEST JUMPDEST PUSH2 0xBC8 DUP6 DUP3 DUP7 ADD PUSH2 0xB4B JUMP JUMPDEST SWAP2 POP POP SWAP3 POP SWAP3 SWAP1 POP JUMP JUMPDEST PUSH0 PUSH1 0x20 DUP3 DUP5 SUB SLT ISZERO PUSH2 0xBE7 JUMPI PUSH2 0xBE6 PUSH2 0x952 JUMP JUMPDEST JUMPDEST PUSH0 PUSH2 0xBF4 DUP5 DUP3 DUP6 ADD PUSH2 0xA28 JUMP JUMPDEST SWAP2 POP POP SWAP3 SWAP2 POP POP JUMP JUMPDEST PUSH0 DUP2 MLOAD SWAP1 POP SWAP2 SWAP1 POP JUMP JUMPDEST PUSH0 DUP3 DUP3 MSTORE PUSH1 0x20 DUP3 ADD SWAP1 POP SWAP3 SWAP2 POP POP JUMP JUMPDEST DUP3 DUP2 DUP4 MCOPY PUSH0 DUP4 DUP4 ADD MSTORE POP POP POP JUMP JUMPDEST PUSH0 PUSH2 0xC2F DUP3 PUSH2 0xBFD JUMP JUMPDEST PUSH2 0xC39 DUP2 DUP6 PUSH2 0xC07 JUMP JUMPDEST SWAP4 POP PUSH2 0xC49 DUP2 DUP6 PUSH1 0x20 DUP7 ADD PUSH2 0xC17 JUMP JUMPDEST PUSH2 0xC52 DUP2 PUSH2 0xA44 JUMP JUMPDEST DUP5 ADD SWAP2 POP POP SWAP3 SWAP2 POP POP JUMP JUMPDEST PUSH0 PUSH1 0xE0 DUP3 ADD SWAP1 POP PUSH2 0xC70 PUSH0 DUP4 ADD DUP11 PUSH2 0x921 JUMP JUMPDEST DUP2 DUP2 SUB PUSH1 0x20 DUP4 ADD MSTORE PUSH2 0xC82 DUP2 DUP10 PUSH2 0xC25 JUMP JUMPDEST SWAP1 POP PUSH2 0xC91 PUSH1 0x40 DUP4 ADD DUP9 PUSH2 0x921 JUMP JUMPDEST DUP2 DUP2 SUB PUSH1 0x60 DUP4 ADD MSTORE PUSH2 0xCA3 DUP2 DUP8 PUSH2 0xC25 JUMP JUMPDEST SWAP1 POP PUSH2 0xCB2 PUSH1 0x80 DUP4 ADD DUP7 PUSH2 0x921 JUMP JUMPDEST DUP2 DUP2 SUB PUSH1 0xA0 DUP4 ADD MSTORE PUSH2 0xCC4 DUP2 DUP6 PUSH2 0xC25 JUMP JUMPDEST SWAP1 POP PUSH2 0xCD3 PUSH1 0xC0 DUP4 ADD DUP5 PUSH2 0x9EA JUMP JUMPDEST SWAP9 SWAP8 POP POP POP POP POP POP POP POP JUMP JUMPDEST PUSH0 DUP2 SWAP1 POP SWAP2 SWAP1 POP JUMP JUMPDEST PUSH0 PUSH2 0xD02 PUSH2 0xCFD PUSH2 0xCF8 DUP5 PUSH2 0x95A JUMP JUMPDEST PUSH2 0xCDF JUMP JUMPDEST PUSH2 0x95A JUMP JUMPDEST SWAP1 POP SWAP2 SWAP1 POP JUMP JUMPDEST PUSH0 PUSH2 0xD13 DUP3 PUSH2 0xCE8 JUMP JUMPDEST SWAP1 POP SWAP2 SWAP1 POP JUMP JUMPDEST PUSH0 PUSH2 0xD24 DUP3 PUSH2 0xD09 JUMP JUMPDEST SWAP1 POP SWAP2 SWAP1 POP JUMP JUMPDEST PUSH2 0xD34 DUP2 PUSH2 0xD1A JUMP JUMPDEST DUP3 MSTORE POP POP JUMP JUMPDEST PUSH0 PUSH1 0x20 DUP3 ADD SWAP1 POP PUSH2 0xD4D PUSH0 DUP4 ADD DUP5 PUSH2 0xD2B JUMP JUMPDEST SWAP3 SWAP2 POP POP JUMP JUMPDEST PUSH2 0xD5C DUP2 PUSH2 0x979 JUMP JUMPDEST DUP3 MSTORE POP POP JUMP JUMPDEST PUSH0 PUSH1 0x20 DUP3 ADD SWAP1 POP PUSH2 0xD75 PUSH0 DUP4 ADD DUP5 PUSH2 0xD53 JUMP JUMPDEST SWAP3 SWAP2 POP POP JUMP JUMPDEST PUSH32 0x4F6E6C7920746865206C6F676973746963732070726F76696465722063616E20 PUSH0 DUP3 ADD MSTORE PUSH32 0x706572666F726D207468697320616374696F6E00000000000000000000000000 PUSH1 0x20 DUP3 ADD MSTORE POP JUMP JUMPDEST PUSH0 PUSH2 0xDD5 PUSH1 0x33 DUP4 PUSH2 0xC07 JUMP JUMPDEST SWAP2 POP PUSH2 0xDE0 DUP3 PUSH2 0xD7B JUMP JUMPDEST PUSH1 0x40 DUP3 ADD SWAP1 POP SWAP2 SWAP1 POP JUMP JUMPDEST PUSH0 PUSH1 0x20 DUP3 ADD SWAP1 POP DUP2 DUP2 SUB PUSH0 DUP4 ADD MSTORE PUSH2 0xE02 DUP2 PUSH2 0xDC9 JUMP JUMPDEST SWAP1 POP SWAP2 SWAP1 POP JUMP JUMPDEST PUSH0 PUSH2 0xE1B PUSH2 0xE16 DUP5 PUSH2 0xACC JUMP JUMPDEST PUSH2 0xAB2 JUMP JUMPDEST SWAP1 POP DUP3 DUP2 MSTORE PUSH1 0x20 DUP2 ADD DUP5 DUP5 DUP5 ADD GT ISZERO PUSH2 0xE37 JUMPI PUSH2 0xE36 PUSH2 0xA40 JUMP JUMPDEST JUMPDEST PUSH2 0xE42 DUP5 DUP3 DUP6 PUSH2 0xC17 JUMP JUMPDEST POP SWAP4 SWAP3 POP POP POP JUMP JUMPDEST PUSH0 DUP3 PUSH1 0x1F DUP4 ADD SLT PUSH2 0xE5E JUMPI PUSH2 0xE5D PUSH2 0xA3C JUMP JUMPDEST JUMPDEST DUP2 MLOAD PUSH2 0xE6E DUP5 DUP3 PUSH1 0x20 DUP7 ADD PUSH2 0xE09 JUMP JUMPDEST SWAP2 POP POP SWAP3 SWAP2 POP POP JUMP JUMPDEST PUSH0 DUP2 MLOAD SWAP1 POP PUSH2 0xE85 DUP2 PUSH2 0xA12 JUMP JUMPDEST SWAP3 SWAP2 POP POP JUMP JUMPDEST PUSH0 DUP1 PUSH0 DUP1 PUSH0 DUP1 PUSH1 0xC0 DUP8 DUP10 SUB SLT ISZERO PUSH2 0xEA5 JUMPI PUSH2 0xEA4 PUSH2 0x952 JUMP JUMPDEST JUMPDEST PUSH0 DUP8 ADD MLOAD PUSH8 0xFFFFFFFFFFFFFFFF DUP2 GT ISZERO PUSH2 0xEC2 JUMPI PUSH2 0xEC1 PUSH2 0x956 JUMP JUMPDEST JUMPDEST PUSH2 0xECE DUP10 DUP3 DUP11 ADD PUSH2 0xE4A JUMP JUMPDEST SWAP7 POP POP PUSH1 0x20 PUSH2 0xEDF DUP10 DUP3 DUP11 ADD PUSH2 0xE77 JUMP JUMPDEST SWAP6 POP POP PUSH1 0x40 DUP8 ADD MLOAD PUSH8 0xFFFFFFFFFFFFFFFF DUP2 GT ISZERO PUSH2 0xF00 JUMPI PUSH2 0xEFF PUSH2 0x956 JUMP JUMPDEST JUMPDEST PUSH2 0xF0C DUP10 DUP3 DUP11 ADD PUSH2 0xE4A JUMP JUMPDEST SWAP5 POP POP PUSH1 0x60 DUP8 ADD MLOAD PUSH8 0xFFFFFFFFFFFFFFFF DUP2 GT ISZERO PUSH2 0xF2D JUMPI PUSH2 0xF2C PUSH2 0x956 JUMP JUMPDEST JUMPDEST PUSH2 0xF39 DUP10 DUP3 DUP11 ADD PUSH2 0xE4A JUMP JUMPDEST SWAP4 POP POP PUSH1 0x80 PUSH2 0xF4A DUP10 DUP3 DUP11 ADD PUSH2 0xE77 JUMP JUMPDEST SWAP3 POP POP PUSH1 0xA0 DUP8 ADD MLOAD PUSH8 0xFFFFFFFFFFFFFFFF DUP2 GT ISZERO PUSH2 0xF6B JUMPI PUSH2 0xF6A PUSH2 0x956 JUMP JUMPDEST JUMPDEST PUSH2 0xF77 DUP10 DUP3 DUP11 ADD PUSH2 0xE4A JUMP JUMPDEST SWAP2 POP POP SWAP3 SWAP6 POP SWAP3 SWAP6 POP SWAP3 SWAP6 JUMP JUMPDEST PUSH32 0x50726F64756374206E6F7420726561647920666F722064656C69766572790000 PUSH0 DUP3 ADD MSTORE POP JUMP JUMPDEST PUSH0 PUSH2 0xFB8 PUSH1 0x1E DUP4 PUSH2 0xC07 JUMP JUMPDEST SWAP2 POP PUSH2 0xFC3 DUP3 PUSH2 0xF84 JUMP JUMPDEST PUSH1 0x20 DUP3 ADD SWAP1 POP SWAP2 SWAP1 POP JUMP JUMPDEST PUSH0 PUSH1 0x20 DUP3 ADD SWAP1 POP DUP2 DUP2 SUB PUSH0 DUP4 ADD MSTORE PUSH2 0xFE5 DUP2 PUSH2 0xFAC JUMP JUMPDEST SWAP1 POP SWAP2 SWAP1 POP JUMP JUMPDEST PUSH32 0x4E487B7100000000000000000000000000000000000000000000000000000000 PUSH0 MSTORE PUSH1 0x11 PUSH1 0x4 MSTORE PUSH1 0x24 PUSH0 REVERT JUMPDEST PUSH0 PUSH2 0x1023 DUP3 PUSH2 0x918 JUMP JUMPDEST SWAP2 POP PUSH32 0xFFFFFFFFFFFFFFFFFFFFFFFFFFFFFFFFFFFFFFFFFFFFFFFFFFFFFFFFFFFFFFFF DUP3 SUB PUSH2 0x1055 JUMPI PUSH2 0x1054 PUSH2 0xFEC JUMP JUMPDEST JUMPDEST PUSH1 0x1 DUP3 ADD SWAP1 POP SWAP2 SWAP1 POP JUMP JUMPDEST PUSH32 0x4E487B7100000000000000000000000000000000000000000000000000000000 PUSH0 MSTORE PUSH1 0x22 PUSH1 0x4 MSTORE PUSH1 0x24 PUSH0 REVERT JUMPDEST PUSH0 PUSH1 0x2 DUP3 DIV SWAP1 POP PUSH1 0x1 DUP3 AND DUP1 PUSH2 0x10A4 JUMPI PUSH1 0x7F DUP3 AND SWAP2 POP JUMPDEST PUSH1 0x20 DUP3 LT DUP2 SUB PUSH2 0x10B7 JUMPI PUSH2 0x10B6 PUSH2 0x1060 JUMP JUMPDEST JUMPDEST POP SWAP2 SWAP1 POP JUMP JUMPDEST PUSH0 DUP2 SWAP1 POP DUP2 PUSH0 MSTORE PUSH1 0x20 PUSH0 KECCAK256 SWAP1 POP SWAP2 SWAP1 POP JUMP JUMPDEST PUSH0 PUSH1 0x20 PUSH1 0x1F DUP4 ADD DIV SWAP1 POP SWAP2 SWAP1 POP JUMP JUMPDEST PUSH0 DUP3 DUP3 SHL SWAP1 POP SWAP3 SWAP2 POP POP JUMP JUMPDEST PUSH0 PUSH1 0x8 DUP4 MUL PUSH2 0x1119 PUSH32 0xFFFFFFFFFFFFFFFFFFFFFFFFFFFFFFFFFFFFFFFFFFFFFFFFFFFFFFFFFFFFFFFF DUP3 PUSH2 0x10DE JUMP JUMPDEST PUSH2 0x1123 DUP7 DUP4 PUSH2 0x10DE JUMP JUMPDEST SWAP6 POP DUP1 NOT DUP5 AND SWAP4 POP DUP1 DUP7 AND DUP5 OR SWAP3 POP POP POP SWAP4 SWAP3 POP POP POP JUMP JUMPDEST PUSH0 PUSH2 0x1155 PUSH2 0x1150 PUSH2 0x114B DUP5 PUSH2 0x918 JUMP JUMPDEST PUSH2 0xCDF JUMP JUMPDEST PUSH2 0x918 JUMP JUMPDEST SWAP1 POP SWAP2 SWAP1 POP JUMP JUMPDEST PUSH0 DUP2 SWAP1 POP SWAP2 SWAP1 POP JUMP JUMPDEST PUSH2 0x116E DUP4 PUSH2 0x113B JUMP JUMPDEST PUSH2 0x1182 PUSH2 0x117A DUP3 PUSH2 0x115C JUMP JUMPDEST DUP5 DUP5 SLOAD PUSH2 0x10EA JUMP JUMPDEST DUP3 SSTORE POP POP POP POP JUMP JUMPDEST PUSH0 SWAP1 JUMP JUMPDEST PUSH2 0x1196 PUSH2 0x118A JUMP JUMPDEST PUSH2 0x11A1 DUP2 DUP5 DUP5 PUSH2 0x1165 JUMP JUMPDEST POP POP POP JUMP JUMPDEST JUMPDEST DUP2 DUP2 LT ISZERO PUSH2 0x11C4 JUMPI PUSH2 0x11B9 PUSH0 DUP3 PUSH2 0x118E JUMP JUMPDEST PUSH1 0x1 DUP2 ADD SWAP1 POP PUSH2 0x11A7 JUMP JUMPDEST POP POP JUMP JUMPDEST PUSH1 0x1F DUP3 GT ISZERO PUSH2 0x1209 JUMPI PUSH2 0x11DA DUP2 PUSH2 0x10BD JUMP JUMPDEST PUSH2 0x11E3 DUP5 PUSH2 0x10CF JUMP JUMPDEST DUP2 ADD PUSH1 0x20 DUP6 LT ISZERO PUSH2 0x11F2 JUMPI DUP2 SWAP1 POP JUMPDEST PUSH2 0x1206 PUSH2 0x11FE DUP6 PUSH2 0x10CF JUMP JUMPDEST DUP4 ADD DUP3 PUSH2 0x11A6 JUMP JUMPDEST POP POP JUMPDEST POP POP POP JUMP JUMPDEST PUSH0 DUP3 DUP3 SHR SWAP1 POP SWAP3 SWAP2 POP POP JUMP JUMPDEST PUSH0 PUSH2 0x1229 PUSH0 NOT DUP5 PUSH1 0x8 MUL PUSH2 0x120E JUMP JUMPDEST NOT DUP1 DUP4 AND SWAP2 POP POP SWAP3 SWAP2 POP POP JUMP JUMPDEST PUSH0 PUSH2 0x1241 DUP4 DUP4 PUSH2 0x121A JUMP JUMPDEST SWAP2 POP DUP3 PUSH1 0x2 MUL DUP3 OR SWAP1 POP SWAP3 SWAP2 POP POP JUMP JUMPDEST PUSH2 0x125A DUP3 PUSH2 0xBFD JUMP JUMPDEST PUSH8 0xFFFFFFFFFFFFFFFF DUP2 GT ISZERO PUSH2 0x1273 JUMPI PUSH2 0x1272 PUSH2 0xA54 JUMP JUMPDEST JUMPDEST PUSH2 0x127D DUP3 SLOAD PUSH2 0x108D JUMP JUMPDEST PUSH2 0x1288 DUP3 DUP3 DUP6 PUSH2 0x11C8 JUMP JUMPDEST PUSH0 PUSH1 0x20 SWAP1 POP PUSH1 0x1F DUP4 GT PUSH1 0x1 DUP2 EQ PUSH2 0x12B9 JUMPI PUSH0 DUP5 ISZERO PUSH2 0x12A7 JUMPI DUP3 DUP8 ADD MLOAD SWAP1 POP JUMPDEST PUSH2 0x12B1 DUP6 DUP3 PUSH2 0x1236 JUMP JUMPDEST DUP7 SSTORE POP PUSH2 0x1318 JUMP JUMPDEST PUSH1 0x1F NOT DUP5 AND PUSH2 0x12C7 DUP7 PUSH2 0x10BD JUMP JUMPDEST PUSH0 JUMPDEST DUP3 DUP2 LT ISZERO PUSH2 0x12EE JUMPI DUP5 DUP10 ADD MLOAD DUP3 SSTORE PUSH1 0x1 DUP3 ADD SWAP2 POP PUSH1 0x20 DUP6 ADD SWAP5 POP PUSH1 0x20 DUP2 ADD SWAP1 POP PUSH2 0x12C9 JUMP JUMPDEST DUP7 DUP4 LT ISZERO PUSH2 0x130B JUMPI DUP5 DUP10 ADD MLOAD PUSH2 0x1307 PUSH1 0x1F DUP10 AND DUP3 PUSH2 0x121A JUMP JUMPDEST DUP4 SSTORE POP JUMPDEST PUSH1 0x1 PUSH1 0x2 DUP9 MUL ADD DUP9 SSTORE POP POP POP JUMPDEST POP POP POP POP POP POP JUMP JUMPDEST PUSH32 0x4F6E6C7920617574686F72697A65642072657461696C6572732063616E20636F PUSH0 DUP3 ADD MSTORE PUSH32 0x6E6669726D207468652064656C69766572790000000000000000000000000000 PUSH1 0x20 DUP3 ADD MSTORE POP JUMP JUMPDEST PUSH0 PUSH2 0x137A PUSH1 0x32 DUP4 PUSH2 0xC07 JUMP JUMPDEST SWAP2 POP PUSH2 0x1385 DUP3 PUSH2 0x1320 JUMP JUMPDEST PUSH1 0x40 DUP3 ADD SWAP1 POP SWAP2 SWAP1 POP JUMP JUMPDEST PUSH0 PUSH1 0x20 DUP3 ADD SWAP1 POP DUP2 DUP2 SUB PUSH0 DUP4 ADD MSTORE PUSH2 0x13A7 DUP2 PUSH2 0x136E JUMP JUMPDEST SWAP1 POP SWAP2 SWAP1 POP JUMP JUMPDEST PUSH32 0x44656C697665727920616C726561647920636F6E6669726D6564000000000000 PUSH0 DUP3 ADD MSTORE POP JUMP JUMPDEST PUSH0 PUSH2 0x13E2 PUSH1 0x1A DUP4 PUSH2 0xC07 JUMP JUMPDEST SWAP2 POP PUSH2 0x13ED DUP3 PUSH2 0x13AE JUMP JUMPDEST PUSH1 0x20 DUP3 ADD SWAP1 POP SWAP2 SWAP1 POP JUMP JUMPDEST PUSH0 PUSH1 0x20 DUP3 ADD SWAP1 POP DUP2 DUP2 SUB PUSH0 DUP4 ADD MSTORE PUSH2 0x140F DUP2 PUSH2 0x13D6 JUMP JUMPDEST SWAP1 POP SWAP2 SWAP1 POP JUMP INVALID LOG2 PUSH5 0x6970667358 0x22 SLT KECCAK256 PUSH8 0xF5C34CBED4261441 CALLDATALOAD 0xC7 BLOBBASEFEE 0xBA 0xBF 0xD1 PUSH12 0x710A8B6A1DBF214C96D38BD5 GASPRICE SWAP8 DUP3 0xE8 PUSH5 0x736F6C6343 STOP ADDMOD BYTE STOP CALLER "
				},
				"gasEstimates": {
					"creation": {
						"codeDepositCost": "1039200",
						"executionCost": "infinite",
						"totalCost": "infinite"
					},
					"external": {
						"authorizeRetailer(address)": "26992",
						"authorizedRetailers(address)": "2878",
						"confirmDelivery(uint256)": "infinite",
						"deliverProduct(uint256,string)": "infinite",
						"deliveries(uint256)": "infinite",
						"deliveryCount()": "2426",
						"logisticsProvider()": "2549",
						"manufacturerContract()": "infinite"
					}
				},
				"methodIdentifiers": {
					"authorizeRetailer(address)": "8ca5ded1",
					"authorizedRetailers(address)": "9369d880",
					"confirmDelivery(uint256)": "fd84cb97",
					"deliverProduct(uint256,string)": "a3d8a331",
					"deliveries(uint256)": "a9e4a324",
					"deliveryCount()": "5b77b6a6",
					"logisticsProvider()": "ba2fe9b7",
					"manufacturerContract()": "b11168ec"
				}
			},
			"storageLayout": {
				"storage": [
					{
						"astId": 36,
						"contract": "contracts/Logistics.sol:Logistics",
						"label": "logisticsProvider",
						"offset": 0,
						"slot": "0",
						"type": "t_address"
					},
					{
						"astId": 41,
						"contract": "contracts/Logistics.sol:Logistics",
						"label": "deliveries",
						"offset": 0,
						"slot": "1",
						"type": "t_mapping(t_uint256,t_struct(Delivery)34_storage)"
					},
					{
						"astId": 44,
						"contract": "contracts/Logistics.sol:Logistics",
						"label": "deliveryCount",
						"offset": 0,
						"slot": "2",
						"type": "t_uint256"
					},
					{
						"astId": 47,
						"contract": "contracts/Logistics.sol:Logistics",
						"label": "manufacturerContract",
						"offset": 0,
						"slot": "3",
						"type": "t_contract(IManufacturer)19"
					},
					{
						"astId": 51,
						"contract": "contracts/Logistics.sol:Logistics",
						"label": "authorizedRetailers",
						"offset": 0,
						"slot": "4",
						"type": "t_mapping(t_address,t_bool)"
					}
				],
				"types": {
					"t_address": {
						"encoding": "inplace",
						"label": "address",
						"numberOfBytes": "20"
					},
					"t_bool": {
						"encoding": "inplace",
						"label": "bool",
						"numberOfBytes": "1"
					},
					"t_contract(IManufacturer)19": {
						"encoding": "inplace",
						"label": "contract IManufacturer",
						"numberOfBytes": "20"
					},
					"t_mapping(t_address,t_bool)": {
						"encoding": "mapping",
						"key": "t_address",
						"label": "mapping(address => bool)",
						"numberOfBytes": "32",
						"value": "t_bool"
					},
					"t_mapping(t_uint256,t_struct(Delivery)34_storage)": {
						"encoding": "mapping",
						"key": "t_uint256",
						"label": "mapping(uint256 => struct Logistics.Delivery)",
						"numberOfBytes": "32",
						"value": "t_struct(Delivery)34_storage"
					},
					"t_string_storage": {
						"encoding": "bytes",
						"label": "string",
						"numberOfBytes": "32"
					},
					"t_struct(Delivery)34_storage": {
						"encoding": "inplace",
						"label": "struct Logistics.Delivery",
						"members": [
							{
								"astId": 21,
								"contract": "contracts/Logistics.sol:Logistics",
								"label": "id",
								"offset": 0,
								"slot": "0",
								"type": "t_uint256"
							},
							{
								"astId": 23,
								"contract": "contracts/Logistics.sol:Logistics",
								"label": "productName",
								"offset": 0,
								"slot": "1",
								"type": "t_string_storage"
							},
							{
								"astId": 25,
								"contract": "contracts/Logistics.sol:Logistics",
								"label": "quantity",
								"offset": 0,
								"slot": "2",
								"type": "t_uint256"
							},
							{
								"astId": 27,
								"contract": "contracts/Logistics.sol:Logistics",
								"label": "destination",
								"offset": 0,
								"slot": "3",
								"type": "t_string_storage"
							},
							{
								"astId": 29,
								"contract": "contracts/Logistics.sol:Logistics",
								"label": "timestamp",
								"offset": 0,
								"slot": "4",
								"type": "t_uint256"
							},
							{
								"astId": 31,
								"contract": "contracts/Logistics.sol:Logistics",
								"label": "status",
								"offset": 0,
								"slot": "5",
								"type": "t_string_storage"
							},
							{
								"astId": 33,
								"contract": "contracts/Logistics.sol:Logistics",
								"label": "isDelivered",
								"offset": 0,
								"slot": "6",
								"type": "t_bool"
							}
						],
						"numberOfBytes": "224"
					},
					"t_uint256": {
						"encoding": "inplace",
						"label": "uint256",
						"numberOfBytes": "32"
					}
				}
			},
			"userdoc": {
				"kind": "user",
				"methods": {},
				"version": 1
			}
		}
	}
}